{
  "contractName": "ERC1400",
  "abi": [
    {
      "constant": true,
      "inputs": [],
      "name": "_isIssuable",
      "outputs": [
        {
          "name": "",
          "type": "bool"
        }
      ],
      "payable": false,
      "stateMutability": "view",
      "type": "function"
    },
    {
      "constant": true,
      "inputs": [],
      "name": "_isControllable",
      "outputs": [
        {
          "name": "",
          "type": "bool"
        }
      ],
      "payable": false,
      "stateMutability": "view",
      "type": "function"
    },
    {
      "constant": true,
      "inputs": [],
      "name": "owner",
      "outputs": [
        {
          "name": "",
          "type": "address"
        }
      ],
      "payable": false,
      "stateMutability": "view",
      "type": "function"
    },
    {
      "inputs": [
        {
          "name": "name",
          "type": "string"
        },
        {
          "name": "symbol",
          "type": "string"
        },
        {
          "name": "decimals",
          "type": "uint8"
        },
        {
          "name": "controllers",
          "type": "address[]"
        },
        {
          "name": "whitelistaddr",
          "type": "address"
        }
      ],
      "payable": false,
      "stateMutability": "nonpayable",
      "type": "constructor"
    },
    {
      "anonymous": false,
      "inputs": [
        {
          "indexed": false,
          "name": "_controller",
          "type": "address"
        },
        {
          "indexed": true,
          "name": "_from",
          "type": "address"
        },
        {
          "indexed": true,
          "name": "_to",
          "type": "address"
        },
        {
          "indexed": false,
          "name": "_value",
          "type": "uint256"
        },
        {
          "indexed": false,
          "name": "_data",
          "type": "bytes"
        },
        {
          "indexed": false,
          "name": "_operatorData",
          "type": "bytes"
        }
      ],
      "name": "ControllerTransfer",
      "type": "event"
    },
    {
      "anonymous": false,
      "inputs": [
        {
          "indexed": false,
          "name": "_controller",
          "type": "address"
        },
        {
          "indexed": true,
          "name": "_tokenHolder",
          "type": "address"
        },
        {
          "indexed": false,
          "name": "_value",
          "type": "uint256"
        },
        {
          "indexed": false,
          "name": "_data",
          "type": "bytes"
        },
        {
          "indexed": false,
          "name": "_operatorData",
          "type": "bytes"
        }
      ],
      "name": "ControllerRedemption",
      "type": "event"
    },
    {
      "anonymous": false,
      "inputs": [
        {
          "indexed": true,
          "name": "_name",
          "type": "bytes32"
        },
        {
          "indexed": false,
          "name": "_uri",
          "type": "string"
        },
        {
          "indexed": false,
          "name": "_documentHash",
          "type": "bytes32"
        }
      ],
      "name": "Document",
      "type": "event"
    },
    {
      "anonymous": false,
      "inputs": [
        {
          "indexed": true,
          "name": "_fromPartition",
          "type": "bytes32"
        },
        {
          "indexed": false,
          "name": "_operator",
          "type": "address"
        },
        {
          "indexed": true,
          "name": "_from",
          "type": "address"
        },
        {
          "indexed": true,
          "name": "_to",
          "type": "address"
        },
        {
          "indexed": false,
          "name": "_value",
          "type": "uint256"
        },
        {
          "indexed": false,
          "name": "_data",
          "type": "bytes"
        },
        {
          "indexed": false,
          "name": "_operatorData",
          "type": "bytes"
        }
      ],
      "name": "TransferByPartition",
      "type": "event"
    },
    {
      "anonymous": false,
      "inputs": [
        {
          "indexed": true,
          "name": "_fromPartition",
          "type": "bytes32"
        },
        {
          "indexed": true,
          "name": "_toPartition",
          "type": "bytes32"
        },
        {
          "indexed": false,
          "name": "_value",
          "type": "uint256"
        }
      ],
      "name": "ChangedPartition",
      "type": "event"
    },
    {
      "anonymous": false,
      "inputs": [
        {
          "indexed": true,
          "name": "_operator",
          "type": "address"
        },
        {
          "indexed": true,
          "name": "_tokenHolder",
          "type": "address"
        }
      ],
      "name": "AuthorizedOperator",
      "type": "event"
    },
    {
      "anonymous": false,
      "inputs": [
        {
          "indexed": true,
          "name": "_operator",
          "type": "address"
        },
        {
          "indexed": true,
          "name": "_tokenHolder",
          "type": "address"
        }
      ],
      "name": "RevokedOperator",
      "type": "event"
    },
    {
      "anonymous": false,
      "inputs": [
        {
          "indexed": true,
          "name": "_partition",
          "type": "bytes32"
        },
        {
          "indexed": true,
          "name": "_operator",
          "type": "address"
        },
        {
          "indexed": true,
          "name": "_tokenHolder",
          "type": "address"
        }
      ],
      "name": "AuthorizedOperatorByPartition",
      "type": "event"
    },
    {
      "anonymous": false,
      "inputs": [
        {
          "indexed": true,
          "name": "_partition",
          "type": "bytes32"
        },
        {
          "indexed": true,
          "name": "_operator",
          "type": "address"
        },
        {
          "indexed": true,
          "name": "_tokenHolder",
          "type": "address"
        }
      ],
      "name": "RevokedOperatorByPartition",
      "type": "event"
    },
    {
      "anonymous": false,
      "inputs": [
        {
          "indexed": true,
          "name": "_operator",
          "type": "address"
        },
        {
          "indexed": true,
          "name": "_to",
          "type": "address"
        },
        {
          "indexed": false,
          "name": "_value",
          "type": "uint256"
        },
        {
          "indexed": false,
          "name": "_data",
          "type": "bytes"
        }
      ],
      "name": "Issued",
      "type": "event"
    },
    {
      "anonymous": false,
      "inputs": [
        {
          "indexed": true,
          "name": "_operator",
          "type": "address"
        },
        {
          "indexed": true,
          "name": "_from",
          "type": "address"
        },
        {
          "indexed": false,
          "name": "_value",
          "type": "uint256"
        },
        {
          "indexed": false,
          "name": "_data",
          "type": "bytes"
        }
      ],
      "name": "Redeemed",
      "type": "event"
    },
    {
      "anonymous": false,
      "inputs": [
        {
          "indexed": true,
          "name": "_partition",
          "type": "bytes32"
        },
        {
          "indexed": true,
          "name": "_operator",
          "type": "address"
        },
        {
          "indexed": true,
          "name": "_to",
          "type": "address"
        },
        {
          "indexed": false,
          "name": "_value",
          "type": "uint256"
        },
        {
          "indexed": false,
          "name": "_data",
          "type": "bytes"
        },
        {
          "indexed": false,
          "name": "_operatorData",
          "type": "bytes"
        }
      ],
      "name": "IssuedByPartition",
      "type": "event"
    },
    {
      "anonymous": false,
      "inputs": [
        {
          "indexed": true,
          "name": "_partition",
          "type": "bytes32"
        },
        {
          "indexed": true,
          "name": "_operator",
          "type": "address"
        },
        {
          "indexed": true,
          "name": "_from",
          "type": "address"
        },
        {
          "indexed": false,
          "name": "_value",
          "type": "uint256"
        },
        {
          "indexed": false,
          "name": "_operatorData",
          "type": "bytes"
        }
      ],
      "name": "RedeemedByPartition",
      "type": "event"
    },
    {
      "constant": true,
      "inputs": [],
      "name": "name",
      "outputs": [
        {
          "name": "",
          "type": "string"
        }
      ],
      "payable": false,
      "stateMutability": "view",
      "type": "function"
    },
    {
      "constant": true,
      "inputs": [],
      "name": "symbol",
      "outputs": [
        {
          "name": "",
          "type": "string"
        }
      ],
      "payable": false,
      "stateMutability": "view",
      "type": "function"
    },
    {
      "constant": true,
      "inputs": [],
      "name": "decimals",
      "outputs": [
        {
          "name": "",
          "type": "uint8"
        }
      ],
      "payable": false,
      "stateMutability": "view",
      "type": "function"
    },
    {
      "constant": true,
      "inputs": [],
      "name": "totalSupply",
      "outputs": [
        {
          "name": "",
          "type": "uint256"
        }
      ],
      "payable": false,
      "stateMutability": "view",
      "type": "function"
    },
    {
      "constant": true,
      "inputs": [],
      "name": "granularity",
      "outputs": [
        {
          "name": "",
          "type": "uint256"
        }
      ],
      "payable": false,
      "stateMutability": "view",
      "type": "function"
    },
    {
      "constant": true,
      "inputs": [],
      "name": "controllers",
      "outputs": [
        {
          "name": "",
          "type": "address[]"
        }
      ],
      "payable": false,
      "stateMutability": "view",
      "type": "function"
    },
    {
      "constant": true,
      "inputs": [
        {
          "name": "_name",
          "type": "bytes32"
        }
      ],
      "name": "getDocument",
      "outputs": [
        {
          "name": "",
          "type": "string"
        },
        {
          "name": "",
          "type": "bytes32"
        }
      ],
      "payable": false,
      "stateMutability": "view",
      "type": "function"
    },
    {
      "constant": false,
      "inputs": [
        {
          "name": "_name",
          "type": "bytes32"
        },
        {
          "name": "_uri",
          "type": "string"
        },
        {
          "name": "_documentHash",
          "type": "bytes32"
        }
      ],
      "name": "setDocument",
      "outputs": [],
      "payable": false,
      "stateMutability": "nonpayable",
      "type": "function"
    },
    {
      "constant": true,
      "inputs": [
        {
          "name": "_partition",
          "type": "bytes32"
        },
        {
          "name": "_tokenHolder",
          "type": "address"
        }
      ],
      "name": "balanceOfByPartition",
      "outputs": [
        {
          "name": "",
          "type": "uint256"
        }
      ],
      "payable": false,
      "stateMutability": "view",
      "type": "function"
    },
    {
      "constant": true,
      "inputs": [
        {
          "name": "_tokenHolder",
          "type": "address"
        }
      ],
      "name": "partitionsOf",
      "outputs": [
        {
          "name": "",
          "type": "bytes32[]"
        }
      ],
      "payable": false,
      "stateMutability": "view",
      "type": "function"
    },
    {
      "constant": false,
      "inputs": [
        {
          "name": "_partition",
          "type": "bytes32"
        },
        {
          "name": "_to",
          "type": "address"
        },
        {
          "name": "_value",
          "type": "uint256"
        },
        {
          "name": "_data",
          "type": "bytes"
        }
      ],
      "name": "transferByPartition",
      "outputs": [
        {
          "name": "",
          "type": "bytes32"
        }
      ],
      "payable": false,
      "stateMutability": "nonpayable",
      "type": "function"
    },
    {
      "constant": false,
      "inputs": [
        {
          "name": "_partition",
          "type": "bytes32"
        },
        {
          "name": "_from",
          "type": "address"
        },
        {
          "name": "_to",
          "type": "address"
        },
        {
          "name": "_value",
          "type": "uint256"
        },
        {
          "name": "_data",
          "type": "bytes"
        },
        {
          "name": "_operatorData",
          "type": "bytes"
        }
      ],
      "name": "operatorTransferByPartition",
      "outputs": [
        {
          "name": "",
          "type": "bytes32"
        }
      ],
      "payable": false,
      "stateMutability": "nonpayable",
      "type": "function"
    },
    {
      "constant": true,
      "inputs": [],
      "name": "isControllable",
      "outputs": [
        {
          "name": "",
          "type": "bool"
        }
      ],
      "payable": false,
      "stateMutability": "view",
      "type": "function"
    },
    {
      "constant": false,
      "inputs": [
        {
          "name": "_partition",
          "type": "bytes32"
        },
        {
          "name": "_from",
          "type": "address"
        },
        {
          "name": "_to",
          "type": "address"
        },
        {
          "name": "_value",
          "type": "uint256"
        },
        {
          "name": "_data",
          "type": "bytes"
        },
        {
          "name": "_operatorData",
          "type": "bytes"
        }
      ],
      "name": "controllerTransfer",
      "outputs": [],
      "payable": false,
      "stateMutability": "nonpayable",
      "type": "function"
    },
    {
      "constant": false,
      "inputs": [
        {
          "name": "_partition",
          "type": "bytes32"
        },
        {
          "name": "_tokenHolder",
          "type": "address"
        },
        {
          "name": "_value",
          "type": "uint256"
        },
        {
          "name": "_data",
          "type": "bytes"
        },
        {
          "name": "_operatorData",
          "type": "bytes"
        }
      ],
      "name": "controllerRedeem",
      "outputs": [],
      "payable": false,
      "stateMutability": "nonpayable",
      "type": "function"
    },
    {
      "constant": false,
      "inputs": [
        {
          "name": "_operator",
          "type": "address"
        }
      ],
      "name": "authorizeOperator",
      "outputs": [],
      "payable": false,
      "stateMutability": "nonpayable",
      "type": "function"
    },
    {
      "constant": false,
      "inputs": [
        {
          "name": "_operator",
          "type": "address"
        }
      ],
      "name": "revokeOperator",
      "outputs": [],
      "payable": false,
      "stateMutability": "nonpayable",
      "type": "function"
    },
    {
      "constant": false,
      "inputs": [
        {
          "name": "_partition",
          "type": "bytes32"
        },
        {
          "name": "_operator",
          "type": "address"
        }
      ],
      "name": "authorizeOperatorByPartition",
      "outputs": [],
      "payable": false,
      "stateMutability": "nonpayable",
      "type": "function"
    },
    {
      "constant": false,
      "inputs": [
        {
          "name": "_partition",
          "type": "bytes32"
        },
        {
          "name": "_operator",
          "type": "address"
        }
      ],
      "name": "revokeOperatorByPartition",
      "outputs": [],
      "payable": false,
      "stateMutability": "nonpayable",
      "type": "function"
    },
    {
      "constant": true,
      "inputs": [
        {
          "name": "_operator",
          "type": "address"
        },
        {
          "name": "_tokenHolder",
          "type": "address"
        }
      ],
      "name": "isOperator",
      "outputs": [
        {
          "name": "",
          "type": "bool"
        }
      ],
      "payable": false,
      "stateMutability": "view",
      "type": "function"
    },
    {
      "constant": true,
      "inputs": [
        {
          "name": "_partition",
          "type": "bytes32"
        },
        {
          "name": "_operator",
          "type": "address"
        },
        {
          "name": "_tokenHolder",
          "type": "address"
        }
      ],
      "name": "isOperatorForPartition",
      "outputs": [
        {
          "name": "",
          "type": "bool"
        }
      ],
      "payable": false,
      "stateMutability": "view",
      "type": "function"
    },
    {
      "constant": true,
      "inputs": [],
      "name": "isIssuable",
      "outputs": [
        {
          "name": "",
          "type": "bool"
        }
      ],
      "payable": false,
      "stateMutability": "view",
      "type": "function"
    },
    {
      "constant": false,
      "inputs": [
        {
          "name": "_partition",
          "type": "bytes32"
        },
        {
          "name": "_tokenHolder",
          "type": "address"
        },
        {
          "name": "_value",
          "type": "uint256"
        },
        {
          "name": "_data",
          "type": "bytes"
        },
        {
          "name": "_Day",
          "type": "uint256"
        }
      ],
      "name": "issueByPartition",
      "outputs": [],
      "payable": false,
      "stateMutability": "nonpayable",
      "type": "function"
    },
    {
      "constant": false,
      "inputs": [
        {
          "name": "_partition",
          "type": "bytes32"
        },
        {
          "name": "_value",
          "type": "uint256"
        },
        {
          "name": "_data",
          "type": "bytes"
        }
      ],
      "name": "redeemByPartition",
      "outputs": [],
      "payable": false,
      "stateMutability": "nonpayable",
      "type": "function"
    },
    {
      "constant": false,
      "inputs": [
        {
          "name": "_partition",
          "type": "bytes32"
        },
        {
          "name": "_tokenHolder",
          "type": "address"
        },
        {
          "name": "_value",
          "type": "uint256"
        },
        {
          "name": "_data",
          "type": "bytes"
        },
        {
          "name": "_operatorData",
          "type": "bytes"
        }
      ],
      "name": "operatorRedeemByPartition",
      "outputs": [],
      "payable": false,
      "stateMutability": "nonpayable",
      "type": "function"
    },
    {
      "constant": true,
      "inputs": [
        {
          "name": "_partition",
          "type": "bytes32"
        },
        {
          "name": "_from",
          "type": "address"
        },
        {
          "name": "_to",
          "type": "address"
        },
        {
          "name": "_value",
          "type": "uint256"
        },
        {
          "name": "_data",
          "type": "bytes"
        }
      ],
      "name": "canTransferByPartition",
      "outputs": [
        {
          "name": "",
          "type": "bytes1"
        },
        {
          "name": "",
          "type": "bytes32"
        },
        {
          "name": "",
          "type": "bytes32"
        }
      ],
      "payable": false,
      "stateMutability": "view",
      "type": "function"
    },
    {
      "constant": true,
      "inputs": [
        {
          "name": "_partition",
          "type": "bytes32"
        },
        {
          "name": "_from",
          "type": "address"
        },
        {
          "name": "_to",
          "type": "address"
        },
        {
          "name": "_value",
          "type": "uint256"
        },
        {
          "name": "_data",
          "type": "bytes"
        },
        {
          "name": "_operatorData",
          "type": "bytes"
        }
      ],
      "name": "canOperatorTransferByPartition",
      "outputs": [
        {
          "name": "",
          "type": "bytes1"
        },
        {
          "name": "",
          "type": "bytes32"
        },
        {
          "name": "",
          "type": "bytes32"
        }
      ],
      "payable": false,
      "stateMutability": "view",
      "type": "function"
    },
    {
      "constant": false,
      "inputs": [],
      "name": "renounceControl",
      "outputs": [],
      "payable": false,
      "stateMutability": "nonpayable",
      "type": "function"
    },
    {
      "constant": false,
      "inputs": [],
      "name": "renounceIssuance",
      "outputs": [],
      "payable": false,
      "stateMutability": "nonpayable",
      "type": "function"
    },
    {
      "constant": false,
      "inputs": [
        {
          "name": "_operators",
          "type": "address[]"
        }
      ],
      "name": "setControllers",
      "outputs": [],
      "payable": false,
      "stateMutability": "nonpayable",
      "type": "function"
    },
    {
      "constant": false,
      "inputs": [
        {
          "name": "_partition",
          "type": "bytes32"
        },
        {
          "name": "_operators",
          "type": "address[]"
        }
      ],
      "name": "setPartitionControllers",
      "outputs": [],
      "payable": false,
      "stateMutability": "nonpayable",
      "type": "function"
    },
    {
      "constant": true,
      "inputs": [],
      "name": "totalPartitions",
      "outputs": [
        {
          "name": "",
          "type": "bytes32[]"
        }
      ],
      "payable": false,
      "stateMutability": "view",
      "type": "function"
    }
  ],
  "bytecode": "0x60806040523480156200001157600080fd5b506040516200527238038062005272833981018060405260a08110156200003757600080fd5b8101908080516401000000008111156200005057600080fd5b828101905060208101848111156200006757600080fd5b81518560018202830111640100000000821117156200008557600080fd5b50509291906020018051640100000000811115620000a257600080fd5b82810190506020810184811115620000b957600080fd5b8151856001820283011164010000000082111715620000d757600080fd5b5050929190602001805190602001909291908051640100000000811115620000fe57600080fd5b828101905060208101848111156200011557600080fd5b81518560208202830111640100000000821117156200013357600080fd5b5050929190602001805190602001909291905050508460019080519060200190620001609291906200026d565b508360029080519060200190620001799291906200026d565b508260ff16600a0a60ff166003819055506001601560016101000a81548160ff0219169083151502179055506001601560006101000a81548160ff02191690831515021790555033600660006101000a81548173ffffffffffffffffffffffffffffffffffffffff021916908373ffffffffffffffffffffffffffffffffffffffff1602179055506000600581905550806000806101000a81548173ffffffffffffffffffffffffffffffffffffffff021916908373ffffffffffffffffffffffffffffffffffffffff160217905550816010908051906020019062000261929190620002f4565b505050505050620003f1565b828054600181600116156101000203166002900490600052602060002090601f016020900481019282601f10620002b057805160ff1916838001178555620002e1565b82800160010185558215620002e1579182015b82811115620002e0578251825591602001919060010190620002c3565b5b509050620002f0919062000383565b5090565b82805482825590600052602060002090810192821562000370579160200282015b828111156200036f5782518260006101000a81548173ffffffffffffffffffffffffffffffffffffffff021916908373ffffffffffffffffffffffffffffffffffffffff1602179055509160200191906001019062000315565b5b5090506200037f9190620003ab565b5090565b620003a891905b80821115620003a45760008160009055506001016200038a565b5090565b90565b620003ee91905b80821115620003ea57600081816101000a81549073ffffffffffffffffffffffffffffffffffffffff021916905550600101620003b2565b5090565b90565b614e7180620004016000396000f3fe608060405234801561001057600080fd5b50600436106102115760003560e01c80636c23c7b01161012557806395d89b41116100ad578063ca281fd91161007c578063ca281fd9146110d9578063ea74838a146110e3578063ef9ba9551461115c578063f3d490db1461128f578063fad8b32a1461135057610211565b806395d89b4114610e0a578063a594b58714610e8d578063b10d6b4114610faf578063b6363cf21461105d57610211565b80637cc0c3a7116100f45780637cc0c3a714610ae5578063839510b214610b445780638c0dee9c14610c465780638da5cb5b14610d7c578063959b8c3f14610dc657610211565b80636c23c7b0146108345780636c30d170146109bc5780636d77cad6146109c6578063740ab8f414610a4c57610211565b806330e82803116101a85780634ead9ed9116101775780634ead9ed914610651578063556f0dc7146107085780635ad249fc1461072657806362eb00681461074857806369598efe146107d557610211565b806330e8280314610587578063313ce567146105e9578063367e587b1461060d5780634c783bf51461062f57610211565b8063168ecec5116101e4578063168ecec51461047657806316e1aed4146104c457806318160ddd146105475780632f1cae851461056557610211565b8063010648ca1461021657806306fdde03146102a3578063103ef9e11461032657806313d557bc14610374575b600080fd5b6102a16004803603606081101561022c57600080fd5b81019080803590602001909291908035906020019064010000000081111561025357600080fd5b82018360208201111561026557600080fd5b8035906020019184600183028401116401000000008311171561028757600080fd5b909192939192939080359060200190929190505050611394565b005b6102ab6114f2565b6040518080602001828103825283818151815260200191508051906020019080838360005b838110156102eb5780820151818401526020810190506102d0565b50505050905090810190601f1680156103185780820380516001836020036101000a031916815260200191505b509250505060405180910390f35b6103726004803603604081101561033c57600080fd5b8101908080359060200190929190803573ffffffffffffffffffffffffffffffffffffffff169060200190929190505050611594565b005b610474600480360360a081101561038a57600080fd5b8101908080359060200190929190803573ffffffffffffffffffffffffffffffffffffffff16906020019092919080359060200190929190803590602001906401000000008111156103db57600080fd5b8201836020820111156103ed57600080fd5b8035906020019184600183028401116401000000008311171561040f57600080fd5b90919293919293908035906020019064010000000081111561043057600080fd5b82018360208201111561044257600080fd5b8035906020019184600183028401116401000000008311171561046457600080fd5b9091929391929390505050611699565b005b6104c26004803603604081101561048c57600080fd5b8101908080359060200190929190803573ffffffffffffffffffffffffffffffffffffffff1690602001909291905050506117b5565b005b610545600480360360408110156104da57600080fd5b81019080803590602001909291908035906020019064010000000081111561050157600080fd5b82018360208201111561051357600080fd5b8035906020019184602083028401116401000000008311171561053557600080fd5b90919293919293905050506118ba565b005b61054f611964565b6040518082815260200191505060405180910390f35b61056d61196e565b604051808215151515815260200191505060405180910390f35b6105d36004803603604081101561059d57600080fd5b8101908080359060200190929190803573ffffffffffffffffffffffffffffffffffffffff169060200190929190505050611985565b6040518082815260200191505060405180910390f35b6105f16119e0565b604051808260ff1660ff16815260200191505060405180910390f35b6106156119f7565b604051808215151515815260200191505060405180910390f35b610637611a0a565b604051808215151515815260200191505060405180910390f35b610706600480360360a081101561066757600080fd5b8101908080359060200190929190803573ffffffffffffffffffffffffffffffffffffffff16906020019092919080359060200190929190803590602001906401000000008111156106b857600080fd5b8201836020820111156106ca57600080fd5b803590602001918460018302840111640100000000831117156106ec57600080fd5b909192939192939080359060200190929190505050611a21565b005b610710611bcd565b6040518082815260200191505060405180910390f35b61072e611bd7565b604051808215151515815260200191505060405180910390f35b6107d36004803603606081101561075e57600080fd5b8101908080359060200190929190803590602001909291908035906020019064010000000081111561078f57600080fd5b8201836020820111156107a157600080fd5b803590602001918460018302840111640100000000831117156107c357600080fd5b9091929391929390505050611bea565b005b6107dd611c51565b6040518080602001828103825283818151815260200191508051906020019060200280838360005b83811015610820578082015181840152602081019050610805565b505050509050019250505060405180910390f35b610954600480360360c081101561084a57600080fd5b8101908080359060200190929190803573ffffffffffffffffffffffffffffffffffffffff169060200190929190803573ffffffffffffffffffffffffffffffffffffffff16906020019092919080359060200190929190803590602001906401000000008111156108bb57600080fd5b8201836020820111156108cd57600080fd5b803590602001918460018302840111640100000000831117156108ef57600080fd5b90919293919293908035906020019064010000000081111561091057600080fd5b82018360208201111561092257600080fd5b8035906020019184600183028401116401000000008311171561094457600080fd5b9091929391929390505050611ca9565b60405180847effffffffffffffffffffffffffffffffffffffffffffffffffffffffffffff19167effffffffffffffffffffffffffffffffffffffffffffffffffffffffffffff19168152602001838152602001828152602001935050505060405180910390f35b6109c4611d59565b005b610a32600480360360608110156109dc57600080fd5b8101908080359060200190929190803573ffffffffffffffffffffffffffffffffffffffff169060200190929190803573ffffffffffffffffffffffffffffffffffffffff169060200190929190505050611dd0565b604051808215151515815260200191505060405180910390f35b610a8e60048036036020811015610a6257600080fd5b81019080803573ffffffffffffffffffffffffffffffffffffffff169060200190929190505050611de6565b6040518080602001828103825283818151815260200191508051906020019060200280838360005b83811015610ad1578082015181840152602081019050610ab6565b505050509050019250505060405180910390f35b610aed611e7d565b6040518080602001828103825283818151815260200191508051906020019060200280838360005b83811015610b30578082015181840152602081019050610b15565b505050509050019250505060405180910390f35b610c44600480360360a0811015610b5a57600080fd5b8101908080359060200190929190803573ffffffffffffffffffffffffffffffffffffffff1690602001909291908035906020019092919080359060200190640100000000811115610bab57600080fd5b820183602082011115610bbd57600080fd5b80359060200191846001830284011164010000000083111715610bdf57600080fd5b909192939192939080359060200190640100000000811115610c0057600080fd5b820183602082011115610c1257600080fd5b80359060200191846001830284011164010000000083111715610c3457600080fd5b9091929391929390505050611f0b565b005b610d66600480360360c0811015610c5c57600080fd5b8101908080359060200190929190803573ffffffffffffffffffffffffffffffffffffffff169060200190929190803573ffffffffffffffffffffffffffffffffffffffff1690602001909291908035906020019092919080359060200190640100000000811115610ccd57600080fd5b820183602082011115610cdf57600080fd5b80359060200191846001830284011164010000000083111715610d0157600080fd5b909192939192939080359060200190640100000000811115610d2257600080fd5b820183602082011115610d3457600080fd5b80359060200191846001830284011164010000000083111715610d5657600080fd5b909192939192939050505061224e565b6040518082815260200191505060405180910390f35b610d84612374565b604051808273ffffffffffffffffffffffffffffffffffffffff1673ffffffffffffffffffffffffffffffffffffffff16815260200191505060405180910390f35b610e0860048036036020811015610ddc57600080fd5b81019080803573ffffffffffffffffffffffffffffffffffffffff16906020019092919050505061239a565b005b610e126124c5565b6040518080602001828103825283818151815260200191508051906020019080838360005b83811015610e52578082015181840152602081019050610e37565b50505050905090810190601f168015610e7f5780820380516001836020036101000a031916815260200191505b509250505060405180910390f35b610fad600480360360c0811015610ea357600080fd5b8101908080359060200190929190803573ffffffffffffffffffffffffffffffffffffffff169060200190929190803573ffffffffffffffffffffffffffffffffffffffff1690602001909291908035906020019092919080359060200190640100000000811115610f1457600080fd5b820183602082011115610f2657600080fd5b80359060200191846001830284011164010000000083111715610f4857600080fd5b909192939192939080359060200190640100000000811115610f6957600080fd5b820183602082011115610f7b57600080fd5b80359060200191846001830284011164010000000083111715610f9d57600080fd5b9091929391929390505050612567565b005b610fdb60048036036020811015610fc557600080fd5b81019080803590602001909291905050506127ac565b6040518080602001838152602001828103825284818151815260200191508051906020019080838360005b83811015611021578082015181840152602081019050611006565b50505050905090810190601f16801561104e5780820380516001836020036101000a031916815260200191505b50935050505060405180910390f35b6110bf6004803603604081101561107357600080fd5b81019080803573ffffffffffffffffffffffffffffffffffffffff169060200190929190803573ffffffffffffffffffffffffffffffffffffffff1690602001909291905050506128b9565b604051808215151515815260200191505060405180910390f35b6110e16128cd565b005b61115a600480360360208110156110f957600080fd5b810190808035906020019064010000000081111561111657600080fd5b82018360208201111561112857600080fd5b8035906020019184602083028401116401000000008311171561114a57600080fd5b9091929391929390505050612944565b005b611227600480360360a081101561117257600080fd5b8101908080359060200190929190803573ffffffffffffffffffffffffffffffffffffffff169060200190929190803573ffffffffffffffffffffffffffffffffffffffff16906020019092919080359060200190929190803590602001906401000000008111156111e357600080fd5b8201836020820111156111f557600080fd5b8035906020019184600183028401116401000000008311171561121757600080fd5b90919293919293905050506129ec565b60405180847effffffffffffffffffffffffffffffffffffffffffffffffffffffffffffff19167effffffffffffffffffffffffffffffffffffffffffffffffffffffffffffff19168152602001838152602001828152602001935050505060405180910390f35b61133a600480360360808110156112a557600080fd5b8101908080359060200190929190803573ffffffffffffffffffffffffffffffffffffffff16906020019092919080359060200190929190803590602001906401000000008111156112f657600080fd5b82018360208201111561130857600080fd5b8035906020019184600183028401116401000000008311171561132a57600080fd5b9091929391929390505050612a65565b6040518082815260200191505060405180910390f35b6113926004803603602081101561136657600080fd5b81019080803573ffffffffffffffffffffffffffffffffffffffff169060200190929190505050612ad6565b005b601360003373ffffffffffffffffffffffffffffffffffffffff1673ffffffffffffffffffffffffffffffffffffffff16815260200190815260200160002060009054906101000a900460ff166113ea57600080fd5b604051806040016040528084848080601f016020809104026020016040519081016040528093929190818152602001838380828437600081840152601f19601f82011690508083019250505050505050815260200182815250600860008681526020019081526020016000206000820151816000019080519060200190611472929190614c82565b5060208201518160010155905050837f89730c201d2df6a4cef4e892559e63e022078b0ee939d11b6ced61fb098b282484848460405180806020018381526020018281038252858582818152602001925080828437600081840152601f19601f82011690508083019250505094505050505060405180910390a250505050565b606060018054600181600116156101000203166002900480601f01602080910402602001604051908101604052809291908181526020018280546001816001161561010002031660029004801561158a5780601f1061155f5761010080835404028352916020019161158a565b820191906000526020600020905b81548152906001019060200180831161156d57829003601f168201915b5050505050905090565b6001601160003373ffffffffffffffffffffffffffffffffffffffff1673ffffffffffffffffffffffffffffffffffffffff168152602001908152602001600020600084815260200190815260200160002060008373ffffffffffffffffffffffffffffffffffffffff1673ffffffffffffffffffffffffffffffffffffffff16815260200190815260200160002060006101000a81548160ff0219169083151502179055503373ffffffffffffffffffffffffffffffffffffffff168173ffffffffffffffffffffffffffffffffffffffff16837f3646a897c70797ecc134b0adc32f471b07bf1d6f451133b0384badab531e3fd660405160405180910390a45050565b6116a4873388612c01565b611716576040517f08c379a00000000000000000000000000000000000000000000000000000000081526004018080602001828103825260028152602001807f413700000000000000000000000000000000000000000000000000000000000081525060200191505060405180910390fd5b6117ac8733888888888080601f016020809104026020016040519081016040528093929190818152602001838380828437600081840152601f19601f8201169050808301925050505050505087878080601f016020809104026020016040519081016040528093929190818152602001838380828437600081840152601f19601f82011690508083019250505050505050612d35565b50505050505050565b6000601160003373ffffffffffffffffffffffffffffffffffffffff1673ffffffffffffffffffffffffffffffffffffffff168152602001908152602001600020600084815260200190815260200160002060008373ffffffffffffffffffffffffffffffffffffffff1673ffffffffffffffffffffffffffffffffffffffff16815260200190815260200160002060006101000a81548160ff0219169083151502179055503373ffffffffffffffffffffffffffffffffffffffff168173ffffffffffffffffffffffffffffffffffffffff16837f3b287c4f1bab4df949b33bceacef984f544dc5d5479930d00e4ee8c9d8dd96f260405160405180910390a45050565b600660009054906101000a900473ffffffffffffffffffffffffffffffffffffffff1673ffffffffffffffffffffffffffffffffffffffff163373ffffffffffffffffffffffffffffffffffffffff161461191457600080fd5b61195f83838380806020026020016040519081016040528093929190818152602001838360200280828437600081840152601f19601f82011690508083019250505050505050612eef565b505050565b6000600554905090565b6000601560009054906101000a900460ff16905090565b6000600d60008373ffffffffffffffffffffffffffffffffffffffff1673ffffffffffffffffffffffffffffffffffffffff168152602001908152602001600020600084815260200190815260200160002054905092915050565b6000600460009054906101000a900460ff16905090565b601560009054906101000a900460ff1681565b6000601560019054906101000a900460ff16905090565b600660009054906101000a900473ffffffffffffffffffffffffffffffffffffffff1673ffffffffffffffffffffffffffffffffffffffff163373ffffffffffffffffffffffffffffffffffffffff1614611a7b57600080fd5b600115156000809054906101000a900473ffffffffffffffffffffffffffffffffffffffff1673ffffffffffffffffffffffffffffffffffffffff1663653cf8cd876040518263ffffffff1660e01b8152600401808273ffffffffffffffffffffffffffffffffffffffff1673ffffffffffffffffffffffffffffffffffffffff16815260200191505060206040518083038186803b158015611b1d57600080fd5b505afa158015611b31573d6000803e3d6000fd5b505050506040513d6020811015611b4757600080fd5b8101908080519060200190929190505050151514611b6457600080fd5b611bc58633878787878080601f016020809104026020016040519081016040528093929190818152602001838380828437600081840152601f19601f8201169050808301925050505050505060405180602001604052806000815250613097565b505050505050565b6000600354905090565b601560019054906101000a900460ff1681565b611c4b8433338686868080601f016020809104026020016040519081016040528093929190818152602001838380828437600081840152601f19601f8201169050808301925050505050505060405180602001604052806000815250612d35565b50505050565b60606007805480602002602001604051908101604052809291908181526020018280548015611c9f57602002820191906000526020600020905b815481526020019060010190808311611c8b575b5050505050905090565b6000806000611d458b338c8c8c8c8c8080601f016020809104026020016040519081016040528093929190818152602001838380828437600081840152601f19601f820116905080830192505050505050508b8b8080601f016020809104026020016040519081016040528093929190818152602001838380828437600081840152601f19601f820116905080830192505050505050506131f8565b925092509250985098509895505050505050565b600660009054906101000a900473ffffffffffffffffffffffffffffffffffffffff1673ffffffffffffffffffffffffffffffffffffffff163373ffffffffffffffffffffffffffffffffffffffff1614611db357600080fd5b6000601560006101000a81548160ff021916908315150217905550565b6000611ddd848484612c01565b90509392505050565b6060600c60008373ffffffffffffffffffffffffffffffffffffffff1673ffffffffffffffffffffffffffffffffffffffff168152602001908152602001600020805480602002602001604051908101604052809291908181526020018280548015611e7157602002820191906000526020600020905b815481526020019060010190808311611e5d575b50505050509050919050565b60606010805480602002602001604051908101604052809291908181526020018280548015611f0157602002820191906000526020600020905b8160009054906101000a900473ffffffffffffffffffffffffffffffffffffffff1673ffffffffffffffffffffffffffffffffffffffff1681526020019060010190808311611eb7575b5050505050905090565b600660009054906101000a900473ffffffffffffffffffffffffffffffffffffffff1673ffffffffffffffffffffffffffffffffffffffff163373ffffffffffffffffffffffffffffffffffffffff1614611f6557600080fd5b84600d60008873ffffffffffffffffffffffffffffffffffffffff1673ffffffffffffffffffffffffffffffffffffffff16815260200190815260200160002060008981526020019081526020016000205410156120b9576000600d60008873ffffffffffffffffffffffffffffffffffffffff1673ffffffffffffffffffffffffffffffffffffffff168152602001908152602001600020600089815260200190815260200160002054905061201d878983613691565b6120b38833898489898080601f016020809104026020016040519081016040528093929190818152602001838380828437600081840152601f19601f8201169050808301925050505050505088888080601f016020809104026020016040519081016040528093929190818152602001838380828437600081840152601f19601f82011690508083019250505050505050613be6565b5061215b565b6120c4868887613691565b61215a8733888888888080601f016020809104026020016040519081016040528093929190818152602001838380828437600081840152601f19601f8201169050808301925050505050505087878080601f016020809104026020016040519081016040528093929190818152602001838380828437600081840152601f19601f82011690508083019250505050505050613be6565b5b8573ffffffffffffffffffffffffffffffffffffffff167f876b7cb47aa150b3a5516188b19ed308752ad4d0ae9a702543353b78163f7589338787878787604051808773ffffffffffffffffffffffffffffffffffffffff1673ffffffffffffffffffffffffffffffffffffffff16815260200186815260200180602001806020018381038352878782818152602001925080828437600081840152601f19601f8201169050808301925050508381038252858582818152602001925080828437600081840152601f19601f8201169050808301925050509850505050505050505060405180910390a250505050505050565b600061225b89338a612c01565b6122cd576040517f08c379a00000000000000000000000000000000000000000000000000000000081526004018080602001828103825260028152602001807f413700000000000000000000000000000000000000000000000000000000000081525060200191505060405180910390fd5b61236689338a8a8a8a8a8080601f016020809104026020016040519081016040528093929190818152602001838380828437600081840152601f19601f8201169050808301925050505050505089898080601f016020809104026020016040519081016040528093929190818152602001838380828437600081840152601f19601f820116905080830192505050505050506001613f43565b905098975050505050505050565b600660009054906101000a900473ffffffffffffffffffffffffffffffffffffffff1681565b3373ffffffffffffffffffffffffffffffffffffffff168173ffffffffffffffffffffffffffffffffffffffff1614156123d357600080fd5b6001600f60008373ffffffffffffffffffffffffffffffffffffffff1673ffffffffffffffffffffffffffffffffffffffff16815260200190815260200160002060003373ffffffffffffffffffffffffffffffffffffffff1673ffffffffffffffffffffffffffffffffffffffff16815260200190815260200160002060006101000a81548160ff0219169083151502179055503373ffffffffffffffffffffffffffffffffffffffff168173ffffffffffffffffffffffffffffffffffffffff167ff4caeb2d6ca8932a215a353d0703c326ec2d81fc68170f320eb2ab49e9df61f960405160405180910390a350565b606060028054600181600116156101000203166002900480601f01602080910402602001604051908101604052809291908181526020018280546001816001161561010002031660029004801561255d5780601f106125325761010080835404028352916020019161255d565b820191906000526020600020905b81548152906001019060200180831161254057829003601f168201915b5050505050905090565b600660009054906101000a900473ffffffffffffffffffffffffffffffffffffffff1673ffffffffffffffffffffffffffffffffffffffff163373ffffffffffffffffffffffffffffffffffffffff16146125c157600080fd5b84600d60008973ffffffffffffffffffffffffffffffffffffffff1673ffffffffffffffffffffffffffffffffffffffff16815260200190815260200160002060008a815260200190815260200160002054101561268a576000600d60008973ffffffffffffffffffffffffffffffffffffffff1673ffffffffffffffffffffffffffffffffffffffff16815260200190815260200160002060008a8152602001908152602001600020549050612679888a83613691565b612684878a836143bd565b506126a1565b612695878987613691565b6126a08689876143bd565b5b8573ffffffffffffffffffffffffffffffffffffffff168773ffffffffffffffffffffffffffffffffffffffff167f6bf62b4b9c7b768275122bf70d429efc398a056d669b1efdf6c3976346246d7d338888888888604051808773ffffffffffffffffffffffffffffffffffffffff1673ffffffffffffffffffffffffffffffffffffffff16815260200186815260200180602001806020018381038352878782818152602001925080828437600081840152601f19601f8201169050808301925050508381038252858582818152602001925080828437600081840152601f19601f8201169050808301925050509850505050505050505060405180910390a35050505050505050565b60606000806008600085815260200190815260200160002060000180546001816001161561010002031660029004905014156127e757600080fd5b600860008481526020019081526020016000206000016008600085815260200190815260200160002060010154818054600181600116156101000203166002900480601f0160208091040260200160405190810160405280929190818152602001828054600181600116156101000203166002900480156128a95780601f1061287e576101008083540402835291602001916128a9565b820191906000526020600020905b81548152906001019060200180831161288c57829003601f168201915b5050505050915091509150915091565b60006128c5838361467f565b905092915050565b600660009054906101000a900473ffffffffffffffffffffffffffffffffffffffff1673ffffffffffffffffffffffffffffffffffffffff163373ffffffffffffffffffffffffffffffffffffffff161461292757600080fd5b6000601560016101000a81548160ff021916908315150217905550565b600660009054906101000a900473ffffffffffffffffffffffffffffffffffffffff1673ffffffffffffffffffffffffffffffffffffffff163373ffffffffffffffffffffffffffffffffffffffff161461299e57600080fd5b6129e8828280806020026020016040519081016040528093929190818152602001838360200280828437600081840152601f19601f820116905080830192505050505050506147b5565b5050565b6000806000612a538933338a8a8a8a8080601f016020809104026020016040519081016040528093929190818152602001838380828437600081840152601f19601f82011690508083019250505050505050604051806020016040528060008152506131f8565b92509250925096509650969350505050565b6000612acb863333888888888080601f016020809104026020016040519081016040528093929190818152602001838380828437600081840152601f19601f82011690508083019250505050505050604051806020016040528060008152506001613f43565b905095945050505050565b3373ffffffffffffffffffffffffffffffffffffffff168173ffffffffffffffffffffffffffffffffffffffff161415612b0f57600080fd5b6000600f60008373ffffffffffffffffffffffffffffffffffffffff1673ffffffffffffffffffffffffffffffffffffffff16815260200190815260200160002060003373ffffffffffffffffffffffffffffffffffffffff1673ffffffffffffffffffffffffffffffffffffffff16815260200190815260200160002060006101000a81548160ff0219169083151502179055503373ffffffffffffffffffffffffffffffffffffffff168173ffffffffffffffffffffffffffffffffffffffff167f50546e66e5f44d728365dc3908c63bc5cfeeab470722c1677e3073a6ac294aa160405160405180910390a350565b6000612c0d838361467f565b80612caf5750601160008373ffffffffffffffffffffffffffffffffffffffff1673ffffffffffffffffffffffffffffffffffffffff168152602001908152602001600020600085815260200190815260200160002060008473ffffffffffffffffffffffffffffffffffffffff1673ffffffffffffffffffffffffffffffffffffffff16815260200190815260200160002060009054906101000a900460ff165b80612d2c5750601560019054906101000a900460ff168015612d2b57506012600085815260200190815260200160002060008473ffffffffffffffffffffffffffffffffffffffff1673ffffffffffffffffffffffffffffffffffffffff16815260200190815260200160002060009054906101000a900460ff165b5b90509392505050565b82600d60008673ffffffffffffffffffffffffffffffffffffffff1673ffffffffffffffffffffffffffffffffffffffff1681526020019081526020016000206000888152602001908152602001600020541015612dfb576040517f08c379a00000000000000000000000000000000000000000000000000000000081526004018080602001828103825260028152602001807f413400000000000000000000000000000000000000000000000000000000000081525060200191505060405180910390fd5b612e06848785613691565b612e14868686868686613be6565b8373ffffffffffffffffffffffffffffffffffffffff168573ffffffffffffffffffffffffffffffffffffffff16877fce306c3dbc4a497124b5a4f2be8388b41084c1d74663da27ecee1186c00239bf86856040518083815260200180602001828103825283818151815260200191508051906020019080838360005b83811015612eac578082015181840152602081019050612e91565b50505050905090810190601f168015612ed95780820380516001836020036101000a031916815260200191505b50935050505060405180910390a4505050505050565b60008090505b6014600084815260200190815260200160002080549050811015612fd1576000601260008581526020019081526020016000206000601460008781526020019081526020016000208481548110612f4857fe5b9060005260206000200160009054906101000a900473ffffffffffffffffffffffffffffffffffffffff1673ffffffffffffffffffffffffffffffffffffffff1673ffffffffffffffffffffffffffffffffffffffff16815260200190815260200160002060006101000a81548160ff0219169083151502179055508080600101915050612ef5565b5060008090505b815181101561306a57600160126000858152602001908152602001600020600084848151811061300457fe5b602002602001015173ffffffffffffffffffffffffffffffffffffffff1673ffffffffffffffffffffffffffffffffffffffff16815260200190815260200160002060006101000a81548160ff0219169083151502179055508080600101915050612fd8565b5080601460008481526020019081526020016000209080519060200190613092929190614d02565b505050565b6130a5868686868686614907565b6130b08487856143bd565b8373ffffffffffffffffffffffffffffffffffffffff168573ffffffffffffffffffffffffffffffffffffffff16877ff0ded82afbb1bb3ff3fc48cb2a26584aa84e4af0bf309c804ecdb94d0f6a98bb868686604051808481526020018060200180602001838103835285818151815260200191508051906020019080838360005b8381101561314d578082015181840152602081019050613132565b50505050905090810190601f16801561317a5780820380516001836020036101000a031916815260200191505b50838103825284818151815260200191508051906020019080838360005b838110156131b3578082015181840152602081019050613198565b50505050905090810190601f1680156131e05780820380516001836020036101000a031916815260200191505b509550505050505060405180910390a4505050505050565b6000806000600115156000809054906101000a900473ffffffffffffffffffffffffffffffffffffffff1673ffffffffffffffffffffffffffffffffffffffff1663653cf8cd8a6040518263ffffffff1660e01b8152600401808273ffffffffffffffffffffffffffffffffffffffff1673ffffffffffffffffffffffffffffffffffffffff16815260200191505060206040518083038186803b15801561329f57600080fd5b505afa1580156132b3573d6000803e3d6000fd5b505050506040513d60208110156132c957600080fd5b810190808051906020019092919050505015151461334f576040517f08c379a000000000000000000000000000000000000000000000000000000000815260040180806020018281038252600f8152602001807f6e656564204b594320766572696679000000000000000000000000000000000081525060200191505060405180910390fd5b600115156000809054906101000a900473ffffffffffffffffffffffffffffffffffffffff1673ffffffffffffffffffffffffffffffffffffffff1663653cf8cd896040518263ffffffff1660e01b8152600401808273ffffffffffffffffffffffffffffffffffffffff1673ffffffffffffffffffffffffffffffffffffffff16815260200191505060206040518083038186803b1580156133f157600080fd5b505afa158015613405573d6000803e3d6000fd5b505050506040513d602081101561341b57600080fd5b81019080805190602001909291905050501515146134a1576040517f08c379a000000000000000000000000000000000000000000000000000000000815260040180806020018281038252600f8152602001807f6e656564204b594320766572696679000000000000000000000000000000000081525060200191505060405180910390fd5b6134ac8a8a8a612c01565b6134e157897fa70000000000000000000000000000000000000000000000000000000000000090600090925092509250613684565b85600960008a73ffffffffffffffffffffffffffffffffffffffff1673ffffffffffffffffffffffffffffffffffffffff16815260200190815260200160002054108061357d575085600d60008a73ffffffffffffffffffffffffffffffffffffffff1673ffffffffffffffffffffffffffffffffffffffff16815260200190815260200160002060008c815260200190815260200160002054105b156135b357897fa40000000000000000000000000000000000000000000000000000000000000090600090925092509250613684565b600073ffffffffffffffffffffffffffffffffffffffff168773ffffffffffffffffffffffffffffffffffffffff16141561361957897fa60000000000000000000000000000000000000000000000000000000000000090600090925092509250613684565b61362286614baf565b61365757897fa90000000000000000000000000000000000000000000000000000000000000090600090925092509250613684565b897fa200000000000000000000000000000000000000000000000000000000000000906000909250925092505b9750975097945050505050565b6136f481600d60008673ffffffffffffffffffffffffffffffffffffffff1673ffffffffffffffffffffffffffffffffffffffff168152602001908152602001600020600085815260200190815260200160002054614be390919063ffffffff16565b600d60008573ffffffffffffffffffffffffffffffffffffffff1673ffffffffffffffffffffffffffffffffffffffff16815260200190815260200160002060008481526020019081526020016000208190555061376e81600e600085815260200190815260200160002054614be390919063ffffffff16565b600e6000848152602001908152602001600020819055506000600e60008481526020019081526020016000205414156138bf576000600b60008481526020019081526020016000205490506000811161382f576040517f08c379a00000000000000000000000000000000000000000000000000000000081526004018080602001828103825260028152602001807f413800000000000000000000000000000000000000000000000000000000000081525060200191505060405180910390fd5b600060076001600780549050038154811061384657fe5b90600052602060002001549050806007600184038154811061386457fe5b906000526020600020018190555081600b60008381526020019081526020016000208190555060016007818180549050039150816138a29190614d8c565b506000600b60008681526020019081526020016000208190555050505b6000600d60008573ffffffffffffffffffffffffffffffffffffffff1673ffffffffffffffffffffffffffffffffffffffff1681526020019081526020016000206000848152602001908152602001600020541415613be1576000600a60008573ffffffffffffffffffffffffffffffffffffffff1673ffffffffffffffffffffffffffffffffffffffff1681526020019081526020016000206000848152602001908152602001600020549050600081116139e3576040517f08c379a00000000000000000000000000000000000000000000000000000000081526004018080602001828103825260028152602001807f413800000000000000000000000000000000000000000000000000000000000081525060200191505060405180910390fd5b6000600c60008673ffffffffffffffffffffffffffffffffffffffff1673ffffffffffffffffffffffffffffffffffffffff1681526020019081526020016000206001600c60008873ffffffffffffffffffffffffffffffffffffffff1673ffffffffffffffffffffffffffffffffffffffff168152602001908152602001600020805490500381548110613a7457fe5b9060005260206000200154905080600c60008773ffffffffffffffffffffffffffffffffffffffff1673ffffffffffffffffffffffffffffffffffffffff1681526020019081526020016000206001840381548110613acf57fe5b906000526020600020018190555081600a60008773ffffffffffffffffffffffffffffffffffffffff1673ffffffffffffffffffffffffffffffffffffffff1681526020019081526020016000206000838152602001908152602001600020819055506001600c60008773ffffffffffffffffffffffffffffffffffffffff1673ffffffffffffffffffffffffffffffffffffffff16815260200190815260200160002081818054905003915081613b879190614d8c565b506000600a60008773ffffffffffffffffffffffffffffffffffffffff1673ffffffffffffffffffffffffffffffffffffffff16815260200190815260200160002060008681526020019081526020016000208190555050505b505050565b613bef83614baf565b613c61576040517f08c379a00000000000000000000000000000000000000000000000000000000081526004018080602001828103825260028152602001807f413900000000000000000000000000000000000000000000000000000000000081525060200191505060405180910390fd5b600073ffffffffffffffffffffffffffffffffffffffff168473ffffffffffffffffffffffffffffffffffffffff161415613d04576040517f08c379a00000000000000000000000000000000000000000000000000000000081526004018080602001828103825260028152602001807f413500000000000000000000000000000000000000000000000000000000000081525060200191505060405180910390fd5b82600960008673ffffffffffffffffffffffffffffffffffffffff1673ffffffffffffffffffffffffffffffffffffffff168152602001908152602001600020541015613db9576040517f08c379a00000000000000000000000000000000000000000000000000000000081526004018080602001828103825260028152602001807f413400000000000000000000000000000000000000000000000000000000000081525060200191505060405180910390fd5b613e0b83600960008773ffffffffffffffffffffffffffffffffffffffff1673ffffffffffffffffffffffffffffffffffffffff16815260200190815260200160002054614be390919063ffffffff16565b600960008673ffffffffffffffffffffffffffffffffffffffff1673ffffffffffffffffffffffffffffffffffffffff16815260200190815260200160002081905550613e6383600554614be390919063ffffffff16565b6005819055508373ffffffffffffffffffffffffffffffffffffffff168573ffffffffffffffffffffffffffffffffffffffff167fb7d0d6b60740753e9f16692a2f479472a1385aec2420fa43225b02f2ffa1afe785856040518083815260200180602001828103825283818151815260200191508051906020019080838360005b83811015613f00578082015181840152602081019050613ee5565b50505050905090810190601f168015613f2d5780820380516001836020036101000a031916815260200191505b50935050505060405180910390a3505050505050565b6000600115156000809054906101000a900473ffffffffffffffffffffffffffffffffffffffff1673ffffffffffffffffffffffffffffffffffffffff1663653cf8cd896040518263ffffffff1660e01b8152600401808273ffffffffffffffffffffffffffffffffffffffff1673ffffffffffffffffffffffffffffffffffffffff16815260200191505060206040518083038186803b158015613fe757600080fd5b505afa158015613ffb573d6000803e3d6000fd5b505050506040513d602081101561401157600080fd5b810190808051906020019092919050505015151461402e57600080fd5b600115156000809054906101000a900473ffffffffffffffffffffffffffffffffffffffff1673ffffffffffffffffffffffffffffffffffffffff1663653cf8cd886040518263ffffffff1660e01b8152600401808273ffffffffffffffffffffffffffffffffffffffff1673ffffffffffffffffffffffffffffffffffffffff16815260200191505060206040518083038186803b1580156140d057600080fd5b505afa1580156140e4573d6000803e3d6000fd5b505050506040513d60208110156140fa57600080fd5b810190808051906020019092919050505015151461411757600080fd5b84600d60008973ffffffffffffffffffffffffffffffffffffffff1673ffffffffffffffffffffffffffffffffffffffff16815260200190815260200160002060008b81526020019081526020016000205410156141dd576040517f08c379a00000000000000000000000000000000000000000000000000000000081526004018080602001828103825260028152602001807f413400000000000000000000000000000000000000000000000000000000000081525060200191505060405180910390fd5b60008990506141ed888b88613691565b6141f88782886143bd565b8673ffffffffffffffffffffffffffffffffffffffff168873ffffffffffffffffffffffffffffffffffffffff168b7fff4e9a26af4eb73b8bacfaa4abd4fea03d9448e7b912dc5ff4019048875aa2d48c8a8a8a604051808573ffffffffffffffffffffffffffffffffffffffff1673ffffffffffffffffffffffffffffffffffffffff1681526020018481526020018060200180602001838103835285818151815260200191508051906020019080838360005b838110156142c85780820151818401526020810190506142ad565b50505050905090810190601f1680156142f55780820380516001836020036101000a031916815260200191505b50838103825284818151815260200191508051906020019080838360005b8381101561432e578082015181840152602081019050614313565b50505050905090810190601f16801561435b5780820380516001836020036101000a031916815260200191505b50965050505050505060405180910390a48981146143ad57808a7f67c8ba31d2dd11f1384577b3405b04ed91eed1231e408432ad2458cab37b2fa1886040518082815260200191505060405180910390a35b8091505098975050505050505050565b6000811461467a576000600a60008573ffffffffffffffffffffffffffffffffffffffff1673ffffffffffffffffffffffffffffffffffffffff168152602001908152602001600020600084815260200190815260200160002054141561451f57600c60008473ffffffffffffffffffffffffffffffffffffffff1673ffffffffffffffffffffffffffffffffffffffff168152602001908152602001600020829080600181540180825580915050906001820390600052602060002001600090919290919091505550600c60008473ffffffffffffffffffffffffffffffffffffffff1673ffffffffffffffffffffffffffffffffffffffff16815260200190815260200160002080549050600a60008573ffffffffffffffffffffffffffffffffffffffff1673ffffffffffffffffffffffffffffffffffffffff1681526020019081526020016000206000848152602001908152602001600020819055505b61458281600d60008673ffffffffffffffffffffffffffffffffffffffff1673ffffffffffffffffffffffffffffffffffffffff168152602001908152602001600020600085815260200190815260200160002054614c0390919063ffffffff16565b600d60008573ffffffffffffffffffffffffffffffffffffffff1673ffffffffffffffffffffffffffffffffffffffff1681526020019081526020016000206000848152602001908152602001600020819055506000600b600084815260200190815260200160002054141561463c576007829080600181540180825580915050906001820390600052602060002001600090919290919091505550600780549050600b6000848152602001908152602001600020819055505b61466281600e600085815260200190815260200160002054614c0390919063ffffffff16565b600e6000848152602001908152602001600020819055505b505050565b60008173ffffffffffffffffffffffffffffffffffffffff168373ffffffffffffffffffffffffffffffffffffffff1614806147415750600f60008473ffffffffffffffffffffffffffffffffffffffff1673ffffffffffffffffffffffffffffffffffffffff16815260200190815260200160002060008373ffffffffffffffffffffffffffffffffffffffff1673ffffffffffffffffffffffffffffffffffffffff16815260200190815260200160002060009054906101000a900460ff165b806147ad5750601560019054906101000a900460ff1680156147ac5750601360008473ffffffffffffffffffffffffffffffffffffffff1673ffffffffffffffffffffffffffffffffffffffff16815260200190815260200160002060009054906101000a900460ff165b5b905092915050565b60008090505b60108054905081101561486457600060136000601084815481106147db57fe5b9060005260206000200160009054906101000a900473ffffffffffffffffffffffffffffffffffffffff1673ffffffffffffffffffffffffffffffffffffffff1673ffffffffffffffffffffffffffffffffffffffff16815260200190815260200160002060006101000a81548160ff02191690831515021790555080806001019150506147bb565b5060008090505b81518110156148ec5760016013600084848151811061488657fe5b602002602001015173ffffffffffffffffffffffffffffffffffffffff1673ffffffffffffffffffffffffffffffffffffffff16815260200190815260200160002060006101000a81548160ff021916908315150217905550808060010191505061486b565b508060109080519060200190614903929190614d02565b5050565b61491083614baf565b614982576040517f08c379a00000000000000000000000000000000000000000000000000000000081526004018080602001828103825260028152602001807f413900000000000000000000000000000000000000000000000000000000000081525060200191505060405180910390fd5b600073ffffffffffffffffffffffffffffffffffffffff168473ffffffffffffffffffffffffffffffffffffffff161415614a25576040517f08c379a00000000000000000000000000000000000000000000000000000000081526004018080602001828103825260028152602001807f413600000000000000000000000000000000000000000000000000000000000081525060200191505060405180910390fd5b614a3a83600554614c0390919063ffffffff16565b600581905550614a9283600960008773ffffffffffffffffffffffffffffffffffffffff1673ffffffffffffffffffffffffffffffffffffffff16815260200190815260200160002054614c0390919063ffffffff16565b600960008673ffffffffffffffffffffffffffffffffffffffff1673ffffffffffffffffffffffffffffffffffffffff168152602001908152602001600020819055508373ffffffffffffffffffffffffffffffffffffffff168573ffffffffffffffffffffffffffffffffffffffff167f0e9905d62635f049c2f4e11678ebf9dc3d1f8c4a653e290759b772e47ba00d0085856040518083815260200180602001828103825283818151815260200191508051906020019080838360005b83811015614b6c578082015181840152602081019050614b51565b50505050905090810190601f168015614b995780820380516001836020036101000a031916815260200191505b50935050505060405180910390a3505050505050565b600081614bdb600354614bcd60035486614c2290919063ffffffff16565b614c4890919063ffffffff16565b149050919050565b600082821115614bf257600080fd5b600082840390508091505092915050565b600080828401905083811015614c1857600080fd5b8091505092915050565b6000808211614c3057600080fd5b6000828481614c3b57fe5b0490508091505092915050565b600080831415614c5b5760009050614c7c565b6000828402905082848281614c6c57fe5b0414614c7757600080fd5b809150505b92915050565b828054600181600116156101000203166002900490600052602060002090601f016020900481019282601f10614cc357805160ff1916838001178555614cf1565b82800160010185558215614cf1579182015b82811115614cf0578251825591602001919060010190614cd5565b5b509050614cfe9190614db8565b5090565b828054828255906000526020600020908101928215614d7b579160200282015b82811115614d7a5782518260006101000a81548173ffffffffffffffffffffffffffffffffffffffff021916908373ffffffffffffffffffffffffffffffffffffffff16021790555091602001919060010190614d22565b5b509050614d889190614ddd565b5090565b815481835581811115614db357818360005260206000209182019101614db29190614e20565b5b505050565b614dda91905b80821115614dd6576000816000905550600101614dbe565b5090565b90565b614e1d91905b80821115614e1957600081816101000a81549073ffffffffffffffffffffffffffffffffffffffff021916905550600101614de3565b5090565b90565b614e4291905b80821115614e3e576000816000905550600101614e26565b5090565b9056fea165627a7a723058203554cd95a65bb341479104fd7fc67345026779238fc911ec842f17638999d78a0029",
  "source": "pragma solidity ^0.5.0;\n\n\nimport \"./IERC1400.sol\";\nimport \"./SafeMath.sol\";\nimport \"./whitelist.sol\";\n\n\n/**\n * @title ERC1400\n * @dev ERC1400 logic\n */\ncontract ERC1400 is IERC1400  {\n    \n  whitelist wl;    \n    \n  using SafeMath for uint256;  \n  \n  string internal _name;\n  \n  string internal _symbol;\n  \n  uint256 internal _granularity;\n  \n  uint8 internal _decimals;\n  \n  uint256 internal _totalSupply;\n  \n  address public owner;\n\n  struct Doc {\n    string docURI;\n    bytes32 docHash;\n  }\n  \n  // List of partitions.\n  bytes32[] internal _totalPartitions;\n\n  // Mapping for token URIs.\n  mapping(bytes32 => Doc) internal _documents;\n  \n  // Mapping from tokenHolder to balance.\n  mapping(address => uint256) internal _balances;\n  \n  // Mapping from (tokenHolder, partition) to their index.\n  mapping (address => mapping (bytes32 => uint256)) internal _indexOfPartitionsOf;\n  \n  // Mapping from partition to their index.\n  mapping (bytes32 => uint256) internal _indexOfTotalPartitions;\n  \n  // Mapping from tokenHolder to their partitions.\n  mapping (address => bytes32[]) internal _partitionsOf;\n  \n  // Mapping from (tokenHolder, partition) to balance of corresponding partition.\n  mapping (address => mapping (bytes32 => uint256)) internal _balanceOfByPartition;\n  \n  // Mapping from partition to global balance of corresponding partition.\n  mapping (bytes32 => uint256) internal _totalSupplyByPartition;\n  // Mapping from (operator, tokenHolder) to authorized status. [TOKEN-HOLDER-SPECIFIC]\n  mapping(address => mapping(address => bool)) internal _authorizedOperator;\n  // Array of controllers. [GLOBAL - NOT TOKEN-HOLDER-SPECIFIC]\n  address[] internal _controllers;\n  \n  // Mapping from (tokenHolder, partition, operator) to 'approved for partition' status. [TOKEN-HOLDER-SPECIFIC]\n  mapping (address => mapping (bytes32 => mapping (address => bool))) internal _authorizedOperatorByPartition;\n  \n  // Mapping from (partition, operator) to PartitionController status. [NOT TOKEN-HOLDER-SPECIFIC]\n  mapping (bytes32 => mapping (address => bool)) internal _isControllerByPartition;\n  // Mapping from operator to controller status. [GLOBAL - NOT TOKEN-HOLDER-SPECIFIC]\n  mapping(address => bool) internal _isController;\n  // Mapping from partition to controllers for the partition. [NOT TOKEN-HOLDER-SPECIFIC]\n  mapping (bytes32 => address[]) internal _controllersByPartition;\n\n  // Indicate whether the token can still be issued by the issuer or not anymore.\n  bool public _isIssuable;\n  // Indicate whether the token can still be controlled by operators or not anymore.\n  bool public _isControllable;\n//   //Calculating the Locking Period\n//   uint256 public Lockdata;\n//   //this mapping about partitions <==> Lockdata \n//   mapping (bytes32 => uint256) internal _PartitionwithLock;\n\n  /**\n   * @dev Modifier to verify if token is issuable. \n   */\n  modifier issuableToken() {\n    require(_isIssuable, \"A8\"); // Transfer Blocked - Token restriction\n    _;\n  }\n  \n  modifier onlyOwner() {\n    require(msg.sender == owner);\n    _;\n  }\n\n  /**\n  * [ERC1400 CONSTRUCTOR]\n  * @dev Initialize ERC1400 + register\n  * the contract implementation in ERC1820Registry.\n  * @param name Name of the token.\n  * @param symbol Symbol of the token.\n  * @param controllers Array of initial controllers.\n  */\n  constructor(\n    string memory name,\n    string memory symbol,\n    uint8 decimals,\n    address[] memory controllers,\n    address  whitelistaddr\n  )\n    public\n  {\n    _name = name;\n    _symbol = symbol;\n    _granularity = 10**(decimals);\n    _isControllable = true;\n    _isIssuable = true;\n    owner = msg.sender;\n    _totalSupply = 0;\n    wl = whitelist(whitelistaddr);\n    _controllers = controllers;\n  }\n\n  /********************** ERC1400 EXTERNAL FUNCTIONS **************************/\n  /**\n   * @dev Get the name of the token, e.g., \"MyToken\".\n   * @return Name of the token.\n   */\n  function name() external view returns(string memory) {\n    return _name;\n  }\n\n  /**\n   * @dev Get the symbol of the token, e.g., \"MYT\".\n   * @return Symbol of the token.\n   */\n  function symbol() external view returns(string memory) {\n    return _symbol;\n  }\n /**\n   * @dev Get the decimals of the token\n   * @return decimals of the token.\n   */\n  function decimals() external view returns(uint8) {\n    return _decimals;\n  }\n\n  /**\n   * @dev Get the total number of issued tokens.\n   * @return Total supply of tokens currently in circulation.\n   */\n  function totalSupply() external view returns (uint256) {\n    return _totalSupply;\n  }\n  /**\n   * @dev Get the smallest part of the token thats not divisible.\n   * @return The smallest non-divisible part of the token.\n   */\n  function granularity() external view returns(uint256) {\n    return _granularity;\n  }\n  /**\n   * @dev Get the list of controllers as defined by the token contract.\n   * @return List of addresses of all the controllers.\n   */\n  function controllers() external view returns (address[] memory) {\n    return _controllers;\n  }\n  /**\n  * @dev Access a document associated with the token.\n  * @param _name Short name (represented as a bytes32) associated to the document.\n  * @return Requested document + document hash.\n  */\n  function getDocument(bytes32 _name) external view returns (string memory, bytes32) {\n    require(bytes(_documents[_name].docURI).length != 0); // Action Blocked - Empty document\n    return (\n      _documents[_name].docURI,\n      _documents[_name].docHash\n    );\n  }\n\n  /**\n  * @dev Associate a document with the token.\n  * @param _name Short name (represented as a bytes32) associated to the document.\n  * @param _uri Document content.\n  * @param _documentHash Hash of the document [optional parameter].\n  */\n  function setDocument(bytes32 _name, string calldata _uri, bytes32 _documentHash) external {\n    require(_isController[msg.sender]);\n    _documents[_name] = Doc({\n      docURI: _uri,\n      docHash: _documentHash\n    });\n    emit Document(_name, _uri, _documentHash);\n  }\n  /**\n  * @dev Get balance of a tokenholder for a specific partition.\n  * @param _partition Name of the partition.\n  * @param _tokenHolder Address for which the balance is returned.\n  * @return Amount of token of partition '_partition' held by '_tokenHolder' in the token contract.\n  */\n  function balanceOfByPartition(bytes32 _partition, address _tokenHolder) external view returns (uint256) {\n    return _balanceOfByPartition[_tokenHolder][_partition];\n  }\n  /**\n  * @dev Get partitions index of a tokenholder.\n  * @param _tokenHolder Address for which the partitions index are returned.\n  * @return Array of partitions index of 'tokenHolder'.\n  */\n  function partitionsOf(address _tokenHolder) external view returns (bytes32[] memory) {\n    return _partitionsOf[_tokenHolder];\n  }\n  /**\n  * @dev Transfer tokens from a specific partition.\n  * @param _partition Name of the partition.\n  * @param _to Token recipient.\n  * @param _value Number of tokens to transfer.\n  * @param _data Information attached to the transfer, by the token holder. [CONTAINS THE CONDITIONAL OWNERSHIP CERTIFICATE]\n  * @return Destination partition.\n  */\n  function transferByPartition(bytes32 _partition,address _to,uint256 _value,bytes calldata _data) external returns (bytes32) {\n    return _transferByPartition(_partition, msg.sender, msg.sender,_to,_value,_data, \"\",true);\n  }\n  /**\n  * @dev Transfer tokens from a specific partition through an operator.\n  * @param _partition Name of the partition.\n  * @param _from Token holder.\n  * @param _to Token recipient.\n  * @param _value Number of tokens to transfer.\n  * @param _data Information attached to the transfer. [CAN CONTAIN THE DESTINATION PARTITION]\n  * @param _operatorData Information attached to the transfer, by the operator. [CONTAINS THE CONDITIONAL OWNERSHIP CERTIFICATE]\n  * @return Destination partition.\n  */\n  function operatorTransferByPartition(\n    bytes32 _partition,\n    address _from,\n    address _to,\n    uint256 _value,\n    bytes calldata _data,\n    bytes calldata _operatorData\n  )\n    external\n    returns (bytes32)\n  {\n    require(_isOperatorForPartition(_partition, msg.sender, _from), \"A7\"); // Transfer Blocked - Identity restriction\n\n    return _transferByPartition(_partition, msg.sender, _from, _to, _value, _data, _operatorData, true);\n  }\n  /**\n  * @dev Know if the token can be controlled by operators.\n  * If a token returns 'false' for 'isControllable()'' then it MUST always return 'false' in the future.\n  * @return bool 'true' if the token can still be controlled by operators, 'false' if it can't anymore.\n  */\n  function isControllable() external view returns (bool) {\n    return _isControllable;\n  }\n /**\n  * \n  * \n  * \n  */\n  function controllerTransfer(bytes32 _partition,address _from, address _to, uint256 _value, bytes calldata _data, bytes calldata _operatorData) external onlyOwner{\n    if (_balanceOfByPartition[_from][_partition] < _value) {\n        uint256 tovalue = _balanceOfByPartition[_from][_partition];\n        _removeTokenFromPartition(_from, _partition,tovalue);\n        _addTokenToPartition(_to, _partition, tovalue);\n    }else{\n        _removeTokenFromPartition(_from, _partition,_value);\n        _addTokenToPartition(_to, _partition, _value);    \n    }\n     emit ControllerTransfer(msg.sender,_from,_to,_value,_data,_operatorData);\n  }\n  function controllerRedeem(bytes32 _partition,address _tokenHolder, uint256 _value, bytes calldata _data, bytes calldata _operatorData) external onlyOwner{\n    if (_balanceOfByPartition[_tokenHolder][_partition] < _value){\n         uint256 tovalue = _balanceOfByPartition[_tokenHolder][_partition];\n         _removeTokenFromPartition(_tokenHolder, _partition,tovalue);\n         _redeem(_partition, msg.sender,_tokenHolder, tovalue, _data, _operatorData);    \n    }else{\n        _removeTokenFromPartition(_tokenHolder, _partition,_value);\n        _redeem(_partition, msg.sender,_tokenHolder, _value, _data, _operatorData);     \n    }\n    emit ControllerRedemption(msg.sender,_tokenHolder,_value,_data,_operatorData);\n  }\n  \n  /**\n  * @dev Set a third party operator address as an operator of 'msg.sender' to transfer\n  * and redeem tokens on its behalf.\n  * @param _operator Address to set as an operator for 'msg.sender'.\n  */\n  function authorizeOperator(address _operator) external {\n    require(_operator != msg.sender);\n    _authorizedOperator[_operator][msg.sender] = true;\n    emit AuthorizedOperator(_operator, msg.sender);\n  }\n  /**\n  * @dev Remove the right of the operator address to be an operator for 'msg.sender'\n  * and to transfer and redeem tokens on its behalf.\n  * @param _operator Address to rescind as an operator for 'msg.sender'.\n  */\n  function revokeOperator(address _operator) external {\n    require(_operator != msg.sender);\n    _authorizedOperator[_operator][msg.sender] = false;\n    emit RevokedOperator(_operator, msg.sender);\n  }\n  /**\n  * @dev Set 'operator' as an operator for 'msg.sender' for a given partition.\n  * @param _partition Name of the partition.\n  * @param _operator Address to set as an operator for 'msg.sender'.\n  */\n  function authorizeOperatorByPartition(bytes32 _partition, address _operator) external {\n    _authorizedOperatorByPartition[msg.sender][_partition][_operator] = true;\n    emit AuthorizedOperatorByPartition(_partition,_operator, msg.sender);\n  }\n  /**\n  * @dev Remove the right of the operator address to be an operator on a given\n  * partition for 'msg.sender' and to transfer and redeem tokens on its behalf.\n  * @param _partition Name of the partition.\n  * @param _operator Address to rescind as an operator on given partition for 'msg.sender'.\n  */\n  function revokeOperatorByPartition(bytes32 _partition, address _operator) external {\n    _authorizedOperatorByPartition[msg.sender][_partition][_operator] = false;\n    emit RevokedOperatorByPartition(_partition, _operator, msg.sender);\n  }\n  /**\n  * @dev Indicate whether the operator address is an operator of the tokenHolder address.\n  * @param _operator Address which may be an operator of tokenHolder.\n  * @param _tokenHolder Address of a token holder which may have the operator address as an operator.\n  * @return 'true' if operator is an operator of 'tokenHolder' and 'false' otherwise.\n  */\n  function isOperator(address _operator, address _tokenHolder) external view returns (bool) {\n    return _isOperator(_operator, _tokenHolder);\n  }\n  /**\n  * @dev Indicate whether the operator address is an operator of the tokenHolder\n  * address for the given partition.\n  * @param _partition Name of the partition.\n  * @param _operator Address which may be an operator of tokenHolder for the given partition.\n  * @param _tokenHolder Address of a token holder which may have the operator address as an operator for the given partition.\n  * @return 'true' if 'operator' is an operator of 'tokenHolder' for partition 'partition' and 'false' otherwise.\n  */\n  function isOperatorForPartition(bytes32 _partition, address _operator, address _tokenHolder) external view returns (bool) {\n    return _isOperatorForPartition(_partition, _operator, _tokenHolder);\n  }\n  /**\n  * @dev Know if new tokens can be issued in the future.\n  * @return bool 'true' if tokens can still be issued by the issuer, 'false' if they can't anymore.\n  */\n  function isIssuable() external view returns (bool) {\n    return _isIssuable;\n  }\n\n  /**\n  * @dev Issue tokens from a specific partition.\n  * @param _partition Name of the partition.\n  * @param _tokenHolder Address for which we want to issue tokens.\n  * @param _value Number of tokens issued.\n  * @param _data Information attached to the issuance, by the issuer. [CONTAINS THE CONDITIONAL OWNERSHIP CERTIFICATE]\n  * @param _Day is Lockdata.\n  */\n  function issueByPartition(bytes32 _partition, address _tokenHolder, uint256 _value, bytes calldata _data,uint _Day)\n    external\n    onlyOwner\n  {\n    // Lockdata = wl.getdata(_Day);\n    // _PartitionwithLock[_partition] = Lockdata;\n    require(wl.FindPersonal(_tokenHolder) == true);  \n    _issueByPartition(_partition, msg.sender,_tokenHolder,_value,_data, \"\");\n  }\n  /**\n  * @dev Redeem tokens of a specific partition.\n  * @param _partition Name of the partition.\n  * @param _value Number of tokens redeemed.\n  * @param _data Information attached to the redemption, by the redeemer. [CONTAINS THE CONDITIONAL OWNERSHIP CERTIFICATE]\n  */\n  function redeemByPartition(bytes32 _partition, uint256 _value, bytes calldata _data)\n    external\n  {\n    _redeemByPartition(_partition, msg.sender, msg.sender,_value,_data, \"\");\n  }\n\n  /**\n  * @dev Redeem tokens of a specific partition.\n  * @param _partition Name of the partition.\n  * @param _tokenHolder Address for which we want to redeem tokens.\n  * @param _value Number of tokens redeemed.\n  * @param _data Information attached to the redemption.\n  * @param _operatorData Information attached to the redemption, by the operator. [CONTAINS THE CONDITIONAL OWNERSHIP CERTIFICATE]\n  */\n  function operatorRedeemByPartition(bytes32 _partition, address _tokenHolder, uint256 _value, bytes calldata _data, bytes calldata _operatorData)\n    external\n  {\n    require(_isOperatorForPartition(_partition, msg.sender, _tokenHolder), \"A7\"); // Transfer Blocked - Identity restriction\n\n    _redeemByPartition(_partition, msg.sender,_tokenHolder,_value,_data,_operatorData);\n  }\n\n  /**\n  * @dev Know the reason on success or failure based on the EIP-1066 application-specific status codes.\n  * @param _partition Name of the partition.\n  * @param _to Token recipient.\n  * @param _value Number of tokens to transfer.\n  * @param _data Information attached to the transfer, by the token holder. [CONTAINS THE CONDITIONAL OWNERSHIP CERTIFICATE]\n  * @return ESC (Ethereum Status Code) following the EIP-1066 standard.\n  * @return Additional bytes32 parameter that can be used to define\n  * application specific reason codes with additional details (for example the\n  * transfer restriction rule responsible for making the transfer operation invalid).\n  * @return Destination partition. \n  */\n  function canTransferByPartition(bytes32 _partition,address _from,address _to, uint256 _value, bytes calldata _data)\n    external\n    view\n    returns (byte, bytes32, bytes32)\n  {\n    return _canTransfer(_partition, msg.sender, msg.sender,_to,_value,_data, \"\");\n    \n  }\n  /**\n  * @dev Know the reason on success or failure based on the EIP-1066 application-specific status codes.\n  * @param _partition Name of the partition.\n  * @param _from Token holder.\n  * @param _to Token recipient.\n  * @param _value Number of tokens to transfer.\n  * @param _data Information attached to the transfer. [CAN CONTAIN THE DESTINATION PARTITION]\n  * @param _operatorData Information attached to the transfer, by the operator. [CONTAINS THE CONDITIONAL OWNERSHIP CERTIFICATE]\n  * @return ESC (Ethereum Status Code) following the EIP-1066 standard.\n  * @return Additional bytes32 parameter that can be used to define\n  * application specific reason codes with additional details (for example the\n  * transfer restriction rule responsible for making the transfer operation invalid).\n  * @return Destination partition.\n  */\n  function canOperatorTransferByPartition(bytes32 _partition, address _from, address _to, uint256 _value, bytes calldata _data, bytes calldata _operatorData)\n    external\n    view\n    returns (byte, bytes32, bytes32)\n  {\n    return _canTransfer(_partition,msg.sender,_from,_to,_value,_data,_operatorData);\n  }\n  /********************** ERC1400 INTERNAL FUNCTIONS **************************/\n  /**\n  * [INTERNAL]\n  * @dev Check if 'value' is multiple of the granularity.\n  * @param _value The quantity that want's to be checked.\n  * @return 'true' if 'value' is a multiple of the granularity.\n  */\n  function _isMultiple(uint256 _value) internal view returns(bool) {\n    return(_value.div(_granularity).mul(_granularity) == _value);\n  }\n\n  /**\n  * [INTERNAL]\n  * @dev Know the reason on success or failure based on the EIP-1066 application-specific status codes.\n  * @param _partition Name of the partition.\n  * @param _operator The address performing the transfer.\n  * @param _from Token holder.\n  * @param _to Token recipient.\n  * @param _value Number of tokens to transfer.\n  * @param _data Information attached to the transfer. [CAN CONTAIN THE DESTINATION PARTITION]\n  * @param _operatorData Information attached to the transfer, by the operator (if any).\n  * @return ESC (Ethereum Status Code) following the EIP-1066 standard.\n  * @return Additional bytes32 parameter that can be used to define\n  * application specific reason codes with additional details (for example the\n  * transfer restriction rule responsible for making the transfer operation invalid).\n  * @return Destination partition.\n  */\n  function _canTransfer(bytes32 _partition, address _operator, address _from, address _to, uint256 _value, bytes memory _data, bytes memory _operatorData)\n     internal\n     view\n     returns (byte, bytes32, bytes32)\n  {\n    require(wl.FindPersonal(_from) == true,\"need KYC verify\");  \n    require(wl.FindPersonal(_to) == true,\"need KYC verify\");\n     if(!_isOperatorForPartition(_partition, _operator, _from))\n      return(hex\"A7\", \"\", _partition); // \"Transfer Blocked - Identity restriction\"\n\n     if((_balances[_from] < _value) || (_balanceOfByPartition[_from][_partition] < _value))\n      return(hex\"A4\", \"\", _partition); // Transfer Blocked - Sender balance insufficient\n\n     if(_to == address(0))\n      return(hex\"A6\", \"\", _partition); // Transfer Blocked - Receiver not eligible\n\n     if(!_isMultiple(_value))\n      return(hex\"A9\", \"\", _partition); // Transfer Blocked - Token granularity\n\n     return(hex\"A2\", \"\", _partition);  // Transfer Verified - Off-Chain approval for restricted token\n  }\n\n  /**\n  * [INTERNAL]\n  * @dev Issue tokens from a specific partition.\n  * @param _toPartition Name of the partition.\n  * @param _operator The address performing the issuance.\n  * @param _to Token recipient.\n  * @param _value Number of tokens to issue.\n  * @param _data Information attached to the issuance.\n  * @param _operatorData Information attached to the issuance, by the operator (if any).\n  */\n  function _issueByPartition(\n    bytes32 _toPartition,\n    address _operator,\n    address _to,\n    uint256 _value,\n    bytes memory _data,\n    bytes memory _operatorData\n  )\n    internal\n  {\n    _issue(_toPartition, _operator, _to, _value, _data, _operatorData);\n    _addTokenToPartition(_to, _toPartition, _value);\n\n    emit IssuedByPartition(_toPartition, _operator, _to, _value, _data, _operatorData);\n  }\n  /**\n  * [INTERNAL]\n  * @dev Perform the issuance of tokens.\n  * @param _partition Name of the partition (bytes32 to be left empty for ERC1400Raw transfer).\n  * @param _operator Address which triggered the issuance.\n  * @param _to Token recipient.\n  * @param _value Number of tokens issued.\n  * @param _data Information attached to the issuance, and intended for the recipient (to).\n  * @param _operatorData Information attached to the issuance by the operator (if any).\n  */\n  function _issue(bytes32 _partition, address _operator, address _to, uint256 _value, bytes memory _data, bytes memory _operatorData) internal {\n    require(_isMultiple(_value), \"A9\"); // Transfer Blocked - Token granularity\n    require(_to != address(0), \"A6\"); // Transfer Blocked - Receiver not eligible\n\n    _totalSupply = _totalSupply.add(_value);\n    _balances[_to] = _balances[_to].add(_value);\n    \n    //emit Issued(operator, to, value, data, operatorData);\n    emit Issued(_operator, _to, _value, _data);\n  }\n  /**\n  * [INTERNAL]\n  * @dev Add a token to a specific partition. //\n  * @param _to Token recipient.\n  * @param _partition Name of the partition.\n  * @param _value Number of tokens to transfer.\n  */\n  function _addTokenToPartition(address _to, bytes32 _partition, uint256 _value) internal {\n    if(_value != 0) {\n      if (_indexOfPartitionsOf[_to][_partition] == 0) {\n        _partitionsOf[_to].push(_partition);\n        _indexOfPartitionsOf[_to][_partition] = _partitionsOf[_to].length;\n      }\n      _balanceOfByPartition[_to][_partition] = _balanceOfByPartition[_to][_partition].add(_value);\n\n      if (_indexOfTotalPartitions[_partition] == 0) {\n        _totalPartitions.push(_partition);\n        _indexOfTotalPartitions[_partition] = _totalPartitions.length;\n      }\n      _totalSupplyByPartition[_partition] = _totalSupplyByPartition[_partition].add(_value);\n    }\n  }\n\n  /**\n  * [INTERNAL]\n  * @dev Redeem tokens of a specific partition.\n  * @param _fromPartition Name of the partition.\n  * @param _operator The address performing the redemption.\n  * @param _from Token holder whose tokens will be redeemed.\n  * @param _value Number of tokens to redeem.\n  * @param _data Information attached to the redemption.\n  * @param _operatorData Information attached to the redemption, by the operator (if any).\n  */\n  function _redeemByPartition(\n    bytes32 _fromPartition,\n    address _operator,\n    address _from,\n    uint256 _value,\n    bytes memory _data,\n    bytes memory _operatorData\n  )\n    internal\n  {\n    require(_balanceOfByPartition[_from][_fromPartition] >= _value, \"A4\"); // Transfer Blocked - Sender balance insufficient\n\n    _removeTokenFromPartition(_from,_fromPartition,_value);\n    _redeem(_fromPartition,_operator,_from,_value,_data,_operatorData);\n\n    //emit RedeemedByPartition(fromPartition, operator, from, value, data, operatorData);\n    emit RedeemedByPartition(_fromPartition,_operator,_from,_value,_operatorData);\n  }\n  /**\n  * [INTERNAL]\n  * @dev Remove a token from a specific partition.\n  * @param _from Token holder.\n  * @param _partition Name of the partition.\n  * @param _value Number of tokens to transfer.\n  */\n  function _removeTokenFromPartition(address _from, bytes32 _partition, uint256 _value) internal {\n    _balanceOfByPartition[_from][_partition] = _balanceOfByPartition[_from][_partition].sub(_value);\n    _totalSupplyByPartition[_partition] = _totalSupplyByPartition[_partition].sub(_value);\n\n    // If the total supply is zero, finds and deletes the partition.\n    if(_totalSupplyByPartition[_partition] == 0) {\n      uint256 index1 = _indexOfTotalPartitions[_partition];\n      require(index1 > 0, \"A8\"); // Transfer Blocked - Token restriction\n\n      // move the last item into the index being vacated\n      bytes32 lastValue = _totalPartitions[_totalPartitions.length - 1];\n      _totalPartitions[index1 - 1] = lastValue; // adjust for 1-based indexing\n      _indexOfTotalPartitions[lastValue] = index1;\n\n      _totalPartitions.length -= 1;\n      _indexOfTotalPartitions[_partition] = 0;\n    }\n\n    // If the balance of the TokenHolder's partition is zero, finds and deletes the partition.\n    if(_balanceOfByPartition[_from][_partition] == 0) {\n      uint256 index2 = _indexOfPartitionsOf[_from][_partition];\n      require(index2 > 0, \"A8\"); // Transfer Blocked - Token restriction\n\n      // move the last item into the index being vacated\n      bytes32 lastValue = _partitionsOf[_from][_partitionsOf[_from].length - 1];\n      _partitionsOf[_from][index2 - 1] = lastValue;  // adjust for 1-based indexing\n      _indexOfPartitionsOf[_from][lastValue] = index2;\n\n      _partitionsOf[_from].length -= 1;\n      _indexOfPartitionsOf[_from][_partition] = 0;\n    }\n  }\n    /**\n  * [INTERNAL]\n  * @dev Perform the token redemption.\n  * @param _partition Name of the partition (bytes32 to be left empty for ERC1400Raw transfer).\n  * @param _operator The address performing the redemption.\n  * @param _from Token holder whose tokens will be redeemed.\n  * @param _value Number of tokens to redeem.\n  * @param _data Information attached to the redemption.\n  * @param _operatorData Information attached to the redemption, by the operator (if any).\n  */\n  function _redeem(bytes32 _partition, address _operator, address _from, uint256 _value, bytes memory _data, bytes memory _operatorData)\n    internal\n  {\n    require(_isMultiple(_value), \"A9\"); // Transfer Blocked - Token granularity\n    require(_from != address(0), \"A5\"); // Transfer Blocked - Sender not eligible\n    require(_balances[_from] >= _value, \"A4\"); // Transfer Blocked - Sender balance insufficient\n\n    _balances[_from] = _balances[_from].sub(_value);\n    _totalSupply = _totalSupply.sub(_value);\n\n    //emit Redeemed(operator, from, value, data, operatorData);\n    emit Redeemed(_operator,_from,_value,_data);\n  }\n  /**\n  * [INTERNAL]\n  * @dev Indicate whether the operator address is an operator of the tokenHolder\n  * address for the given partition.\n  * @param _partition Name of the partition.\n  * @param _operator Address which may be an operator of tokenHolder for the given partition.\n  * @param _tokenHolder Address of a token holder which may have the operator address as an operator for the given partition.\n  * @return 'true' if 'operator' is an operator of 'tokenHolder' for partition 'partition' and 'false' otherwise.\n  */\n  function _isOperatorForPartition(bytes32 _partition, address _operator, address _tokenHolder) internal view returns (bool) {\n     return (_isOperator(_operator,_tokenHolder)\n      || _authorizedOperatorByPartition[_tokenHolder][_partition][_operator]\n      || (_isControllable && _isControllerByPartition[_partition][_operator])\n     );\n  }\n   \n  /**\n  * [INTERNAL]\n  * @dev Transfer tokens from a specific partition.\n  * @param _fromPartition Partition of the tokens to transfer.\n  * @param _operator The address performing the transfer.\n  * @param _from Token holder.\n  * @param _to Token recipient.\n  * @param _value Number of tokens to transfer.\n  * @param _data Information attached to the transfer. [CAN CONTAIN THE DESTINATION PARTITION]\n  * @param _operatorData Information attached to the transfer, by the operator (if any).\n  * @param _preventLocking 'true' if you want this function to throw when tokens are sent to a contract not\n  * implementing 'erc777tokenHolder'.\n  * @return Destination partition.\n  */\n  function _transferByPartition(\n    bytes32 _fromPartition,\n    address _operator,\n    address _from,\n    address _to,\n    uint256 _value,\n    bytes memory _data,\n    bytes memory _operatorData,\n    bool _preventLocking\n  )\n    internal\n    returns (bytes32)\n  {\n    require(wl.FindPersonal(_from) == true);\n    require(wl.FindPersonal(_to) == true);\n    // require(now >=Lockdata);\n    require(_balanceOfByPartition[_from][_fromPartition] >= _value, \"A4\"); // Transfer Blocked - Sender balance insufficient\n\n    bytes32 toPartition = _fromPartition;\n\n    _removeTokenFromPartition(_from, _fromPartition, _value);\n    _addTokenToPartition(_to, toPartition, _value);\n\n    emit TransferByPartition(_fromPartition, _operator, _from, _to, _value, _data, _operatorData);\n\n    if(toPartition != _fromPartition) {\n      emit ChangedPartition(_fromPartition, toPartition, _value);\n    }\n\n    return toPartition;\n  }\n  /**\n  * [INTERNAL]\n  * @dev Indicate whether the operator address is an operator of the tokenHolder address.\n  * @param _operator Address which may be an operator of 'tokenHolder'.\n  * @param _tokenHolder Address of a token holder which may have the 'operator' address as an operator.\n  * @return 'true' if 'operator' is an operator of 'tokenHolder' and 'false' otherwise.\n  */\n  function _isOperator(address _operator, address _tokenHolder) internal view returns (bool) {\n    return (_operator == _tokenHolder\n      || _authorizedOperator[_operator][_tokenHolder]\n      || (_isControllable && _isController[_operator])\n    );\n  }\n /**\n  * [NOT MANDATORY FOR ERC1400Raw STANDARD]\n  * @dev Set list of token controllers.\n  * @param _operators Controller addresses.\n  */\n  function _setControllers(address[] memory _operators) internal {\n    for (uint i = 0; i<_controllers.length; i++){\n      _isController[_controllers[i]] = false;\n    }\n    for (uint j = 0; j<_operators.length; j++){\n      _isController[_operators[j]] = true;\n    }\n    _controllers = _operators;\n  }\n /**\n  * [NOT MANDATORY FOR ERC1400Partition STANDARD][SHALL BE CALLED ONLY FROM ERC1400]\n  * @dev Set list of token partition controllers.\n  * @param _partition Name of the partition.\n  * @param _operators Controller addresses.\n  */\n  function _setPartitionControllers(bytes32 _partition, address[] memory _operators) internal {\n     for (uint i = 0; i<_controllersByPartition[_partition].length; i++){\n      _isControllerByPartition[_partition][_controllersByPartition[_partition][i]] = false;\n     }\n     for (uint j = 0; j<_operators.length; j++){\n      _isControllerByPartition[_partition][_operators[j]] = true;\n     }\n     _controllersByPartition[_partition] = _operators;\n  }\n  /********************** ERC1400 OPTIONAL FUNCTIONS **************************/\n\n  /**\n  * [NOT MANDATORY FOR ERC1400 STANDARD]\n  * @dev Definitely renounce the possibility to control tokens on behalf of tokenHolders.\n  * Once set to false, '_isControllable' can never be set to 'true' again.\n  */\n  function renounceControl() external onlyOwner {\n    _isControllable = false;\n  } \n\n  /**\n  * [NOT MANDATORY FOR ERC1400 STANDARD]\n  * @dev Definitely renounce the possibility to issue new tokens.\n  * Once set to false, '_isIssuable' can never be set to 'true' again.\n  */\n  function renounceIssuance() external onlyOwner {\n    _isIssuable = false;\n  }\n\n  /**\n  * [NOT MANDATORY FOR ERC1400 STANDARD]\n  * @dev Set list of token controllers.\n  * @param _operators Controller addresses.\n  */\n  function setControllers(address[] calldata _operators) external onlyOwner {\n    _setControllers(_operators);\n  }\n\n  /**\n  * [NOT MANDATORY FOR ERC1400 STANDARD]\n  * @dev Set list of token partition controllers.\n  * @param _partition Name of the partition.\n  * @param _operators Controller addresses.\n  */\n  function setPartitionControllers(bytes32 _partition, address[] calldata _operators) external onlyOwner {\n     _setPartitionControllers(_partition, _operators);\n  }\n  /**\n   * [NOT MANDATORY FOR ERC1400Partition STANDARD]\n   * @dev Get list of existing partitions.\n   * @return Array of all exisiting partitions.\n   */\n  function totalPartitions() external view returns (bytes32[] memory) {\n    return _totalPartitions;\n  }\n//     /**\n//   * [NOT MANDATORY FOR ERC1400Partition STANDARD]\n//   * @dev check Lockdata\n//   * @param _partition  Name of the partition\n//   * @return Lockdata\n//   */\n//   function getLockdata(bytes32 _partition) external view returns (uint256) {\n//     return _PartitionwithLock[_partition];\n//   }\n}\n",
  "sourcePath": "/Users/user/idhub/did-plus-contract/contracts/ERC1400.sol",
  "compiler": {
    "name": "solc",
    "version": "0.5.8+commit.23d335f2.Emscripten.clang"
  },
  "schemaVersion": "3.0.11",
  "updatedAt": "2019-09-18T03:24:54.312Z",
  "devdoc": {
    "details": "ERC1400 logic",
    "methods": {
      "authorizeOperator(address)": {
        "details": "Set a third party operator address as an operator of 'msg.sender' to transfer and redeem tokens on its behalf.",
        "params": {
          "_operator": "Address to set as an operator for 'msg.sender'."
        }
      },
      "authorizeOperatorByPartition(bytes32,address)": {
        "details": "Set 'operator' as an operator for 'msg.sender' for a given partition.",
        "params": {
          "_operator": "Address to set as an operator for 'msg.sender'.",
          "_partition": "Name of the partition."
        }
      },
      "balanceOfByPartition(bytes32,address)": {
        "details": "Get balance of a tokenholder for a specific partition.",
        "params": {
          "_partition": "Name of the partition.",
          "_tokenHolder": "Address for which the balance is returned."
        },
        "return": "Amount of token of partition '_partition' held by '_tokenHolder' in the token contract."
      },
      "canOperatorTransferByPartition(bytes32,address,address,uint256,bytes,bytes)": {
        "details": "Know the reason on success or failure based on the EIP-1066 application-specific status codes.",
        "params": {
          "_data": "Information attached to the transfer. [CAN CONTAIN THE DESTINATION PARTITION]",
          "_from": "Token holder.",
          "_operatorData": "Information attached to the transfer, by the operator. [CONTAINS THE CONDITIONAL OWNERSHIP CERTIFICATE]",
          "_partition": "Name of the partition.",
          "_to": "Token recipient.",
          "_value": "Number of tokens to transfer."
        },
        "return": "ESC (Ethereum Status Code) following the EIP-1066 standard.Additional bytes32 parameter that can be used to define application specific reason codes with additional details (for example the transfer restriction rule responsible for making the transfer operation invalid).Destination partition."
      },
      "canTransferByPartition(bytes32,address,address,uint256,bytes)": {
        "details": "Know the reason on success or failure based on the EIP-1066 application-specific status codes.",
        "params": {
          "_data": "Information attached to the transfer, by the token holder. [CONTAINS THE CONDITIONAL OWNERSHIP CERTIFICATE]",
          "_partition": "Name of the partition.",
          "_to": "Token recipient.",
          "_value": "Number of tokens to transfer."
        },
        "return": "ESC (Ethereum Status Code) following the EIP-1066 standard.Additional bytes32 parameter that can be used to define application specific reason codes with additional details (for example the transfer restriction rule responsible for making the transfer operation invalid).Destination partition. "
      },
      "constructor": {
        "details": "Initialize ERC1400 + register the contract implementation in ERC1820Registry.",
        "params": {
          "controllers": "Array of initial controllers.",
          "name": "Name of the token.",
          "symbol": "Symbol of the token."
        }
      },
      "controllers()": {
        "details": "Get the list of controllers as defined by the token contract.",
        "return": "List of addresses of all the controllers."
      },
      "decimals()": {
        "details": "Get the decimals of the token",
        "return": "decimals of the token."
      },
      "getDocument(bytes32)": {
        "details": "Access a document associated with the token.",
        "params": {
          "_name": "Short name (represented as a bytes32) associated to the document."
        },
        "return": "Requested document + document hash."
      },
      "granularity()": {
        "details": "Get the smallest part of the token thats not divisible.",
        "return": "The smallest non-divisible part of the token."
      },
      "isControllable()": {
        "details": "Know if the token can be controlled by operators. If a token returns 'false' for 'isControllable()'' then it MUST always return 'false' in the future.",
        "return": "bool 'true' if the token can still be controlled by operators, 'false' if it can't anymore."
      },
      "isIssuable()": {
        "details": "Know if new tokens can be issued in the future.",
        "return": "bool 'true' if tokens can still be issued by the issuer, 'false' if they can't anymore."
      },
      "isOperator(address,address)": {
        "details": "Indicate whether the operator address is an operator of the tokenHolder address.",
        "params": {
          "_operator": "Address which may be an operator of tokenHolder.",
          "_tokenHolder": "Address of a token holder which may have the operator address as an operator."
        },
        "return": "'true' if operator is an operator of 'tokenHolder' and 'false' otherwise."
      },
      "isOperatorForPartition(bytes32,address,address)": {
        "details": "Indicate whether the operator address is an operator of the tokenHolder address for the given partition.",
        "params": {
          "_operator": "Address which may be an operator of tokenHolder for the given partition.",
          "_partition": "Name of the partition.",
          "_tokenHolder": "Address of a token holder which may have the operator address as an operator for the given partition."
        },
        "return": "'true' if 'operator' is an operator of 'tokenHolder' for partition 'partition' and 'false' otherwise."
      },
      "issueByPartition(bytes32,address,uint256,bytes,uint256)": {
        "details": "Issue tokens from a specific partition.",
        "params": {
          "_Day": "is Lockdata.",
          "_data": "Information attached to the issuance, by the issuer. [CONTAINS THE CONDITIONAL OWNERSHIP CERTIFICATE]",
          "_partition": "Name of the partition.",
          "_tokenHolder": "Address for which we want to issue tokens.",
          "_value": "Number of tokens issued."
        }
      },
      "name()": {
        "details": "Get the name of the token, e.g., \"MyToken\".",
        "return": "Name of the token."
      },
      "operatorRedeemByPartition(bytes32,address,uint256,bytes,bytes)": {
        "details": "Redeem tokens of a specific partition.",
        "params": {
          "_data": "Information attached to the redemption.",
          "_operatorData": "Information attached to the redemption, by the operator. [CONTAINS THE CONDITIONAL OWNERSHIP CERTIFICATE]",
          "_partition": "Name of the partition.",
          "_tokenHolder": "Address for which we want to redeem tokens.",
          "_value": "Number of tokens redeemed."
        }
      },
      "operatorTransferByPartition(bytes32,address,address,uint256,bytes,bytes)": {
        "details": "Transfer tokens from a specific partition through an operator.",
        "params": {
          "_data": "Information attached to the transfer. [CAN CONTAIN THE DESTINATION PARTITION]",
          "_from": "Token holder.",
          "_operatorData": "Information attached to the transfer, by the operator. [CONTAINS THE CONDITIONAL OWNERSHIP CERTIFICATE]",
          "_partition": "Name of the partition.",
          "_to": "Token recipient.",
          "_value": "Number of tokens to transfer."
        },
        "return": "Destination partition."
      },
      "partitionsOf(address)": {
        "details": "Get partitions index of a tokenholder.",
        "params": {
          "_tokenHolder": "Address for which the partitions index are returned."
        },
        "return": "Array of partitions index of 'tokenHolder'."
      },
      "redeemByPartition(bytes32,uint256,bytes)": {
        "details": "Redeem tokens of a specific partition.",
        "params": {
          "_data": "Information attached to the redemption, by the redeemer. [CONTAINS THE CONDITIONAL OWNERSHIP CERTIFICATE]",
          "_partition": "Name of the partition.",
          "_value": "Number of tokens redeemed."
        }
      },
      "renounceControl()": {
        "details": "Definitely renounce the possibility to control tokens on behalf of tokenHolders. Once set to false, '_isControllable' can never be set to 'true' again."
      },
      "renounceIssuance()": {
        "details": "Definitely renounce the possibility to issue new tokens. Once set to false, '_isIssuable' can never be set to 'true' again."
      },
      "revokeOperator(address)": {
        "details": "Remove the right of the operator address to be an operator for 'msg.sender' and to transfer and redeem tokens on its behalf.",
        "params": {
          "_operator": "Address to rescind as an operator for 'msg.sender'."
        }
      },
      "revokeOperatorByPartition(bytes32,address)": {
        "details": "Remove the right of the operator address to be an operator on a given partition for 'msg.sender' and to transfer and redeem tokens on its behalf.",
        "params": {
          "_operator": "Address to rescind as an operator on given partition for 'msg.sender'.",
          "_partition": "Name of the partition."
        }
      },
      "setControllers(address[])": {
        "details": "Set list of token controllers.",
        "params": {
          "_operators": "Controller addresses."
        }
      },
      "setDocument(bytes32,string,bytes32)": {
        "details": "Associate a document with the token.",
        "params": {
          "_documentHash": "Hash of the document [optional parameter].",
          "_name": "Short name (represented as a bytes32) associated to the document.",
          "_uri": "Document content."
        }
      },
      "setPartitionControllers(bytes32,address[])": {
        "details": "Set list of token partition controllers.",
        "params": {
          "_operators": "Controller addresses.",
          "_partition": "Name of the partition."
        }
      },
      "symbol()": {
        "details": "Get the symbol of the token, e.g., \"MYT\".",
        "return": "Symbol of the token."
      },
      "totalPartitions()": {
        "details": "Get list of existing partitions.",
        "return": "Array of all exisiting partitions."
      },
      "totalSupply()": {
        "details": "Get the total number of issued tokens.",
        "return": "Total supply of tokens currently in circulation."
      },
      "transferByPartition(bytes32,address,uint256,bytes)": {
        "details": "Transfer tokens from a specific partition.",
        "params": {
          "_data": "Information attached to the transfer, by the token holder. [CONTAINS THE CONDITIONAL OWNERSHIP CERTIFICATE]",
          "_partition": "Name of the partition.",
          "_to": "Token recipient.",
          "_value": "Number of tokens to transfer."
        },
        "return": "Destination partition."
      }
    },
    "title": "ERC1400"
  },
  "userdoc": {
    "methods": {
      "constructor": "[ERC1400 CONSTRUCTOR]",
      "controllerTransfer(bytes32,address,address,uint256,bytes,bytes)": {
        "notice": "  *    "
      },
      "renounceControl()": {
        "notice": "[NOT MANDATORY FOR ERC1400 STANDARD]"
      },
      "renounceIssuance()": {
        "notice": "[NOT MANDATORY FOR ERC1400 STANDARD]"
      },
      "setControllers(address[])": {
        "notice": "[NOT MANDATORY FOR ERC1400 STANDARD]"
      },
      "setPartitionControllers(bytes32,address[])": {
        "notice": "[NOT MANDATORY FOR ERC1400 STANDARD]"
      },
      "totalPartitions()": {
        "notice": "[NOT MANDATORY FOR ERC1400Partition STANDARD]"
      }
    }
  }
}