{
  "contractName": "ERC1056",
  "abi": [
    {
      "constant": true,
      "inputs": [
        {
          "name": "",
          "type": "uint256"
        }
      ],
      "name": "einToDID",
      "outputs": [
        {
          "name": "",
          "type": "address"
        }
      ],
      "payable": false,
      "stateMutability": "view",
      "type": "function"
    },
    {
      "constant": true,
      "inputs": [
        {
          "name": "",
          "type": "uint256"
        }
      ],
      "name": "actionNonce",
      "outputs": [
        {
          "name": "",
          "type": "uint256"
        }
      ],
      "payable": false,
      "stateMutability": "view",
      "type": "function"
    },
    {
      "inputs": [
        {
          "name": "identityRegistryAddress",
          "type": "address"
        },
        {
          "name": "ethereumDIDRegistryAddress",
          "type": "address"
        }
      ],
      "payable": false,
      "stateMutability": "nonpayable",
      "type": "constructor"
    },
    {
      "anonymous": false,
      "inputs": [
        {
          "indexed": true,
          "name": "initiator",
          "type": "address"
        },
        {
          "indexed": true,
          "name": "ein",
          "type": "uint256"
        },
        {
          "indexed": true,
          "name": "indeitity",
          "type": "address"
        }
      ],
      "name": "IdentityInitialized",
      "type": "event"
    },
    {
      "anonymous": false,
      "inputs": [
        {
          "indexed": true,
          "name": "initiator",
          "type": "address"
        },
        {
          "indexed": false,
          "name": "ein",
          "type": "uint256"
        }
      ],
      "name": "IdentityCleared",
      "type": "event"
    },
    {
      "anonymous": false,
      "inputs": [
        {
          "indexed": true,
          "name": "initiator",
          "type": "address"
        },
        {
          "indexed": true,
          "name": "ein",
          "type": "uint256"
        },
        {
          "indexed": true,
          "name": "oldIdentity",
          "type": "address"
        },
        {
          "indexed": false,
          "name": "newIndeitity",
          "type": "address"
        }
      ],
      "name": "IdentityReseted",
      "type": "event"
    },
    {
      "constant": false,
      "inputs": [
        {
          "name": "identity",
          "type": "address"
        },
        {
          "name": "v",
          "type": "uint8"
        },
        {
          "name": "r",
          "type": "bytes32"
        },
        {
          "name": "s",
          "type": "bytes32"
        }
      ],
      "name": "initialize",
      "outputs": [],
      "payable": false,
      "stateMutability": "nonpayable",
      "type": "function"
    },
    {
      "constant": false,
      "inputs": [],
      "name": "clear",
      "outputs": [],
      "payable": false,
      "stateMutability": "nonpayable",
      "type": "function"
    },
    {
      "constant": false,
      "inputs": [
        {
          "name": "newIdentity",
          "type": "address"
        },
        {
          "name": "v",
          "type": "uint8"
        },
        {
          "name": "r",
          "type": "bytes32"
        },
        {
          "name": "s",
          "type": "bytes32"
        }
      ],
      "name": "reset",
      "outputs": [],
      "payable": false,
      "stateMutability": "nonpayable",
      "type": "function"
    },
    {
      "constant": false,
      "inputs": [
        {
          "name": "newOwner",
          "type": "address"
        }
      ],
      "name": "changeOwner",
      "outputs": [],
      "payable": false,
      "stateMutability": "nonpayable",
      "type": "function"
    },
    {
      "constant": false,
      "inputs": [
        {
          "name": "approvingAddress",
          "type": "address"
        },
        {
          "name": "newOwner",
          "type": "address"
        },
        {
          "name": "v",
          "type": "uint8"
        },
        {
          "name": "r",
          "type": "bytes32"
        },
        {
          "name": "s",
          "type": "bytes32"
        }
      ],
      "name": "changeOwnerDelegated",
      "outputs": [],
      "payable": false,
      "stateMutability": "nonpayable",
      "type": "function"
    },
    {
      "constant": false,
      "inputs": [
        {
          "name": "delegateType",
          "type": "bytes32"
        },
        {
          "name": "delegate",
          "type": "address"
        },
        {
          "name": "validity",
          "type": "uint256"
        }
      ],
      "name": "addDelegate",
      "outputs": [],
      "payable": false,
      "stateMutability": "nonpayable",
      "type": "function"
    },
    {
      "constant": false,
      "inputs": [
        {
          "name": "approvingAddress",
          "type": "address"
        },
        {
          "name": "delegateType",
          "type": "bytes32"
        },
        {
          "name": "delegate",
          "type": "address"
        },
        {
          "name": "validity",
          "type": "uint256"
        },
        {
          "name": "v",
          "type": "uint8"
        },
        {
          "name": "r",
          "type": "bytes32"
        },
        {
          "name": "s",
          "type": "bytes32"
        }
      ],
      "name": "addDelegateDelegated",
      "outputs": [],
      "payable": false,
      "stateMutability": "nonpayable",
      "type": "function"
    },
    {
      "constant": false,
      "inputs": [
        {
          "name": "delegateType",
          "type": "bytes32"
        },
        {
          "name": "delegate",
          "type": "address"
        }
      ],
      "name": "revokeDelegate",
      "outputs": [],
      "payable": false,
      "stateMutability": "nonpayable",
      "type": "function"
    },
    {
      "constant": false,
      "inputs": [
        {
          "name": "approvingAddress",
          "type": "address"
        },
        {
          "name": "delegateType",
          "type": "bytes32"
        },
        {
          "name": "delegate",
          "type": "address"
        },
        {
          "name": "v",
          "type": "uint8"
        },
        {
          "name": "r",
          "type": "bytes32"
        },
        {
          "name": "s",
          "type": "bytes32"
        }
      ],
      "name": "revokeDelegateDelegated",
      "outputs": [],
      "payable": false,
      "stateMutability": "nonpayable",
      "type": "function"
    },
    {
      "constant": false,
      "inputs": [
        {
          "name": "name",
          "type": "bytes32"
        },
        {
          "name": "value",
          "type": "bytes"
        },
        {
          "name": "validity",
          "type": "uint256"
        }
      ],
      "name": "setAttribute",
      "outputs": [],
      "payable": false,
      "stateMutability": "nonpayable",
      "type": "function"
    },
    {
      "constant": false,
      "inputs": [
        {
          "name": "approvingAddress",
          "type": "address"
        },
        {
          "name": "name",
          "type": "bytes32"
        },
        {
          "name": "value",
          "type": "bytes"
        },
        {
          "name": "validity",
          "type": "uint256"
        },
        {
          "name": "v",
          "type": "uint8"
        },
        {
          "name": "r",
          "type": "bytes32"
        },
        {
          "name": "s",
          "type": "bytes32"
        }
      ],
      "name": "setAttributeDelegated",
      "outputs": [],
      "payable": false,
      "stateMutability": "nonpayable",
      "type": "function"
    },
    {
      "constant": false,
      "inputs": [
        {
          "name": "name",
          "type": "bytes32"
        },
        {
          "name": "value",
          "type": "bytes"
        }
      ],
      "name": "revokeAttribute",
      "outputs": [],
      "payable": false,
      "stateMutability": "nonpayable",
      "type": "function"
    },
    {
      "constant": false,
      "inputs": [
        {
          "name": "approvingAddress",
          "type": "address"
        },
        {
          "name": "name",
          "type": "bytes32"
        },
        {
          "name": "value",
          "type": "bytes"
        },
        {
          "name": "v",
          "type": "uint8"
        },
        {
          "name": "r",
          "type": "bytes32"
        },
        {
          "name": "s",
          "type": "bytes32"
        }
      ],
      "name": "revokeAttributeDelegated",
      "outputs": [],
      "payable": false,
      "stateMutability": "nonpayable",
      "type": "function"
    }
  ],
  "bytecode": "0x608060405234801561001057600080fd5b5060405160408061360d8339810180604052604081101561003057600080fd5b810190808051906020019092919080519060200190929190505050816000806101000a81548173ffffffffffffffffffffffffffffffffffffffff021916908373ffffffffffffffffffffffffffffffffffffffff16021790555080600160006101000a81548173ffffffffffffffffffffffffffffffffffffffff021916908373ffffffffffffffffffffffffffffffffffffffff1602179055505050613530806100dd6000396000f3fe608060405234801561001057600080fd5b50600436106100f55760003560e01c8063853c4a5811610097578063d0bcc73c11610066578063d0bcc73c146106fb578063d702b8a514610760578063d862913f146107a2578063e9e8315614610871576100f5565b8063853c4a58146104ca578063a343766a146105da578063a6f9dae11461065f578063c7cadeb0146106a3576100f5565b806352efea6e116100d357806352efea6e146102c657806359d3dee2146102d0578063699561a9146103355780636e0327651461043b576100f5565b806307d52085146100fa5780632646efe31461016857806345c9959b1461022d575b600080fd5b6101266004803603602081101561011057600080fd5b81019080803590602001909291905050506108bf565b604051808273ffffffffffffffffffffffffffffffffffffffff1673ffffffffffffffffffffffffffffffffffffffff16815260200191505060405180910390f35b61022b6004803603604081101561017e57600080fd5b8101908080359060200190929190803590602001906401000000008111156101a557600080fd5b8201836020820111156101b757600080fd5b803590602001918460018302840111640100000000831117156101d957600080fd5b91908080601f016020809104026020016040519081016040528093929190818152602001838380828437600081840152601f19601f8201169050808301925050505050505091929192905050506108f2565b005b6102c4600480360360e081101561024357600080fd5b81019080803573ffffffffffffffffffffffffffffffffffffffff16906020019092919080359060200190929190803573ffffffffffffffffffffffffffffffffffffffff16906020019092919080359060200190929190803560ff1690602001909291908035906020019092919080359060200190929190505050610a12565b005b6102ce610e2e565b005b610333600480360360808110156102e657600080fd5b81019080803573ffffffffffffffffffffffffffffffffffffffff169060200190929190803560ff1690602001909291908035906020019092919080359060200190929190505050611068565b005b610439600480360360c081101561034b57600080fd5b81019080803573ffffffffffffffffffffffffffffffffffffffff169060200190929190803590602001909291908035906020019064010000000081111561039257600080fd5b8201836020820111156103a457600080fd5b803590602001918460018302840111640100000000831117156103c657600080fd5b91908080601f016020809104026020016040519081016040528093929190818152602001838380828437600081840152601f19601f820116905080830192505050505050509192919290803560ff169060200190929190803590602001909291908035906020019092919050505061142d565b005b6104c8600480360360c081101561045157600080fd5b81019080803573ffffffffffffffffffffffffffffffffffffffff16906020019092919080359060200190929190803573ffffffffffffffffffffffffffffffffffffffff169060200190929190803560ff169060200190929190803590602001909291908035906020019092919050505061185b565b005b6105d8600480360360e08110156104e057600080fd5b81019080803573ffffffffffffffffffffffffffffffffffffffff169060200190929190803590602001909291908035906020019064010000000081111561052757600080fd5b82018360208201111561053957600080fd5b8035906020019184600183028401116401000000008311171561055b57600080fd5b91908080601f016020809104026020016040519081016040528093929190818152602001838380828437600081840152601f19601f82011690508083019250505050505050919291929080359060200190929190803560ff1690602001909291908035906020019092919080359060200190929190505050611c6d565b005b61065d600480360360a08110156105f057600080fd5b81019080803573ffffffffffffffffffffffffffffffffffffffff169060200190929190803573ffffffffffffffffffffffffffffffffffffffff169060200190929190803560ff16906020019092919080359060200190929190803590602001909291905050506120a5565b005b6106a16004803603602081101561067557600080fd5b81019080803573ffffffffffffffffffffffffffffffffffffffff1690602001909291905050506124ad565b005b6106f9600480360360608110156106b957600080fd5b8101908080359060200190929190803573ffffffffffffffffffffffffffffffffffffffff169060200190929190803590602001909291905050506125cb565b005b61075e6004803603608081101561071157600080fd5b81019080803573ffffffffffffffffffffffffffffffffffffffff169060200190929190803560ff16906020019092919080359060200190929190803590602001909291905050506126ed565b005b61078c6004803603602081101561077657600080fd5b8101908080359060200190929190505050612a41565b6040518082815260200191505060405180910390f35b61086f600480360360608110156107b857600080fd5b8101908080359060200190929190803590602001906401000000008111156107df57600080fd5b8201836020820111156107f157600080fd5b8035906020019184600183028401116401000000008311171561081357600080fd5b91908080601f016020809104026020016040519081016040528093929190818152602001838380828437600081840152601f19601f82011690508083019250505050505050919291929080359060200190929190505050612a59565b005b6108bd6004803603604081101561088757600080fd5b8101908080359060200190929190803573ffffffffffffffffffffffffffffffffffffffff169060200190929190505050612b7b565b005b60026020528060005260406000206000915054906101000a900473ffffffffffffffffffffffffffffffffffffffff1681565b60008060009054906101000a900473ffffffffffffffffffffffffffffffffffffffff1673ffffffffffffffffffffffffffffffffffffffff166305c62c2f336040518263ffffffff1660e01b8152600401808273ffffffffffffffffffffffffffffffffffffffff1673ffffffffffffffffffffffffffffffffffffffff16815260200191505060206040518083038186803b15801561099257600080fd5b505afa1580156109a6573d6000803e3d6000fd5b505050506040513d60208110156109bc57600080fd5b81019080805190602001909291905050509050610a0d6002600083815260200190815260200160002060009054906101000a900473ffffffffffffffffffffffffffffffffffffffff168484612c9b565b505050565b60008060009054906101000a900473ffffffffffffffffffffffffffffffffffffffff1673ffffffffffffffffffffffffffffffffffffffff166305c62c2f896040518263ffffffff1660e01b8152600401808273ffffffffffffffffffffffffffffffffffffffff1673ffffffffffffffffffffffffffffffffffffffff16815260200191505060206040518083038186803b158015610ab257600080fd5b505afa158015610ac6573d6000803e3d6000fd5b505050506040513d6020811015610adc57600080fd5b810190808051906020019092919050505090506000809054906101000a900473ffffffffffffffffffffffffffffffffffffffff1673ffffffffffffffffffffffffffffffffffffffff16638677ebe889601960f81b600060f81b308c8c8c600360008b81526020019081526020016000205460405160200180887effffffffffffffffffffffffffffffffffffffffffffffffffffffffffffff19167effffffffffffffffffffffffffffffffffffffffffffffffffffffffffffff19168152600101877effffffffffffffffffffffffffffffffffffffffffffffffffffffffffffff19167effffffffffffffffffffffffffffffffffffffffffffffffffffffffffffff191681526001018673ffffffffffffffffffffffffffffffffffffffff1673ffffffffffffffffffffffffffffffffffffffff1660601b8152601401807f61646444656c656761746544656c6567617465640000000000000000000000008152506014018581526020018473ffffffffffffffffffffffffffffffffffffffff1673ffffffffffffffffffffffffffffffffffffffff1660601b8152601401838152602001828152602001975050505050505050604051602081830303815290604052805190602001208787876040518663ffffffff1660e01b8152600401808673ffffffffffffffffffffffffffffffffffffffff1673ffffffffffffffffffffffffffffffffffffffff1681526020018581526020018460ff1660ff1681526020018381526020018281526020019550505050505060206040518083038186803b158015610d3257600080fd5b505afa158015610d46573d6000803e3d6000fd5b505050506040513d6020811015610d5c57600080fd5b8101908080519060200190929190505050610dc2576040517f08c379a00000000000000000000000000000000000000000000000000000000081526004018080602001828103825260298152602001806134966029913960400191505060405180910390fd5b6003600082815260200190815260200160002060008154809291906001019190505550610e246002600083815260200190815260200160002060009054906101000a900473ffffffffffffffffffffffffffffffffffffffff16888888612e53565b5050505050505050565b60008060009054906101000a900473ffffffffffffffffffffffffffffffffffffffff1673ffffffffffffffffffffffffffffffffffffffff166305c62c2f336040518263ffffffff1660e01b8152600401808273ffffffffffffffffffffffffffffffffffffffff1673ffffffffffffffffffffffffffffffffffffffff16815260200191505060206040518083038186803b158015610ece57600080fd5b505afa158015610ee2573d6000803e3d6000fd5b505050506040513d6020811015610ef857600080fd5b81019080805190602001909291905050509050600073ffffffffffffffffffffffffffffffffffffffff166002600083815260200190815260200160002060009054906101000a900473ffffffffffffffffffffffffffffffffffffffff1673ffffffffffffffffffffffffffffffffffffffff161415610fc4576040517f08c379a00000000000000000000000000000000000000000000000000000000081526004018080602001828103825260218152602001806134bf6021913960400191505060405180910390fd5b60006002600083815260200190815260200160002060006101000a81548173ffffffffffffffffffffffffffffffffffffffff021916908373ffffffffffffffffffffffffffffffffffffffff1602179055503373ffffffffffffffffffffffffffffffffffffffff167ff5b83915251053d4548a496c24058f7404d3f8a98087bbd4dee37a1a997b5d19826040518082815260200191505060405180910390a250565b60008060009054906101000a900473ffffffffffffffffffffffffffffffffffffffff1673ffffffffffffffffffffffffffffffffffffffff166305c62c2f336040518263ffffffff1660e01b8152600401808273ffffffffffffffffffffffffffffffffffffffff1673ffffffffffffffffffffffffffffffffffffffff16815260200191505060206040518083038186803b15801561110857600080fd5b505afa15801561111c573d6000803e3d6000fd5b505050506040513d602081101561113257600080fd5b81019080805190602001909291905050509050600073ffffffffffffffffffffffffffffffffffffffff166002600083815260200190815260200160002060009054906101000a900473ffffffffffffffffffffffffffffffffffffffff1673ffffffffffffffffffffffffffffffffffffffff1614156111fe576040517f08c379a00000000000000000000000000000000000000000000000000000000081526004018080602001828103825260218152602001806134bf6021913960400191505060405180910390fd5b60006002600083815260200190815260200160002060009054906101000a900473ffffffffffffffffffffffffffffffffffffffff169050600160009054906101000a900473ffffffffffffffffffffffffffffffffffffffff1673ffffffffffffffffffffffffffffffffffffffff1663240cf1fa87878787306040518663ffffffff1660e01b8152600401808673ffffffffffffffffffffffffffffffffffffffff1673ffffffffffffffffffffffffffffffffffffffff1681526020018560ff1660ff1681526020018481526020018381526020018273ffffffffffffffffffffffffffffffffffffffff1673ffffffffffffffffffffffffffffffffffffffff16815260200195505050505050600060405180830381600087803b15801561132957600080fd5b505af115801561133d573d6000803e3d6000fd5b50505050856002600084815260200190815260200160002060006101000a81548173ffffffffffffffffffffffffffffffffffffffff021916908373ffffffffffffffffffffffffffffffffffffffff1602179055508073ffffffffffffffffffffffffffffffffffffffff16823373ffffffffffffffffffffffffffffffffffffffff167fb9842f58d3add4b3111f01090178c302e2a9fde3c76d8f640ef0d70e179d55ec89604051808273ffffffffffffffffffffffffffffffffffffffff1673ffffffffffffffffffffffffffffffffffffffff16815260200191505060405180910390a4505050505050565b60008060009054906101000a900473ffffffffffffffffffffffffffffffffffffffff1673ffffffffffffffffffffffffffffffffffffffff166305c62c2f886040518263ffffffff1660e01b8152600401808273ffffffffffffffffffffffffffffffffffffffff1673ffffffffffffffffffffffffffffffffffffffff16815260200191505060206040518083038186803b1580156114cd57600080fd5b505afa1580156114e1573d6000803e3d6000fd5b505050506040513d60208110156114f757600080fd5b810190808051906020019092919050505090506000809054906101000a900473ffffffffffffffffffffffffffffffffffffffff1673ffffffffffffffffffffffffffffffffffffffff16638677ebe888601960f81b600060f81b308b8b600360008a81526020019081526020016000205460405160200180877effffffffffffffffffffffffffffffffffffffffffffffffffffffffffffff19167effffffffffffffffffffffffffffffffffffffffffffffffffffffffffffff19168152600101867effffffffffffffffffffffffffffffffffffffffffffffffffffffffffffff19167effffffffffffffffffffffffffffffffffffffffffffffffffffffffffffff191681526001018573ffffffffffffffffffffffffffffffffffffffff1673ffffffffffffffffffffffffffffffffffffffff1660601b8152601401807f7265766f6b6541747472696275746544656c656761746564000000000000000081525060180184815260200183805190602001908083835b602083106116965780518252602082019150602081019050602083039250611673565b6001836020036101000a0380198251168184511680821785525050505050509050018281526020019650505050505050604051602081830303815290604052805190602001208787876040518663ffffffff1660e01b8152600401808673ffffffffffffffffffffffffffffffffffffffff1673ffffffffffffffffffffffffffffffffffffffff1681526020018581526020018460ff1660ff1681526020018381526020018281526020019550505050505060206040518083038186803b15801561176157600080fd5b505afa158015611775573d6000803e3d6000fd5b505050506040513d602081101561178b57600080fd5b81019080805190602001909291905050506117f1576040517f08c379a00000000000000000000000000000000000000000000000000000000081526004018080602001828103825260298152602001806134966029913960400191505060405180910390fd5b60036000828152602001908152602001600020600081548092919060010191905055506118526002600083815260200190815260200160002060009054906101000a900473ffffffffffffffffffffffffffffffffffffffff168787612c9b565b50505050505050565b60008060009054906101000a900473ffffffffffffffffffffffffffffffffffffffff1673ffffffffffffffffffffffffffffffffffffffff166305c62c2f886040518263ffffffff1660e01b8152600401808273ffffffffffffffffffffffffffffffffffffffff1673ffffffffffffffffffffffffffffffffffffffff16815260200191505060206040518083038186803b1580156118fb57600080fd5b505afa15801561190f573d6000803e3d6000fd5b505050506040513d602081101561192557600080fd5b810190808051906020019092919050505090506000809054906101000a900473ffffffffffffffffffffffffffffffffffffffff1673ffffffffffffffffffffffffffffffffffffffff16638677ebe888601960f81b600060f81b308b8b600360008a81526020019081526020016000205460405160200180877effffffffffffffffffffffffffffffffffffffffffffffffffffffffffffff19167effffffffffffffffffffffffffffffffffffffffffffffffffffffffffffff19168152600101867effffffffffffffffffffffffffffffffffffffffffffffffffffffffffffff19167effffffffffffffffffffffffffffffffffffffffffffffffffffffffffffff191681526001018573ffffffffffffffffffffffffffffffffffffffff1673ffffffffffffffffffffffffffffffffffffffff1660601b8152601401807f7265766f6b6544656c656761746544656c6567617465640000000000000000008152506017018481526020018373ffffffffffffffffffffffffffffffffffffffff1673ffffffffffffffffffffffffffffffffffffffff1660601b81526014018281526020019650505050505050604051602081830303815290604052805190602001208787876040518663ffffffff1660e01b8152600401808673ffffffffffffffffffffffffffffffffffffffff1673ffffffffffffffffffffffffffffffffffffffff1681526020018581526020018460ff1660ff1681526020018381526020018281526020019550505050505060206040518083038186803b158015611b7357600080fd5b505afa158015611b87573d6000803e3d6000fd5b505050506040513d6020811015611b9d57600080fd5b8101908080519060200190929190505050611c03576040517f08c379a00000000000000000000000000000000000000000000000000000000081526004018080602001828103825260298152602001806134966029913960400191505060405180910390fd5b6003600082815260200190815260200160002060008154809291906001019190505550611c646002600083815260200190815260200160002060009054906101000a900473ffffffffffffffffffffffffffffffffffffffff168787612fdc565b50505050505050565b60008060009054906101000a900473ffffffffffffffffffffffffffffffffffffffff1673ffffffffffffffffffffffffffffffffffffffff166305c62c2f896040518263ffffffff1660e01b8152600401808273ffffffffffffffffffffffffffffffffffffffff1673ffffffffffffffffffffffffffffffffffffffff16815260200191505060206040518083038186803b158015611d0d57600080fd5b505afa158015611d21573d6000803e3d6000fd5b505050506040513d6020811015611d3757600080fd5b810190808051906020019092919050505090506000809054906101000a900473ffffffffffffffffffffffffffffffffffffffff1673ffffffffffffffffffffffffffffffffffffffff16638677ebe889601960f81b600060f81b308c8c8c600360008b81526020019081526020016000205460405160200180887effffffffffffffffffffffffffffffffffffffffffffffffffffffffffffff19167effffffffffffffffffffffffffffffffffffffffffffffffffffffffffffff19168152600101877effffffffffffffffffffffffffffffffffffffffffffffffffffffffffffff19167effffffffffffffffffffffffffffffffffffffffffffffffffffffffffffff191681526001018673ffffffffffffffffffffffffffffffffffffffff1673ffffffffffffffffffffffffffffffffffffffff1660601b8152601401807f73657441747472696275746544656c656761746564000000000000000000000081525060150185815260200184805190602001908083835b60208310611ed75780518252602082019150602081019050602083039250611eb4565b6001836020036101000a038019825116818451168082178552505050505050905001838152602001828152602001975050505050505050604051602081830303815290604052805190602001208787876040518663ffffffff1660e01b8152600401808673ffffffffffffffffffffffffffffffffffffffff1673ffffffffffffffffffffffffffffffffffffffff1681526020018581526020018460ff1660ff1681526020018381526020018281526020019550505050505060206040518083038186803b158015611fa957600080fd5b505afa158015611fbd573d6000803e3d6000fd5b505050506040513d6020811015611fd357600080fd5b8101908080519060200190929190505050612039576040517f08c379a00000000000000000000000000000000000000000000000000000000081526004018080602001828103825260298152602001806134966029913960400191505060405180910390fd5b600360008281526020019081526020016000206000815480929190600101919050555061209b6002600083815260200190815260200160002060009054906101000a900473ffffffffffffffffffffffffffffffffffffffff1688888861315c565b5050505050505050565b60008060009054906101000a900473ffffffffffffffffffffffffffffffffffffffff1673ffffffffffffffffffffffffffffffffffffffff166305c62c2f876040518263ffffffff1660e01b8152600401808273ffffffffffffffffffffffffffffffffffffffff1673ffffffffffffffffffffffffffffffffffffffff16815260200191505060206040518083038186803b15801561214557600080fd5b505afa158015612159573d6000803e3d6000fd5b505050506040513d602081101561216f57600080fd5b810190808051906020019092919050505090506000809054906101000a900473ffffffffffffffffffffffffffffffffffffffff1673ffffffffffffffffffffffffffffffffffffffff16638677ebe887601960f81b600060f81b308a600360008981526020019081526020016000205460405160200180867effffffffffffffffffffffffffffffffffffffffffffffffffffffffffffff19167effffffffffffffffffffffffffffffffffffffffffffffffffffffffffffff19168152600101857effffffffffffffffffffffffffffffffffffffffffffffffffffffffffffff19167effffffffffffffffffffffffffffffffffffffffffffffffffffffffffffff191681526001018473ffffffffffffffffffffffffffffffffffffffff1673ffffffffffffffffffffffffffffffffffffffff1660601b8152601401807f6368616e67654f776e657244656c6567617465640000000000000000000000008152506014018373ffffffffffffffffffffffffffffffffffffffff1673ffffffffffffffffffffffffffffffffffffffff1660601b815260140182815260200195505050505050604051602081830303815290604052805190602001208787876040518663ffffffff1660e01b8152600401808673ffffffffffffffffffffffffffffffffffffffff1673ffffffffffffffffffffffffffffffffffffffff1681526020018581526020018460ff1660ff1681526020018381526020018281526020019550505050505060206040518083038186803b1580156123b557600080fd5b505afa1580156123c9573d6000803e3d6000fd5b505050506040513d60208110156123df57600080fd5b8101908080519060200190929190505050612445576040517f08c379a00000000000000000000000000000000000000000000000000000000081526004018080602001828103825260298152602001806134966029913960400191505060405180910390fd5b60036000828152602001908152602001600020600081548092919060010191905055506124a56002600083815260200190815260200160002060009054906101000a900473ffffffffffffffffffffffffffffffffffffffff168661331e565b505050505050565b60008060009054906101000a900473ffffffffffffffffffffffffffffffffffffffff1673ffffffffffffffffffffffffffffffffffffffff166305c62c2f336040518263ffffffff1660e01b8152600401808273ffffffffffffffffffffffffffffffffffffffff1673ffffffffffffffffffffffffffffffffffffffff16815260200191505060206040518083038186803b15801561254d57600080fd5b505afa158015612561573d6000803e3d6000fd5b505050506040513d602081101561257757600080fd5b810190808051906020019092919050505090506125c76002600083815260200190815260200160002060009054906101000a900473ffffffffffffffffffffffffffffffffffffffff168361331e565b5050565b60008060009054906101000a900473ffffffffffffffffffffffffffffffffffffffff1673ffffffffffffffffffffffffffffffffffffffff166305c62c2f336040518263ffffffff1660e01b8152600401808273ffffffffffffffffffffffffffffffffffffffff1673ffffffffffffffffffffffffffffffffffffffff16815260200191505060206040518083038186803b15801561266b57600080fd5b505afa15801561267f573d6000803e3d6000fd5b505050506040513d602081101561269557600080fd5b810190808051906020019092919050505090506126e76002600083815260200190815260200160002060009054906101000a900473ffffffffffffffffffffffffffffffffffffffff16858585612e53565b50505050565b60008060009054906101000a900473ffffffffffffffffffffffffffffffffffffffff1673ffffffffffffffffffffffffffffffffffffffff166305c62c2f336040518263ffffffff1660e01b8152600401808273ffffffffffffffffffffffffffffffffffffffff1673ffffffffffffffffffffffffffffffffffffffff16815260200191505060206040518083038186803b15801561278d57600080fd5b505afa1580156127a1573d6000803e3d6000fd5b505050506040513d60208110156127b757600080fd5b81019080805190602001909291905050509050600073ffffffffffffffffffffffffffffffffffffffff166002600083815260200190815260200160002060009054906101000a900473ffffffffffffffffffffffffffffffffffffffff1673ffffffffffffffffffffffffffffffffffffffff1614612882576040517f08c379a00000000000000000000000000000000000000000000000000000000081526004018080602001828103825260258152602001806134e06025913960400191505060405180910390fd5b600160009054906101000a900473ffffffffffffffffffffffffffffffffffffffff1673ffffffffffffffffffffffffffffffffffffffff1663240cf1fa86868686306040518663ffffffff1660e01b8152600401808673ffffffffffffffffffffffffffffffffffffffff1673ffffffffffffffffffffffffffffffffffffffff1681526020018560ff1660ff1681526020018481526020018381526020018273ffffffffffffffffffffffffffffffffffffffff1673ffffffffffffffffffffffffffffffffffffffff16815260200195505050505050600060405180830381600087803b15801561297557600080fd5b505af1158015612989573d6000803e3d6000fd5b50505050846002600083815260200190815260200160002060006101000a81548173ffffffffffffffffffffffffffffffffffffffff021916908373ffffffffffffffffffffffffffffffffffffffff1602179055508473ffffffffffffffffffffffffffffffffffffffff16813373ffffffffffffffffffffffffffffffffffffffff167f04200d59e6448cc5a97e2e089e6b35bac8a336b173d770c815d6f3c5c06f300460405160405180910390a45050505050565b60036020528060005260406000206000915090505481565b60008060009054906101000a900473ffffffffffffffffffffffffffffffffffffffff1673ffffffffffffffffffffffffffffffffffffffff166305c62c2f336040518263ffffffff1660e01b8152600401808273ffffffffffffffffffffffffffffffffffffffff1673ffffffffffffffffffffffffffffffffffffffff16815260200191505060206040518083038186803b158015612af957600080fd5b505afa158015612b0d573d6000803e3d6000fd5b505050506040513d6020811015612b2357600080fd5b81019080805190602001909291905050509050612b756002600083815260200190815260200160002060009054906101000a900473ffffffffffffffffffffffffffffffffffffffff1685858561315c565b50505050565b60008060009054906101000a900473ffffffffffffffffffffffffffffffffffffffff1673ffffffffffffffffffffffffffffffffffffffff166305c62c2f336040518263ffffffff1660e01b8152600401808273ffffffffffffffffffffffffffffffffffffffff1673ffffffffffffffffffffffffffffffffffffffff16815260200191505060206040518083038186803b158015612c1b57600080fd5b505afa158015612c2f573d6000803e3d6000fd5b505050506040513d6020811015612c4557600080fd5b81019080805190602001909291905050509050612c966002600083815260200190815260200160002060009054906101000a900473ffffffffffffffffffffffffffffffffffffffff168484612fdc565b505050565b600073ffffffffffffffffffffffffffffffffffffffff168373ffffffffffffffffffffffffffffffffffffffff161415612d21576040517f08c379a00000000000000000000000000000000000000000000000000000000081526004018080602001828103825260218152602001806134bf6021913960400191505060405180910390fd5b600160009054906101000a900473ffffffffffffffffffffffffffffffffffffffff1673ffffffffffffffffffffffffffffffffffffffff1662c023da8484846040518463ffffffff1660e01b8152600401808473ffffffffffffffffffffffffffffffffffffffff1673ffffffffffffffffffffffffffffffffffffffff16815260200183815260200180602001828103825283818151815260200191508051906020019080838360005b83811015612de8578082015181840152602081019050612dcd565b50505050905090810190601f168015612e155780820380516001836020036101000a031916815260200191505b50945050505050600060405180830381600087803b158015612e3657600080fd5b505af1158015612e4a573d6000803e3d6000fd5b50505050505050565b600073ffffffffffffffffffffffffffffffffffffffff168473ffffffffffffffffffffffffffffffffffffffff161415612ed9576040517f08c379a00000000000000000000000000000000000000000000000000000000081526004018080602001828103825260218152602001806134bf6021913960400191505060405180910390fd5b600160009054906101000a900473ffffffffffffffffffffffffffffffffffffffff1673ffffffffffffffffffffffffffffffffffffffff1663a7068d66858585856040518563ffffffff1660e01b8152600401808573ffffffffffffffffffffffffffffffffffffffff1673ffffffffffffffffffffffffffffffffffffffff1681526020018481526020018373ffffffffffffffffffffffffffffffffffffffff1673ffffffffffffffffffffffffffffffffffffffff168152602001828152602001945050505050600060405180830381600087803b158015612fbe57600080fd5b505af1158015612fd2573d6000803e3d6000fd5b5050505050505050565b600073ffffffffffffffffffffffffffffffffffffffff168373ffffffffffffffffffffffffffffffffffffffff161415613062576040517f08c379a00000000000000000000000000000000000000000000000000000000081526004018080602001828103825260218152602001806134bf6021913960400191505060405180910390fd5b600160009054906101000a900473ffffffffffffffffffffffffffffffffffffffff1673ffffffffffffffffffffffffffffffffffffffff166380b29f7c8484846040518463ffffffff1660e01b8152600401808473ffffffffffffffffffffffffffffffffffffffff1673ffffffffffffffffffffffffffffffffffffffff1681526020018381526020018273ffffffffffffffffffffffffffffffffffffffff1673ffffffffffffffffffffffffffffffffffffffff1681526020019350505050600060405180830381600087803b15801561313f57600080fd5b505af1158015613153573d6000803e3d6000fd5b50505050505050565b600073ffffffffffffffffffffffffffffffffffffffff168473ffffffffffffffffffffffffffffffffffffffff1614156131e2576040517f08c379a00000000000000000000000000000000000000000000000000000000081526004018080602001828103825260218152602001806134bf6021913960400191505060405180910390fd5b600160009054906101000a900473ffffffffffffffffffffffffffffffffffffffff1673ffffffffffffffffffffffffffffffffffffffff16637ad4b0a4858585856040518563ffffffff1660e01b8152600401808573ffffffffffffffffffffffffffffffffffffffff1673ffffffffffffffffffffffffffffffffffffffff16815260200184815260200180602001838152602001828103825284818151815260200191508051906020019080838360005b838110156132b1578082015181840152602081019050613296565b50505050905090810190601f1680156132de5780820380516001836020036101000a031916815260200191505b5095505050505050600060405180830381600087803b15801561330057600080fd5b505af1158015613314573d6000803e3d6000fd5b5050505050505050565b600073ffffffffffffffffffffffffffffffffffffffff168273ffffffffffffffffffffffffffffffffffffffff1614156133a4576040517f08c379a00000000000000000000000000000000000000000000000000000000081526004018080602001828103825260218152602001806134bf6021913960400191505060405180910390fd5b600160009054906101000a900473ffffffffffffffffffffffffffffffffffffffff1673ffffffffffffffffffffffffffffffffffffffff1663f00d4b5d83836040518363ffffffff1660e01b8152600401808373ffffffffffffffffffffffffffffffffffffffff1673ffffffffffffffffffffffffffffffffffffffff1681526020018273ffffffffffffffffffffffffffffffffffffffff1673ffffffffffffffffffffffffffffffffffffffff16815260200192505050600060405180830381600087803b15801561347957600080fd5b505af115801561348d573d6000803e3d6000fd5b50505050505056fe46756e6374696f6e20657865637574696f6e20697320696e636f72726563746c79207369676e65642e546869732045494e20686173206e6f74206265656e20696e697469616c697a6564546869732045494e2068617320616c7265616479206265656e20696e697469616c697a6564a165627a7a72305820e4648b4afa6fee000f52655d3d92e410dcd54aff7052cbcded774ece33c426510029",
  "source": "pragma solidity ^0.5.0;\n\nimport \"../interfaces/IdentityRegistryInterface.sol\";\nimport \"./EthereumDIDRegistryInterface.sol\";\n\ncontract ERC1056 {\n    IdentityRegistryInterface identityRegistry;\n    EthereumDIDRegistryInterface ethereumDIDRegistry;\n\n    constructor (address identityRegistryAddress, address ethereumDIDRegistryAddress) public {\n        identityRegistry = IdentityRegistryInterface(identityRegistryAddress);\n        ethereumDIDRegistry = EthereumDIDRegistryInterface(ethereumDIDRegistryAddress);\n    }\n\n    mapping(uint => address) public einToDID;\n    mapping(uint => uint) public actionNonce;\n\n    function initialize(address identity, uint8 v, bytes32 r, bytes32 s) public {\n        uint ein = identityRegistry.getEIN(msg.sender);\n        require(einToDID[ein] == address(0), \"This EIN has already been initialized\");\n        ethereumDIDRegistry.changeOwnerSigned(identity, v, r, s, address(this));\n        einToDID[ein] = identity;\n        emit IdentityInitialized(msg.sender, ein, identity);\n    }\n\n    function clear() public {\n        uint ein = identityRegistry.getEIN(msg.sender);\n        require(einToDID[ein] != address(0), \"This EIN has not been initialized\");\n        einToDID[ein] = address(0);\n        emit IdentityCleared(msg.sender, ein);\n    }\n\n    function reset(address newIdentity, uint8 v, bytes32 r, bytes32 s) public {\n        uint ein = identityRegistry.getEIN(msg.sender);\n        require(einToDID[ein] != address(0), \"This EIN has not been initialized\");\n        address oldIdentity = einToDID[ein];\n        ethereumDIDRegistry.changeOwnerSigned(newIdentity, v, r, s, address(this));\n        einToDID[ein] = newIdentity;\n        emit IdentityReseted(msg.sender, ein, oldIdentity, newIdentity);\n    }\n\n    function changeOwner(address newOwner) public {\n        uint ein = identityRegistry.getEIN(msg.sender);\n        _changeOwner(einToDID[ein], newOwner);\n    }\n\n    function changeOwnerDelegated(address approvingAddress, address newOwner, uint8 v, bytes32 r, bytes32 s) public {\n        uint ein = identityRegistry.getEIN(approvingAddress);\n        require(\n            identityRegistry.isSigned(\n                approvingAddress,\n                keccak256(\n                    abi.encodePacked(\n                        byte(0x19), byte(0), address(this), \"changeOwnerDelegated\", newOwner, actionNonce[ein]\n                    )\n                ),\n                v, r, s\n            ),\n            \"Function execution is incorrectly signed.\"\n        );\n        actionNonce[ein]++;\n        _changeOwner(einToDID[ein], newOwner);\n    }\n\n    function _changeOwner(address _did, address _newOwner) internal {\n        require(_did != address(0), \"This EIN has not been initialized\");\n        ethereumDIDRegistry.changeOwner(_did, _newOwner);\n    }\n\n    function addDelegate(bytes32 delegateType, address delegate, uint validity) public {\n        uint ein = identityRegistry.getEIN(msg.sender);\n        _addDelegate(einToDID[ein], delegateType, delegate, validity);\n    }\n\n    function addDelegateDelegated(\n        address approvingAddress, bytes32 delegateType, address delegate, uint validity, uint8 v, bytes32 r, bytes32 s\n    )\n        public\n    {\n        uint ein = identityRegistry.getEIN(approvingAddress);\n        require(\n            identityRegistry.isSigned(\n                approvingAddress,\n                keccak256(\n                    abi.encodePacked(\n                        byte(0x19), byte(0), address(this),\n                        \"addDelegateDelegated\", delegateType, delegate, validity, actionNonce[ein]\n                    )\n                ),\n                v, r, s\n            ),\n            \"Function execution is incorrectly signed.\"\n        );\n        actionNonce[ein]++;\n        _addDelegate(einToDID[ein], delegateType, delegate, validity);\n    }\n\n    function _addDelegate(address _did, bytes32 _delegateType, address _delegate, uint _validity) internal {\n        require(_did != address(0), \"This EIN has not been initialized\");\n        ethereumDIDRegistry.addDelegate(_did, _delegateType, _delegate, _validity);\n    }\n\n    function revokeDelegate(bytes32 delegateType, address delegate) public {\n        uint ein = identityRegistry.getEIN(msg.sender);\n        _revokeDelegate(einToDID[ein], delegateType, delegate);\n    }\n\n    function revokeDelegateDelegated(\n        address approvingAddress, bytes32 delegateType, address delegate, uint8 v, bytes32 r, bytes32 s\n    )\n        public\n    {\n        uint ein = identityRegistry.getEIN(approvingAddress);\n        require(\n            identityRegistry.isSigned(\n                approvingAddress,\n                keccak256(\n                    abi.encodePacked(\n                        byte(0x19), byte(0), address(this),\n                        \"revokeDelegateDelegated\", delegateType, delegate, actionNonce[ein]\n                    )\n                ),\n                v, r, s\n            ),\n            \"Function execution is incorrectly signed.\"\n        );\n        actionNonce[ein]++;\n        _revokeDelegate(einToDID[ein], delegateType, delegate);\n    }\n\n    function _revokeDelegate(address _did, bytes32 _delegateType, address _delegate) internal {\n        require(_did != address(0), \"This EIN has not been initialized\");\n        ethereumDIDRegistry.revokeDelegate(_did, _delegateType, _delegate);\n    }\n\n    function setAttribute(bytes32 name, bytes memory value, uint validity) public {\n        uint ein = identityRegistry.getEIN(msg.sender);\n        _setAttribute(einToDID[ein], name, value, validity);\n    }\n\n    function setAttributeDelegated(\n        address approvingAddress, bytes32 name, bytes memory value, uint validity, uint8 v, bytes32 r, bytes32 s\n    )\n        public\n    {\n        uint ein = identityRegistry.getEIN(approvingAddress);\n        require(\n            identityRegistry.isSigned(\n                approvingAddress,\n                keccak256(\n                    abi.encodePacked(\n                        byte(0x19), byte(0), address(this),\n                        \"setAttributeDelegated\", name, value, validity, actionNonce[ein]\n                    )\n                ),\n                v, r, s\n            ),\n            \"Function execution is incorrectly signed.\"\n        );\n        actionNonce[ein]++;\n        _setAttribute(einToDID[ein], name, value, validity);\n    }\n\n    function _setAttribute(address _did, bytes32 _name, bytes memory _value, uint _validity) internal {\n        require(_did != address(0), \"This EIN has not been initialized\");\n        ethereumDIDRegistry.setAttribute(_did, _name, _value, _validity);\n    }\n\n    function revokeAttribute(bytes32 name, bytes memory value) public {\n        uint ein = identityRegistry.getEIN(msg.sender);\n        _revokeAttribute(einToDID[ein], name, value);\n    }\n\n    function revokeAttributeDelegated(\n        address approvingAddress, bytes32 name, bytes memory value, uint8 v, bytes32 r, bytes32 s\n    )\n        public\n    {\n        uint ein = identityRegistry.getEIN(approvingAddress);\n        require(\n            identityRegistry.isSigned(\n                approvingAddress,\n                keccak256(\n                    abi.encodePacked(\n                        byte(0x19), byte(0), address(this),\n                        \"revokeAttributeDelegated\", name, value, actionNonce[ein]\n                    )\n                ),\n                v, r, s\n            ),\n            \"Function execution is incorrectly signed.\"\n        );\n        actionNonce[ein]++;\n        _revokeAttribute(einToDID[ein], name, value);\n    }\n\n    function _revokeAttribute(address _did, bytes32 _name, bytes memory _value) internal {\n        require(_did != address(0), \"This EIN has not been initialized\");\n        ethereumDIDRegistry.revokeAttribute(_did, _name, _value);\n    }\n\n    event IdentityInitialized(address indexed initiator, uint indexed ein, address indexed indeitity);\n\n    event IdentityCleared(address indexed initiator, uint ein);\n\n    event IdentityReseted(address indexed initiator, uint indexed ein, address indexed oldIdentity, address newIndeitity);\n}",
  "sourcePath": "/Users/user/idhub/did-plus-contract/contracts/Resolver/ERC1056.sol",
  "compiler": {
    "name": "solc",
    "version": "0.5.8+commit.23d335f2.Emscripten.clang"
  },
  "schemaVersion": "3.0.11",
  "updatedAt": "2019-08-16T02:35:55.314Z",
  "devdoc": {
    "methods": {}
  },
  "userdoc": {
    "methods": {}
  }
}