{
  "contractName": "ERC1056",
  "abi": [
    {
      "constant": true,
      "inputs": [
        {
          "name": "",
          "type": "uint256"
        }
      ],
      "name": "einToDID",
      "outputs": [
        {
          "name": "",
          "type": "address"
        }
      ],
      "payable": false,
      "stateMutability": "view",
      "type": "function"
    },
    {
      "constant": true,
      "inputs": [
        {
          "name": "",
          "type": "uint256"
        }
      ],
      "name": "actionNonce",
      "outputs": [
        {
          "name": "",
          "type": "uint256"
        }
      ],
      "payable": false,
      "stateMutability": "view",
      "type": "function"
    },
    {
      "inputs": [
        {
          "name": "identityRegistryAddress",
          "type": "address"
        },
        {
          "name": "ethereumDIDRegistryAddress",
          "type": "address"
        }
      ],
      "payable": false,
      "stateMutability": "nonpayable",
      "type": "constructor"
    },
    {
      "anonymous": false,
      "inputs": [
        {
          "indexed": true,
          "name": "initiator",
          "type": "address"
        },
        {
          "indexed": true,
          "name": "ein",
          "type": "uint256"
        },
        {
          "indexed": true,
          "name": "indeitity",
          "type": "address"
        }
      ],
      "name": "IdentityInitialized",
      "type": "event"
    },
    {
      "anonymous": false,
      "inputs": [
        {
          "indexed": true,
          "name": "initiator",
          "type": "address"
        },
        {
          "indexed": false,
          "name": "ein",
          "type": "uint256"
        }
      ],
      "name": "IdentityCleared",
      "type": "event"
    },
    {
      "anonymous": false,
      "inputs": [
        {
          "indexed": true,
          "name": "initiator",
          "type": "address"
        },
        {
          "indexed": true,
          "name": "ein",
          "type": "uint256"
        },
        {
          "indexed": true,
          "name": "oldIdentity",
          "type": "address"
        },
        {
          "indexed": false,
          "name": "newIndeitity",
          "type": "address"
        }
      ],
      "name": "IdentityReseted",
      "type": "event"
    },
    {
      "constant": false,
      "inputs": [
        {
          "name": "identity",
          "type": "address"
        },
        {
          "name": "v",
          "type": "uint8"
        },
        {
          "name": "r",
          "type": "bytes32"
        },
        {
          "name": "s",
          "type": "bytes32"
        }
      ],
      "name": "initialize",
      "outputs": [],
      "payable": false,
      "stateMutability": "nonpayable",
      "type": "function"
    },
    {
      "constant": false,
      "inputs": [],
      "name": "clear",
      "outputs": [],
      "payable": false,
      "stateMutability": "nonpayable",
      "type": "function"
    },
    {
      "constant": false,
      "inputs": [
        {
          "name": "newIdentity",
          "type": "address"
        },
        {
          "name": "v",
          "type": "uint8"
        },
        {
          "name": "r",
          "type": "bytes32"
        },
        {
          "name": "s",
          "type": "bytes32"
        }
      ],
      "name": "reset",
      "outputs": [],
      "payable": false,
      "stateMutability": "nonpayable",
      "type": "function"
    },
    {
      "constant": false,
      "inputs": [
        {
          "name": "newIdentity",
          "type": "address"
        },
        {
          "name": "v",
          "type": "uint8"
        },
        {
          "name": "r",
          "type": "bytes32"
        },
        {
          "name": "s",
          "type": "bytes32"
        }
      ],
      "name": "recovery",
      "outputs": [],
      "payable": false,
      "stateMutability": "nonpayable",
      "type": "function"
    },
    {
      "constant": false,
      "inputs": [
        {
          "name": "newOwner",
          "type": "address"
        }
      ],
      "name": "changeOwner",
      "outputs": [],
      "payable": false,
      "stateMutability": "nonpayable",
      "type": "function"
    },
    {
      "constant": false,
      "inputs": [
        {
          "name": "approvingAddress",
          "type": "address"
        },
        {
          "name": "newOwner",
          "type": "address"
        },
        {
          "name": "v",
          "type": "uint8"
        },
        {
          "name": "r",
          "type": "bytes32"
        },
        {
          "name": "s",
          "type": "bytes32"
        }
      ],
      "name": "changeOwnerDelegated",
      "outputs": [],
      "payable": false,
      "stateMutability": "nonpayable",
      "type": "function"
    },
    {
      "constant": false,
      "inputs": [
        {
          "name": "delegateType",
          "type": "bytes32"
        },
        {
          "name": "delegate",
          "type": "address"
        },
        {
          "name": "validity",
          "type": "uint256"
        }
      ],
      "name": "addDelegate",
      "outputs": [],
      "payable": false,
      "stateMutability": "nonpayable",
      "type": "function"
    },
    {
      "constant": false,
      "inputs": [
        {
          "name": "approvingAddress",
          "type": "address"
        },
        {
          "name": "delegateType",
          "type": "bytes32"
        },
        {
          "name": "delegate",
          "type": "address"
        },
        {
          "name": "validity",
          "type": "uint256"
        },
        {
          "name": "v",
          "type": "uint8"
        },
        {
          "name": "r",
          "type": "bytes32"
        },
        {
          "name": "s",
          "type": "bytes32"
        }
      ],
      "name": "addDelegateDelegated",
      "outputs": [],
      "payable": false,
      "stateMutability": "nonpayable",
      "type": "function"
    },
    {
      "constant": false,
      "inputs": [
        {
          "name": "delegateType",
          "type": "bytes32"
        },
        {
          "name": "delegate",
          "type": "address"
        }
      ],
      "name": "revokeDelegate",
      "outputs": [],
      "payable": false,
      "stateMutability": "nonpayable",
      "type": "function"
    },
    {
      "constant": false,
      "inputs": [
        {
          "name": "approvingAddress",
          "type": "address"
        },
        {
          "name": "delegateType",
          "type": "bytes32"
        },
        {
          "name": "delegate",
          "type": "address"
        },
        {
          "name": "v",
          "type": "uint8"
        },
        {
          "name": "r",
          "type": "bytes32"
        },
        {
          "name": "s",
          "type": "bytes32"
        }
      ],
      "name": "revokeDelegateDelegated",
      "outputs": [],
      "payable": false,
      "stateMutability": "nonpayable",
      "type": "function"
    },
    {
      "constant": false,
      "inputs": [
        {
          "name": "name",
          "type": "bytes32"
        },
        {
          "name": "value",
          "type": "bytes"
        },
        {
          "name": "validity",
          "type": "uint256"
        }
      ],
      "name": "setAttribute",
      "outputs": [],
      "payable": false,
      "stateMutability": "nonpayable",
      "type": "function"
    },
    {
      "constant": false,
      "inputs": [
        {
          "name": "approvingAddress",
          "type": "address"
        },
        {
          "name": "name",
          "type": "bytes32"
        },
        {
          "name": "value",
          "type": "bytes"
        },
        {
          "name": "validity",
          "type": "uint256"
        },
        {
          "name": "v",
          "type": "uint8"
        },
        {
          "name": "r",
          "type": "bytes32"
        },
        {
          "name": "s",
          "type": "bytes32"
        }
      ],
      "name": "setAttributeDelegated",
      "outputs": [],
      "payable": false,
      "stateMutability": "nonpayable",
      "type": "function"
    },
    {
      "constant": false,
      "inputs": [
        {
          "name": "name",
          "type": "bytes32"
        },
        {
          "name": "value",
          "type": "bytes"
        }
      ],
      "name": "revokeAttribute",
      "outputs": [],
      "payable": false,
      "stateMutability": "nonpayable",
      "type": "function"
    },
    {
      "constant": false,
      "inputs": [
        {
          "name": "approvingAddress",
          "type": "address"
        },
        {
          "name": "name",
          "type": "bytes32"
        },
        {
          "name": "value",
          "type": "bytes"
        },
        {
          "name": "v",
          "type": "uint8"
        },
        {
          "name": "r",
          "type": "bytes32"
        },
        {
          "name": "s",
          "type": "bytes32"
        }
      ],
      "name": "revokeAttributeDelegated",
      "outputs": [],
      "payable": false,
      "stateMutability": "nonpayable",
      "type": "function"
    }
  ],
  "bytecode": "0x608060405234801561001057600080fd5b50604051604080613a428339810180604052604081101561003057600080fd5b810190808051906020019092919080519060200190929190505050816000806101000a81548173ffffffffffffffffffffffffffffffffffffffff021916908373ffffffffffffffffffffffffffffffffffffffff16021790555080600160006101000a81548173ffffffffffffffffffffffffffffffffffffffff021916908373ffffffffffffffffffffffffffffffffffffffff1602179055505050613965806100dd6000396000f3fe608060405234801561001057600080fd5b50600436106101005760003560e01c8063a343766a11610097578063d0bcc73c11610066578063d0bcc73c1461076b578063d702b8a5146107d0578063d862913f14610812578063e9e83156146108e157610100565b8063a343766a146105e5578063a6f9dae11461066a578063c7cadeb0146106ae578063ca2825e71461070657610100565b806359d3dee2116100d357806359d3dee2146102db578063699561a9146103405780636e03276514610446578063853c4a58146104d557610100565b806307d52085146101055780632646efe31461017357806345c9959b1461023857806352efea6e146102d1575b600080fd5b6101316004803603602081101561011b57600080fd5b810190808035906020019092919050505061092f565b604051808273ffffffffffffffffffffffffffffffffffffffff1673ffffffffffffffffffffffffffffffffffffffff16815260200191505060405180910390f35b6102366004803603604081101561018957600080fd5b8101908080359060200190929190803590602001906401000000008111156101b057600080fd5b8201836020820111156101c257600080fd5b803590602001918460018302840111640100000000831117156101e457600080fd5b91908080601f016020809104026020016040519081016040528093929190818152602001838380828437600081840152601f19601f820116905080830192505050505050509192919290505050610962565b005b6102cf600480360360e081101561024e57600080fd5b81019080803573ffffffffffffffffffffffffffffffffffffffff16906020019092919080359060200190929190803573ffffffffffffffffffffffffffffffffffffffff16906020019092919080359060200190929190803560ff1690602001909291908035906020019092919080359060200190929190505050610a82565b005b6102d9610e9e565b005b61033e600480360360808110156102f157600080fd5b81019080803573ffffffffffffffffffffffffffffffffffffffff169060200190929190803560ff16906020019092919080359060200190929190803590602001909291905050506110d8565b005b610444600480360360c081101561035657600080fd5b81019080803573ffffffffffffffffffffffffffffffffffffffff169060200190929190803590602001909291908035906020019064010000000081111561039d57600080fd5b8201836020820111156103af57600080fd5b803590602001918460018302840111640100000000831117156103d157600080fd5b91908080601f016020809104026020016040519081016040528093929190818152602001838380828437600081840152601f19601f820116905080830192505050505050509192919290803560ff169060200190929190803590602001909291908035906020019092919050505061149d565b005b6104d3600480360360c081101561045c57600080fd5b81019080803573ffffffffffffffffffffffffffffffffffffffff16906020019092919080359060200190929190803573ffffffffffffffffffffffffffffffffffffffff169060200190929190803560ff16906020019092919080359060200190929190803590602001909291905050506118cb565b005b6105e3600480360360e08110156104eb57600080fd5b81019080803573ffffffffffffffffffffffffffffffffffffffff169060200190929190803590602001909291908035906020019064010000000081111561053257600080fd5b82018360208201111561054457600080fd5b8035906020019184600183028401116401000000008311171561056657600080fd5b91908080601f016020809104026020016040519081016040528093929190818152602001838380828437600081840152601f19601f82011690508083019250505050505050919291929080359060200190929190803560ff1690602001909291908035906020019092919080359060200190929190505050611cdd565b005b610668600480360360a08110156105fb57600080fd5b81019080803573ffffffffffffffffffffffffffffffffffffffff169060200190929190803573ffffffffffffffffffffffffffffffffffffffff169060200190929190803560ff1690602001909291908035906020019092919080359060200190929190505050612115565b005b6106ac6004803603602081101561068057600080fd5b81019080803573ffffffffffffffffffffffffffffffffffffffff16906020019092919050505061251d565b005b610704600480360360608110156106c457600080fd5b8101908080359060200190929190803573ffffffffffffffffffffffffffffffffffffffff1690602001909291908035906020019092919050505061263b565b005b6107696004803603608081101561071c57600080fd5b81019080803573ffffffffffffffffffffffffffffffffffffffff169060200190929190803560ff169060200190929190803590602001909291908035906020019092919050505061275d565b005b6107ce6004803603608081101561078157600080fd5b81019080803573ffffffffffffffffffffffffffffffffffffffff169060200190929190803560ff1690602001909291908035906020019092919080359060200190929190505050612b22565b005b6107fc600480360360208110156107e657600080fd5b8101908080359060200190929190505050612e76565b6040518082815260200191505060405180910390f35b6108df6004803603606081101561082857600080fd5b81019080803590602001909291908035906020019064010000000081111561084f57600080fd5b82018360208201111561086157600080fd5b8035906020019184600183028401116401000000008311171561088357600080fd5b91908080601f016020809104026020016040519081016040528093929190818152602001838380828437600081840152601f19601f82011690508083019250505050505050919291929080359060200190929190505050612e8e565b005b61092d600480360360408110156108f757600080fd5b8101908080359060200190929190803573ffffffffffffffffffffffffffffffffffffffff169060200190929190505050612fb0565b005b60026020528060005260406000206000915054906101000a900473ffffffffffffffffffffffffffffffffffffffff1681565b60008060009054906101000a900473ffffffffffffffffffffffffffffffffffffffff1673ffffffffffffffffffffffffffffffffffffffff166305c62c2f336040518263ffffffff1660e01b8152600401808273ffffffffffffffffffffffffffffffffffffffff1673ffffffffffffffffffffffffffffffffffffffff16815260200191505060206040518083038186803b158015610a0257600080fd5b505afa158015610a16573d6000803e3d6000fd5b505050506040513d6020811015610a2c57600080fd5b81019080805190602001909291905050509050610a7d6002600083815260200190815260200160002060009054906101000a900473ffffffffffffffffffffffffffffffffffffffff1684846130d0565b505050565b60008060009054906101000a900473ffffffffffffffffffffffffffffffffffffffff1673ffffffffffffffffffffffffffffffffffffffff166305c62c2f896040518263ffffffff1660e01b8152600401808273ffffffffffffffffffffffffffffffffffffffff1673ffffffffffffffffffffffffffffffffffffffff16815260200191505060206040518083038186803b158015610b2257600080fd5b505afa158015610b36573d6000803e3d6000fd5b505050506040513d6020811015610b4c57600080fd5b810190808051906020019092919050505090506000809054906101000a900473ffffffffffffffffffffffffffffffffffffffff1673ffffffffffffffffffffffffffffffffffffffff16638677ebe889601960f81b600060f81b308c8c8c600360008b81526020019081526020016000205460405160200180887effffffffffffffffffffffffffffffffffffffffffffffffffffffffffffff19167effffffffffffffffffffffffffffffffffffffffffffffffffffffffffffff19168152600101877effffffffffffffffffffffffffffffffffffffffffffffffffffffffffffff19167effffffffffffffffffffffffffffffffffffffffffffffffffffffffffffff191681526001018673ffffffffffffffffffffffffffffffffffffffff1673ffffffffffffffffffffffffffffffffffffffff1660601b8152601401807f61646444656c656761746544656c6567617465640000000000000000000000008152506014018581526020018473ffffffffffffffffffffffffffffffffffffffff1673ffffffffffffffffffffffffffffffffffffffff1660601b8152601401838152602001828152602001975050505050505050604051602081830303815290604052805190602001208787876040518663ffffffff1660e01b8152600401808673ffffffffffffffffffffffffffffffffffffffff1673ffffffffffffffffffffffffffffffffffffffff1681526020018581526020018460ff1660ff1681526020018381526020018281526020019550505050505060206040518083038186803b158015610da257600080fd5b505afa158015610db6573d6000803e3d6000fd5b505050506040513d6020811015610dcc57600080fd5b8101908080519060200190929190505050610e32576040517f08c379a00000000000000000000000000000000000000000000000000000000081526004018080602001828103825260298152602001806138cb6029913960400191505060405180910390fd5b6003600082815260200190815260200160002060008154809291906001019190505550610e946002600083815260200190815260200160002060009054906101000a900473ffffffffffffffffffffffffffffffffffffffff16888888613288565b5050505050505050565b60008060009054906101000a900473ffffffffffffffffffffffffffffffffffffffff1673ffffffffffffffffffffffffffffffffffffffff166305c62c2f336040518263ffffffff1660e01b8152600401808273ffffffffffffffffffffffffffffffffffffffff1673ffffffffffffffffffffffffffffffffffffffff16815260200191505060206040518083038186803b158015610f3e57600080fd5b505afa158015610f52573d6000803e3d6000fd5b505050506040513d6020811015610f6857600080fd5b81019080805190602001909291905050509050600073ffffffffffffffffffffffffffffffffffffffff166002600083815260200190815260200160002060009054906101000a900473ffffffffffffffffffffffffffffffffffffffff1673ffffffffffffffffffffffffffffffffffffffff161415611034576040517f08c379a00000000000000000000000000000000000000000000000000000000081526004018080602001828103825260218152602001806138f46021913960400191505060405180910390fd5b60006002600083815260200190815260200160002060006101000a81548173ffffffffffffffffffffffffffffffffffffffff021916908373ffffffffffffffffffffffffffffffffffffffff1602179055503373ffffffffffffffffffffffffffffffffffffffff167ff5b83915251053d4548a496c24058f7404d3f8a98087bbd4dee37a1a997b5d19826040518082815260200191505060405180910390a250565b60008060009054906101000a900473ffffffffffffffffffffffffffffffffffffffff1673ffffffffffffffffffffffffffffffffffffffff166305c62c2f336040518263ffffffff1660e01b8152600401808273ffffffffffffffffffffffffffffffffffffffff1673ffffffffffffffffffffffffffffffffffffffff16815260200191505060206040518083038186803b15801561117857600080fd5b505afa15801561118c573d6000803e3d6000fd5b505050506040513d60208110156111a257600080fd5b81019080805190602001909291905050509050600073ffffffffffffffffffffffffffffffffffffffff166002600083815260200190815260200160002060009054906101000a900473ffffffffffffffffffffffffffffffffffffffff1673ffffffffffffffffffffffffffffffffffffffff16141561126e576040517f08c379a00000000000000000000000000000000000000000000000000000000081526004018080602001828103825260218152602001806138f46021913960400191505060405180910390fd5b60006002600083815260200190815260200160002060009054906101000a900473ffffffffffffffffffffffffffffffffffffffff169050600160009054906101000a900473ffffffffffffffffffffffffffffffffffffffff1673ffffffffffffffffffffffffffffffffffffffff1663240cf1fa87878787306040518663ffffffff1660e01b8152600401808673ffffffffffffffffffffffffffffffffffffffff1673ffffffffffffffffffffffffffffffffffffffff1681526020018560ff1660ff1681526020018481526020018381526020018273ffffffffffffffffffffffffffffffffffffffff1673ffffffffffffffffffffffffffffffffffffffff16815260200195505050505050600060405180830381600087803b15801561139957600080fd5b505af11580156113ad573d6000803e3d6000fd5b50505050856002600084815260200190815260200160002060006101000a81548173ffffffffffffffffffffffffffffffffffffffff021916908373ffffffffffffffffffffffffffffffffffffffff1602179055508073ffffffffffffffffffffffffffffffffffffffff16823373ffffffffffffffffffffffffffffffffffffffff167fb9842f58d3add4b3111f01090178c302e2a9fde3c76d8f640ef0d70e179d55ec89604051808273ffffffffffffffffffffffffffffffffffffffff1673ffffffffffffffffffffffffffffffffffffffff16815260200191505060405180910390a4505050505050565b60008060009054906101000a900473ffffffffffffffffffffffffffffffffffffffff1673ffffffffffffffffffffffffffffffffffffffff166305c62c2f886040518263ffffffff1660e01b8152600401808273ffffffffffffffffffffffffffffffffffffffff1673ffffffffffffffffffffffffffffffffffffffff16815260200191505060206040518083038186803b15801561153d57600080fd5b505afa158015611551573d6000803e3d6000fd5b505050506040513d602081101561156757600080fd5b810190808051906020019092919050505090506000809054906101000a900473ffffffffffffffffffffffffffffffffffffffff1673ffffffffffffffffffffffffffffffffffffffff16638677ebe888601960f81b600060f81b308b8b600360008a81526020019081526020016000205460405160200180877effffffffffffffffffffffffffffffffffffffffffffffffffffffffffffff19167effffffffffffffffffffffffffffffffffffffffffffffffffffffffffffff19168152600101867effffffffffffffffffffffffffffffffffffffffffffffffffffffffffffff19167effffffffffffffffffffffffffffffffffffffffffffffffffffffffffffff191681526001018573ffffffffffffffffffffffffffffffffffffffff1673ffffffffffffffffffffffffffffffffffffffff1660601b8152601401807f7265766f6b6541747472696275746544656c656761746564000000000000000081525060180184815260200183805190602001908083835b6020831061170657805182526020820191506020810190506020830392506116e3565b6001836020036101000a0380198251168184511680821785525050505050509050018281526020019650505050505050604051602081830303815290604052805190602001208787876040518663ffffffff1660e01b8152600401808673ffffffffffffffffffffffffffffffffffffffff1673ffffffffffffffffffffffffffffffffffffffff1681526020018581526020018460ff1660ff1681526020018381526020018281526020019550505050505060206040518083038186803b1580156117d157600080fd5b505afa1580156117e5573d6000803e3d6000fd5b505050506040513d60208110156117fb57600080fd5b8101908080519060200190929190505050611861576040517f08c379a00000000000000000000000000000000000000000000000000000000081526004018080602001828103825260298152602001806138cb6029913960400191505060405180910390fd5b60036000828152602001908152602001600020600081548092919060010191905055506118c26002600083815260200190815260200160002060009054906101000a900473ffffffffffffffffffffffffffffffffffffffff1687876130d0565b50505050505050565b60008060009054906101000a900473ffffffffffffffffffffffffffffffffffffffff1673ffffffffffffffffffffffffffffffffffffffff166305c62c2f886040518263ffffffff1660e01b8152600401808273ffffffffffffffffffffffffffffffffffffffff1673ffffffffffffffffffffffffffffffffffffffff16815260200191505060206040518083038186803b15801561196b57600080fd5b505afa15801561197f573d6000803e3d6000fd5b505050506040513d602081101561199557600080fd5b810190808051906020019092919050505090506000809054906101000a900473ffffffffffffffffffffffffffffffffffffffff1673ffffffffffffffffffffffffffffffffffffffff16638677ebe888601960f81b600060f81b308b8b600360008a81526020019081526020016000205460405160200180877effffffffffffffffffffffffffffffffffffffffffffffffffffffffffffff19167effffffffffffffffffffffffffffffffffffffffffffffffffffffffffffff19168152600101867effffffffffffffffffffffffffffffffffffffffffffffffffffffffffffff19167effffffffffffffffffffffffffffffffffffffffffffffffffffffffffffff191681526001018573ffffffffffffffffffffffffffffffffffffffff1673ffffffffffffffffffffffffffffffffffffffff1660601b8152601401807f7265766f6b6544656c656761746544656c6567617465640000000000000000008152506017018481526020018373ffffffffffffffffffffffffffffffffffffffff1673ffffffffffffffffffffffffffffffffffffffff1660601b81526014018281526020019650505050505050604051602081830303815290604052805190602001208787876040518663ffffffff1660e01b8152600401808673ffffffffffffffffffffffffffffffffffffffff1673ffffffffffffffffffffffffffffffffffffffff1681526020018581526020018460ff1660ff1681526020018381526020018281526020019550505050505060206040518083038186803b158015611be357600080fd5b505afa158015611bf7573d6000803e3d6000fd5b505050506040513d6020811015611c0d57600080fd5b8101908080519060200190929190505050611c73576040517f08c379a00000000000000000000000000000000000000000000000000000000081526004018080602001828103825260298152602001806138cb6029913960400191505060405180910390fd5b6003600082815260200190815260200160002060008154809291906001019190505550611cd46002600083815260200190815260200160002060009054906101000a900473ffffffffffffffffffffffffffffffffffffffff168787613411565b50505050505050565b60008060009054906101000a900473ffffffffffffffffffffffffffffffffffffffff1673ffffffffffffffffffffffffffffffffffffffff166305c62c2f896040518263ffffffff1660e01b8152600401808273ffffffffffffffffffffffffffffffffffffffff1673ffffffffffffffffffffffffffffffffffffffff16815260200191505060206040518083038186803b158015611d7d57600080fd5b505afa158015611d91573d6000803e3d6000fd5b505050506040513d6020811015611da757600080fd5b810190808051906020019092919050505090506000809054906101000a900473ffffffffffffffffffffffffffffffffffffffff1673ffffffffffffffffffffffffffffffffffffffff16638677ebe889601960f81b600060f81b308c8c8c600360008b81526020019081526020016000205460405160200180887effffffffffffffffffffffffffffffffffffffffffffffffffffffffffffff19167effffffffffffffffffffffffffffffffffffffffffffffffffffffffffffff19168152600101877effffffffffffffffffffffffffffffffffffffffffffffffffffffffffffff19167effffffffffffffffffffffffffffffffffffffffffffffffffffffffffffff191681526001018673ffffffffffffffffffffffffffffffffffffffff1673ffffffffffffffffffffffffffffffffffffffff1660601b8152601401807f73657441747472696275746544656c656761746564000000000000000000000081525060150185815260200184805190602001908083835b60208310611f475780518252602082019150602081019050602083039250611f24565b6001836020036101000a038019825116818451168082178552505050505050905001838152602001828152602001975050505050505050604051602081830303815290604052805190602001208787876040518663ffffffff1660e01b8152600401808673ffffffffffffffffffffffffffffffffffffffff1673ffffffffffffffffffffffffffffffffffffffff1681526020018581526020018460ff1660ff1681526020018381526020018281526020019550505050505060206040518083038186803b15801561201957600080fd5b505afa15801561202d573d6000803e3d6000fd5b505050506040513d602081101561204357600080fd5b81019080805190602001909291905050506120a9576040517f08c379a00000000000000000000000000000000000000000000000000000000081526004018080602001828103825260298152602001806138cb6029913960400191505060405180910390fd5b600360008281526020019081526020016000206000815480929190600101919050555061210b6002600083815260200190815260200160002060009054906101000a900473ffffffffffffffffffffffffffffffffffffffff16888888613591565b5050505050505050565b60008060009054906101000a900473ffffffffffffffffffffffffffffffffffffffff1673ffffffffffffffffffffffffffffffffffffffff166305c62c2f876040518263ffffffff1660e01b8152600401808273ffffffffffffffffffffffffffffffffffffffff1673ffffffffffffffffffffffffffffffffffffffff16815260200191505060206040518083038186803b1580156121b557600080fd5b505afa1580156121c9573d6000803e3d6000fd5b505050506040513d60208110156121df57600080fd5b810190808051906020019092919050505090506000809054906101000a900473ffffffffffffffffffffffffffffffffffffffff1673ffffffffffffffffffffffffffffffffffffffff16638677ebe887601960f81b600060f81b308a600360008981526020019081526020016000205460405160200180867effffffffffffffffffffffffffffffffffffffffffffffffffffffffffffff19167effffffffffffffffffffffffffffffffffffffffffffffffffffffffffffff19168152600101857effffffffffffffffffffffffffffffffffffffffffffffffffffffffffffff19167effffffffffffffffffffffffffffffffffffffffffffffffffffffffffffff191681526001018473ffffffffffffffffffffffffffffffffffffffff1673ffffffffffffffffffffffffffffffffffffffff1660601b8152601401807f6368616e67654f776e657244656c6567617465640000000000000000000000008152506014018373ffffffffffffffffffffffffffffffffffffffff1673ffffffffffffffffffffffffffffffffffffffff1660601b815260140182815260200195505050505050604051602081830303815290604052805190602001208787876040518663ffffffff1660e01b8152600401808673ffffffffffffffffffffffffffffffffffffffff1673ffffffffffffffffffffffffffffffffffffffff1681526020018581526020018460ff1660ff1681526020018381526020018281526020019550505050505060206040518083038186803b15801561242557600080fd5b505afa158015612439573d6000803e3d6000fd5b505050506040513d602081101561244f57600080fd5b81019080805190602001909291905050506124b5576040517f08c379a00000000000000000000000000000000000000000000000000000000081526004018080602001828103825260298152602001806138cb6029913960400191505060405180910390fd5b60036000828152602001908152602001600020600081548092919060010191905055506125156002600083815260200190815260200160002060009054906101000a900473ffffffffffffffffffffffffffffffffffffffff1686613753565b505050505050565b60008060009054906101000a900473ffffffffffffffffffffffffffffffffffffffff1673ffffffffffffffffffffffffffffffffffffffff166305c62c2f336040518263ffffffff1660e01b8152600401808273ffffffffffffffffffffffffffffffffffffffff1673ffffffffffffffffffffffffffffffffffffffff16815260200191505060206040518083038186803b1580156125bd57600080fd5b505afa1580156125d1573d6000803e3d6000fd5b505050506040513d60208110156125e757600080fd5b810190808051906020019092919050505090506126376002600083815260200190815260200160002060009054906101000a900473ffffffffffffffffffffffffffffffffffffffff1683613753565b5050565b60008060009054906101000a900473ffffffffffffffffffffffffffffffffffffffff1673ffffffffffffffffffffffffffffffffffffffff166305c62c2f336040518263ffffffff1660e01b8152600401808273ffffffffffffffffffffffffffffffffffffffff1673ffffffffffffffffffffffffffffffffffffffff16815260200191505060206040518083038186803b1580156126db57600080fd5b505afa1580156126ef573d6000803e3d6000fd5b505050506040513d602081101561270557600080fd5b810190808051906020019092919050505090506127576002600083815260200190815260200160002060009054906101000a900473ffffffffffffffffffffffffffffffffffffffff16858585613288565b50505050565b60008060009054906101000a900473ffffffffffffffffffffffffffffffffffffffff1673ffffffffffffffffffffffffffffffffffffffff166305c62c2f866040518263ffffffff1660e01b8152600401808273ffffffffffffffffffffffffffffffffffffffff1673ffffffffffffffffffffffffffffffffffffffff16815260200191505060206040518083038186803b1580156127fd57600080fd5b505afa158015612811573d6000803e3d6000fd5b505050506040513d602081101561282757600080fd5b81019080805190602001909291905050509050600073ffffffffffffffffffffffffffffffffffffffff166002600083815260200190815260200160002060009054906101000a900473ffffffffffffffffffffffffffffffffffffffff1673ffffffffffffffffffffffffffffffffffffffff1614156128f3576040517f08c379a00000000000000000000000000000000000000000000000000000000081526004018080602001828103825260218152602001806138f46021913960400191505060405180910390fd5b60006002600083815260200190815260200160002060009054906101000a900473ffffffffffffffffffffffffffffffffffffffff169050600160009054906101000a900473ffffffffffffffffffffffffffffffffffffffff1673ffffffffffffffffffffffffffffffffffffffff1663240cf1fa87878787306040518663ffffffff1660e01b8152600401808673ffffffffffffffffffffffffffffffffffffffff1673ffffffffffffffffffffffffffffffffffffffff1681526020018560ff1660ff1681526020018481526020018381526020018273ffffffffffffffffffffffffffffffffffffffff1673ffffffffffffffffffffffffffffffffffffffff16815260200195505050505050600060405180830381600087803b158015612a1e57600080fd5b505af1158015612a32573d6000803e3d6000fd5b50505050856002600084815260200190815260200160002060006101000a81548173ffffffffffffffffffffffffffffffffffffffff021916908373ffffffffffffffffffffffffffffffffffffffff1602179055508073ffffffffffffffffffffffffffffffffffffffff16828273ffffffffffffffffffffffffffffffffffffffff167fb9842f58d3add4b3111f01090178c302e2a9fde3c76d8f640ef0d70e179d55ec89604051808273ffffffffffffffffffffffffffffffffffffffff1673ffffffffffffffffffffffffffffffffffffffff16815260200191505060405180910390a4505050505050565b60008060009054906101000a900473ffffffffffffffffffffffffffffffffffffffff1673ffffffffffffffffffffffffffffffffffffffff166305c62c2f336040518263ffffffff1660e01b8152600401808273ffffffffffffffffffffffffffffffffffffffff1673ffffffffffffffffffffffffffffffffffffffff16815260200191505060206040518083038186803b158015612bc257600080fd5b505afa158015612bd6573d6000803e3d6000fd5b505050506040513d6020811015612bec57600080fd5b81019080805190602001909291905050509050600073ffffffffffffffffffffffffffffffffffffffff166002600083815260200190815260200160002060009054906101000a900473ffffffffffffffffffffffffffffffffffffffff1673ffffffffffffffffffffffffffffffffffffffff1614612cb7576040517f08c379a00000000000000000000000000000000000000000000000000000000081526004018080602001828103825260258152602001806139156025913960400191505060405180910390fd5b600160009054906101000a900473ffffffffffffffffffffffffffffffffffffffff1673ffffffffffffffffffffffffffffffffffffffff1663240cf1fa86868686306040518663ffffffff1660e01b8152600401808673ffffffffffffffffffffffffffffffffffffffff1673ffffffffffffffffffffffffffffffffffffffff1681526020018560ff1660ff1681526020018481526020018381526020018273ffffffffffffffffffffffffffffffffffffffff1673ffffffffffffffffffffffffffffffffffffffff16815260200195505050505050600060405180830381600087803b158015612daa57600080fd5b505af1158015612dbe573d6000803e3d6000fd5b50505050846002600083815260200190815260200160002060006101000a81548173ffffffffffffffffffffffffffffffffffffffff021916908373ffffffffffffffffffffffffffffffffffffffff1602179055508473ffffffffffffffffffffffffffffffffffffffff16813373ffffffffffffffffffffffffffffffffffffffff167f04200d59e6448cc5a97e2e089e6b35bac8a336b173d770c815d6f3c5c06f300460405160405180910390a45050505050565b60036020528060005260406000206000915090505481565b60008060009054906101000a900473ffffffffffffffffffffffffffffffffffffffff1673ffffffffffffffffffffffffffffffffffffffff166305c62c2f336040518263ffffffff1660e01b8152600401808273ffffffffffffffffffffffffffffffffffffffff1673ffffffffffffffffffffffffffffffffffffffff16815260200191505060206040518083038186803b158015612f2e57600080fd5b505afa158015612f42573d6000803e3d6000fd5b505050506040513d6020811015612f5857600080fd5b81019080805190602001909291905050509050612faa6002600083815260200190815260200160002060009054906101000a900473ffffffffffffffffffffffffffffffffffffffff16858585613591565b50505050565b60008060009054906101000a900473ffffffffffffffffffffffffffffffffffffffff1673ffffffffffffffffffffffffffffffffffffffff166305c62c2f336040518263ffffffff1660e01b8152600401808273ffffffffffffffffffffffffffffffffffffffff1673ffffffffffffffffffffffffffffffffffffffff16815260200191505060206040518083038186803b15801561305057600080fd5b505afa158015613064573d6000803e3d6000fd5b505050506040513d602081101561307a57600080fd5b810190808051906020019092919050505090506130cb6002600083815260200190815260200160002060009054906101000a900473ffffffffffffffffffffffffffffffffffffffff168484613411565b505050565b600073ffffffffffffffffffffffffffffffffffffffff168373ffffffffffffffffffffffffffffffffffffffff161415613156576040517f08c379a00000000000000000000000000000000000000000000000000000000081526004018080602001828103825260218152602001806138f46021913960400191505060405180910390fd5b600160009054906101000a900473ffffffffffffffffffffffffffffffffffffffff1673ffffffffffffffffffffffffffffffffffffffff1662c023da8484846040518463ffffffff1660e01b8152600401808473ffffffffffffffffffffffffffffffffffffffff1673ffffffffffffffffffffffffffffffffffffffff16815260200183815260200180602001828103825283818151815260200191508051906020019080838360005b8381101561321d578082015181840152602081019050613202565b50505050905090810190601f16801561324a5780820380516001836020036101000a031916815260200191505b50945050505050600060405180830381600087803b15801561326b57600080fd5b505af115801561327f573d6000803e3d6000fd5b50505050505050565b600073ffffffffffffffffffffffffffffffffffffffff168473ffffffffffffffffffffffffffffffffffffffff16141561330e576040517f08c379a00000000000000000000000000000000000000000000000000000000081526004018080602001828103825260218152602001806138f46021913960400191505060405180910390fd5b600160009054906101000a900473ffffffffffffffffffffffffffffffffffffffff1673ffffffffffffffffffffffffffffffffffffffff1663a7068d66858585856040518563ffffffff1660e01b8152600401808573ffffffffffffffffffffffffffffffffffffffff1673ffffffffffffffffffffffffffffffffffffffff1681526020018481526020018373ffffffffffffffffffffffffffffffffffffffff1673ffffffffffffffffffffffffffffffffffffffff168152602001828152602001945050505050600060405180830381600087803b1580156133f357600080fd5b505af1158015613407573d6000803e3d6000fd5b5050505050505050565b600073ffffffffffffffffffffffffffffffffffffffff168373ffffffffffffffffffffffffffffffffffffffff161415613497576040517f08c379a00000000000000000000000000000000000000000000000000000000081526004018080602001828103825260218152602001806138f46021913960400191505060405180910390fd5b600160009054906101000a900473ffffffffffffffffffffffffffffffffffffffff1673ffffffffffffffffffffffffffffffffffffffff166380b29f7c8484846040518463ffffffff1660e01b8152600401808473ffffffffffffffffffffffffffffffffffffffff1673ffffffffffffffffffffffffffffffffffffffff1681526020018381526020018273ffffffffffffffffffffffffffffffffffffffff1673ffffffffffffffffffffffffffffffffffffffff1681526020019350505050600060405180830381600087803b15801561357457600080fd5b505af1158015613588573d6000803e3d6000fd5b50505050505050565b600073ffffffffffffffffffffffffffffffffffffffff168473ffffffffffffffffffffffffffffffffffffffff161415613617576040517f08c379a00000000000000000000000000000000000000000000000000000000081526004018080602001828103825260218152602001806138f46021913960400191505060405180910390fd5b600160009054906101000a900473ffffffffffffffffffffffffffffffffffffffff1673ffffffffffffffffffffffffffffffffffffffff16637ad4b0a4858585856040518563ffffffff1660e01b8152600401808573ffffffffffffffffffffffffffffffffffffffff1673ffffffffffffffffffffffffffffffffffffffff16815260200184815260200180602001838152602001828103825284818151815260200191508051906020019080838360005b838110156136e65780820151818401526020810190506136cb565b50505050905090810190601f1680156137135780820380516001836020036101000a031916815260200191505b5095505050505050600060405180830381600087803b15801561373557600080fd5b505af1158015613749573d6000803e3d6000fd5b5050505050505050565b600073ffffffffffffffffffffffffffffffffffffffff168273ffffffffffffffffffffffffffffffffffffffff1614156137d9576040517f08c379a00000000000000000000000000000000000000000000000000000000081526004018080602001828103825260218152602001806138f46021913960400191505060405180910390fd5b600160009054906101000a900473ffffffffffffffffffffffffffffffffffffffff1673ffffffffffffffffffffffffffffffffffffffff1663f00d4b5d83836040518363ffffffff1660e01b8152600401808373ffffffffffffffffffffffffffffffffffffffff1673ffffffffffffffffffffffffffffffffffffffff1681526020018273ffffffffffffffffffffffffffffffffffffffff1673ffffffffffffffffffffffffffffffffffffffff16815260200192505050600060405180830381600087803b1580156138ae57600080fd5b505af11580156138c2573d6000803e3d6000fd5b50505050505056fe46756e6374696f6e20657865637574696f6e20697320696e636f72726563746c79207369676e65642e546869732045494e20686173206e6f74206265656e20696e697469616c697a6564546869732045494e2068617320616c7265616479206265656e20696e697469616c697a6564a165627a7a723058202360046476fd0434bd647f424d7b3c220241ee230ef5a66f9d3596770d4953890029",
  "source": "pragma solidity ^0.5.0;\n\nimport \"../interfaces/IdentityRegistryInterface.sol\";\nimport \"./EthereumDIDRegistryInterface.sol\";\n\ncontract ERC1056 {\n    IdentityRegistryInterface identityRegistry;\n    EthereumDIDRegistryInterface ethereumDIDRegistry;\n\n    constructor (address identityRegistryAddress, address ethereumDIDRegistryAddress) public {\n        identityRegistry = IdentityRegistryInterface(identityRegistryAddress);\n        ethereumDIDRegistry = EthereumDIDRegistryInterface(ethereumDIDRegistryAddress);\n    }\n\n    mapping(uint => address) public einToDID;\n    mapping(uint => uint) public actionNonce;\n\n    function initialize(address identity, uint8 v, bytes32 r, bytes32 s) public {\n        uint ein = identityRegistry.getEIN(msg.sender);\n        require(einToDID[ein] == address(0), \"This EIN has already been initialized\");\n        ethereumDIDRegistry.changeOwnerSigned(identity, v, r, s, address(this));\n        einToDID[ein] = identity;\n        emit IdentityInitialized(msg.sender, ein, identity);\n    }\n\n    function clear() public {\n        uint ein = identityRegistry.getEIN(msg.sender);\n        require(einToDID[ein] != address(0), \"This EIN has not been initialized\");\n        einToDID[ein] = address(0);\n        emit IdentityCleared(msg.sender, ein);\n    }\n\n    function reset(address newIdentity, uint8 v, bytes32 r, bytes32 s) public {\n        uint ein = identityRegistry.getEIN(msg.sender);\n        require(einToDID[ein] != address(0), \"This EIN has not been initialized\");\n        address oldIdentity = einToDID[ein];\n        ethereumDIDRegistry.changeOwnerSigned(newIdentity, v, r, s, address(this));\n        einToDID[ein] = newIdentity;\n        emit IdentityReseted(msg.sender, ein, oldIdentity, newIdentity);\n    }\n\n    function recovery(address newIdentity, uint8 v, bytes32 r, bytes32 s) public {\n        uint ein = identityRegistry.getEIN(newIdentity);\n        require(einToDID[ein] != address(0), \"This EIN has not been initialized\");\n        address oldIdentity = einToDID[ein];\n        ethereumDIDRegistry.changeOwnerSigned(newIdentity, v, r, s, address(this));\n        einToDID[ein] = newIdentity;\n        emit IdentityReseted(oldIdentity, ein, oldIdentity, newIdentity);\n    }\n\n    function changeOwner(address newOwner) public {\n        uint ein = identityRegistry.getEIN(msg.sender);\n        _changeOwner(einToDID[ein], newOwner);\n    }\n\n    function changeOwnerDelegated(address approvingAddress, address newOwner, uint8 v, bytes32 r, bytes32 s) public {\n        uint ein = identityRegistry.getEIN(approvingAddress);\n        require(\n            identityRegistry.isSigned(\n                approvingAddress,\n                keccak256(\n                    abi.encodePacked(\n                        byte(0x19), byte(0), address(this), \"changeOwnerDelegated\", newOwner, actionNonce[ein]\n                    )\n                ),\n                v, r, s\n            ),\n            \"Function execution is incorrectly signed.\"\n        );\n        actionNonce[ein]++;\n        _changeOwner(einToDID[ein], newOwner);\n    }\n\n    function _changeOwner(address _did, address _newOwner) internal {\n        require(_did != address(0), \"This EIN has not been initialized\");\n        ethereumDIDRegistry.changeOwner(_did, _newOwner);\n    }\n\n    function addDelegate(bytes32 delegateType, address delegate, uint validity) public {\n        uint ein = identityRegistry.getEIN(msg.sender);\n        _addDelegate(einToDID[ein], delegateType, delegate, validity);\n    }\n\n    function addDelegateDelegated(\n        address approvingAddress, bytes32 delegateType, address delegate, uint validity, uint8 v, bytes32 r, bytes32 s\n    )\n        public\n    {\n        uint ein = identityRegistry.getEIN(approvingAddress);\n        require(\n            identityRegistry.isSigned(\n                approvingAddress,\n                keccak256(\n                    abi.encodePacked(\n                        byte(0x19), byte(0), address(this),\n                        \"addDelegateDelegated\", delegateType, delegate, validity, actionNonce[ein]\n                    )\n                ),\n                v, r, s\n            ),\n            \"Function execution is incorrectly signed.\"\n        );\n        actionNonce[ein]++;\n        _addDelegate(einToDID[ein], delegateType, delegate, validity);\n    }\n\n    function _addDelegate(address _did, bytes32 _delegateType, address _delegate, uint _validity) internal {\n        require(_did != address(0), \"This EIN has not been initialized\");\n        ethereumDIDRegistry.addDelegate(_did, _delegateType, _delegate, _validity);\n    }\n\n    function revokeDelegate(bytes32 delegateType, address delegate) public {\n        uint ein = identityRegistry.getEIN(msg.sender);\n        _revokeDelegate(einToDID[ein], delegateType, delegate);\n    }\n\n    function revokeDelegateDelegated(\n        address approvingAddress, bytes32 delegateType, address delegate, uint8 v, bytes32 r, bytes32 s\n    )\n        public\n    {\n        uint ein = identityRegistry.getEIN(approvingAddress);\n        require(\n            identityRegistry.isSigned(\n                approvingAddress,\n                keccak256(\n                    abi.encodePacked(\n                        byte(0x19), byte(0), address(this),\n                        \"revokeDelegateDelegated\", delegateType, delegate, actionNonce[ein]\n                    )\n                ),\n                v, r, s\n            ),\n            \"Function execution is incorrectly signed.\"\n        );\n        actionNonce[ein]++;\n        _revokeDelegate(einToDID[ein], delegateType, delegate);\n    }\n\n    function _revokeDelegate(address _did, bytes32 _delegateType, address _delegate) internal {\n        require(_did != address(0), \"This EIN has not been initialized\");\n        ethereumDIDRegistry.revokeDelegate(_did, _delegateType, _delegate);\n    }\n\n    function setAttribute(bytes32 name, bytes memory value, uint validity) public {\n        uint ein = identityRegistry.getEIN(msg.sender);\n        _setAttribute(einToDID[ein], name, value, validity);\n    }\n\n    function setAttributeDelegated(\n        address approvingAddress, bytes32 name, bytes memory value, uint validity, uint8 v, bytes32 r, bytes32 s\n    )\n        public\n    {\n        uint ein = identityRegistry.getEIN(approvingAddress);\n        require(\n            identityRegistry.isSigned(\n                approvingAddress,\n                keccak256(\n                    abi.encodePacked(\n                        byte(0x19), byte(0), address(this),\n                        \"setAttributeDelegated\", name, value, validity, actionNonce[ein]\n                    )\n                ),\n                v, r, s\n            ),\n            \"Function execution is incorrectly signed.\"\n        );\n        actionNonce[ein]++;\n        _setAttribute(einToDID[ein], name, value, validity);\n    }\n\n    function _setAttribute(address _did, bytes32 _name, bytes memory _value, uint _validity) internal {\n        require(_did != address(0), \"This EIN has not been initialized\");\n        ethereumDIDRegistry.setAttribute(_did, _name, _value, _validity);\n    }\n\n    function revokeAttribute(bytes32 name, bytes memory value) public {\n        uint ein = identityRegistry.getEIN(msg.sender);\n        _revokeAttribute(einToDID[ein], name, value);\n    }\n\n    function revokeAttributeDelegated(\n        address approvingAddress, bytes32 name, bytes memory value, uint8 v, bytes32 r, bytes32 s\n    )\n        public\n    {\n        uint ein = identityRegistry.getEIN(approvingAddress);\n        require(\n            identityRegistry.isSigned(\n                approvingAddress,\n                keccak256(\n                    abi.encodePacked(\n                        byte(0x19), byte(0), address(this),\n                        \"revokeAttributeDelegated\", name, value, actionNonce[ein]\n                    )\n                ),\n                v, r, s\n            ),\n            \"Function execution is incorrectly signed.\"\n        );\n        actionNonce[ein]++;\n        _revokeAttribute(einToDID[ein], name, value);\n    }\n\n    function _revokeAttribute(address _did, bytes32 _name, bytes memory _value) internal {\n        require(_did != address(0), \"This EIN has not been initialized\");\n        ethereumDIDRegistry.revokeAttribute(_did, _name, _value);\n    }\n\n    event IdentityInitialized(address indexed initiator, uint indexed ein, address indexed indeitity);\n\n    event IdentityCleared(address indexed initiator, uint ein);\n\n    event IdentityReseted(address indexed initiator, uint indexed ein, address indexed oldIdentity, address newIndeitity);\n}",
  "sourcePath": "/Users/user/idhub/did-plus-contract/contracts/Resolver/ERC1056.sol",
  "compiler": {
    "name": "solc",
    "version": "0.5.8+commit.23d335f2.Emscripten.clang"
  },
  "schemaVersion": "3.0.11",
  "updatedAt": "2019-09-18T08:33:39.359Z",
  "devdoc": {
    "methods": {}
  },
  "userdoc": {
    "methods": {}
  }
}