{
  "contractName": "ERC1056",
  "abi": [
    {
      "constant": true,
      "inputs": [
        {
          "name": "",
          "type": "uint256"
        }
      ],
      "name": "einToDID",
      "outputs": [
        {
          "name": "",
          "type": "address"
        }
      ],
      "payable": false,
      "stateMutability": "view",
      "type": "function"
    },
    {
      "constant": true,
      "inputs": [
        {
          "name": "",
          "type": "uint256"
        }
      ],
      "name": "actionNonce",
      "outputs": [
        {
          "name": "",
          "type": "uint256"
        }
      ],
      "payable": false,
      "stateMutability": "view",
      "type": "function"
    },
    {
      "inputs": [
        {
          "name": "identityRegistryAddress",
          "type": "address"
        },
        {
          "name": "ethereumDIDRegistryAddress",
          "type": "address"
        }
      ],
      "payable": false,
      "stateMutability": "nonpayable",
      "type": "constructor"
    },
    {
      "constant": false,
      "inputs": [
        {
          "name": "identity",
          "type": "address"
        },
        {
          "name": "v",
          "type": "uint8"
        },
        {
          "name": "r",
          "type": "bytes32"
        },
        {
          "name": "s",
          "type": "bytes32"
        }
      ],
      "name": "initialize",
      "outputs": [],
      "payable": false,
      "stateMutability": "nonpayable",
      "type": "function"
    },
    {
      "constant": false,
      "inputs": [
        {
          "name": "newOwner",
          "type": "address"
        }
      ],
      "name": "changeOwner",
      "outputs": [],
      "payable": false,
      "stateMutability": "nonpayable",
      "type": "function"
    },
    {
      "constant": false,
      "inputs": [
        {
          "name": "approvingAddress",
          "type": "address"
        },
        {
          "name": "newOwner",
          "type": "address"
        },
        {
          "name": "v",
          "type": "uint8"
        },
        {
          "name": "r",
          "type": "bytes32"
        },
        {
          "name": "s",
          "type": "bytes32"
        }
      ],
      "name": "changeOwnerDelegated",
      "outputs": [],
      "payable": false,
      "stateMutability": "nonpayable",
      "type": "function"
    },
    {
      "constant": false,
      "inputs": [
        {
          "name": "delegateType",
          "type": "bytes32"
        },
        {
          "name": "delegate",
          "type": "address"
        },
        {
          "name": "validity",
          "type": "uint256"
        }
      ],
      "name": "addDelegate",
      "outputs": [],
      "payable": false,
      "stateMutability": "nonpayable",
      "type": "function"
    },
    {
      "constant": false,
      "inputs": [
        {
          "name": "approvingAddress",
          "type": "address"
        },
        {
          "name": "delegateType",
          "type": "bytes32"
        },
        {
          "name": "delegate",
          "type": "address"
        },
        {
          "name": "validity",
          "type": "uint256"
        },
        {
          "name": "v",
          "type": "uint8"
        },
        {
          "name": "r",
          "type": "bytes32"
        },
        {
          "name": "s",
          "type": "bytes32"
        }
      ],
      "name": "addDelegateDelegated",
      "outputs": [],
      "payable": false,
      "stateMutability": "nonpayable",
      "type": "function"
    },
    {
      "constant": false,
      "inputs": [
        {
          "name": "delegateType",
          "type": "bytes32"
        },
        {
          "name": "delegate",
          "type": "address"
        }
      ],
      "name": "revokeDelegate",
      "outputs": [],
      "payable": false,
      "stateMutability": "nonpayable",
      "type": "function"
    },
    {
      "constant": false,
      "inputs": [
        {
          "name": "approvingAddress",
          "type": "address"
        },
        {
          "name": "delegateType",
          "type": "bytes32"
        },
        {
          "name": "delegate",
          "type": "address"
        },
        {
          "name": "v",
          "type": "uint8"
        },
        {
          "name": "r",
          "type": "bytes32"
        },
        {
          "name": "s",
          "type": "bytes32"
        }
      ],
      "name": "revokeDelegateDelegated",
      "outputs": [],
      "payable": false,
      "stateMutability": "nonpayable",
      "type": "function"
    },
    {
      "constant": false,
      "inputs": [
        {
          "name": "name",
          "type": "bytes32"
        },
        {
          "name": "value",
          "type": "bytes"
        },
        {
          "name": "validity",
          "type": "uint256"
        }
      ],
      "name": "setAttribute",
      "outputs": [],
      "payable": false,
      "stateMutability": "nonpayable",
      "type": "function"
    },
    {
      "constant": false,
      "inputs": [
        {
          "name": "approvingAddress",
          "type": "address"
        },
        {
          "name": "name",
          "type": "bytes32"
        },
        {
          "name": "value",
          "type": "bytes"
        },
        {
          "name": "validity",
          "type": "uint256"
        },
        {
          "name": "v",
          "type": "uint8"
        },
        {
          "name": "r",
          "type": "bytes32"
        },
        {
          "name": "s",
          "type": "bytes32"
        }
      ],
      "name": "setAttributeDelegated",
      "outputs": [],
      "payable": false,
      "stateMutability": "nonpayable",
      "type": "function"
    },
    {
      "constant": false,
      "inputs": [
        {
          "name": "name",
          "type": "bytes32"
        },
        {
          "name": "value",
          "type": "bytes"
        }
      ],
      "name": "revokeAttribute",
      "outputs": [],
      "payable": false,
      "stateMutability": "nonpayable",
      "type": "function"
    },
    {
      "constant": false,
      "inputs": [
        {
          "name": "approvingAddress",
          "type": "address"
        },
        {
          "name": "name",
          "type": "bytes32"
        },
        {
          "name": "value",
          "type": "bytes"
        },
        {
          "name": "v",
          "type": "uint8"
        },
        {
          "name": "r",
          "type": "bytes32"
        },
        {
          "name": "s",
          "type": "bytes32"
        }
      ],
      "name": "revokeAttributeDelegated",
      "outputs": [],
      "payable": false,
      "stateMutability": "nonpayable",
      "type": "function"
    }
  ],
  "bytecode": "0x608060405234801561001057600080fd5b50604051604080612f1e8339810180604052604081101561003057600080fd5b810190808051906020019092919080519060200190929190505050816000806101000a81548173ffffffffffffffffffffffffffffffffffffffff021916908373ffffffffffffffffffffffffffffffffffffffff16021790555080600160006101000a81548173ffffffffffffffffffffffffffffffffffffffff021916908373ffffffffffffffffffffffffffffffffffffffff1602179055505050612e41806100dd6000396000f3fe608060405234801561001057600080fd5b50600436106100cf5760003560e01c8063a343766a1161008c578063d0bcc73c11610066578063d0bcc73c14610666578063d702b8a5146106cb578063d862913f1461070d578063e9e83156146107dc576100cf565b8063a343766a14610545578063a6f9dae1146105ca578063c7cadeb01461060e576100cf565b806307d52085146100d45780632646efe31461014257806345c9959b14610207578063699561a9146102a05780636e032765146103a6578063853c4a5814610435575b600080fd5b610100600480360360208110156100ea57600080fd5b810190808035906020019092919050505061082a565b604051808273ffffffffffffffffffffffffffffffffffffffff1673ffffffffffffffffffffffffffffffffffffffff16815260200191505060405180910390f35b6102056004803603604081101561015857600080fd5b81019080803590602001909291908035906020019064010000000081111561017f57600080fd5b82018360208201111561019157600080fd5b803590602001918460018302840111640100000000831117156101b357600080fd5b91908080601f016020809104026020016040519081016040528093929190818152602001838380828437600081840152601f19601f82011690508083019250505050505050919291929050505061085d565b005b61029e600480360360e081101561021d57600080fd5b81019080803573ffffffffffffffffffffffffffffffffffffffff16906020019092919080359060200190929190803573ffffffffffffffffffffffffffffffffffffffff16906020019092919080359060200190929190803560ff169060200190929190803590602001909291908035906020019092919050505061097d565b005b6103a4600480360360c08110156102b657600080fd5b81019080803573ffffffffffffffffffffffffffffffffffffffff16906020019092919080359060200190929190803590602001906401000000008111156102fd57600080fd5b82018360208201111561030f57600080fd5b8035906020019184600183028401116401000000008311171561033157600080fd5b91908080601f016020809104026020016040519081016040528093929190818152602001838380828437600081840152601f19601f820116905080830192505050505050509192919290803560ff1690602001909291908035906020019092919080359060200190929190505050610d99565b005b610433600480360360c08110156103bc57600080fd5b81019080803573ffffffffffffffffffffffffffffffffffffffff16906020019092919080359060200190929190803573ffffffffffffffffffffffffffffffffffffffff169060200190929190803560ff16906020019092919080359060200190929190803590602001909291905050506111c7565b005b610543600480360360e081101561044b57600080fd5b81019080803573ffffffffffffffffffffffffffffffffffffffff169060200190929190803590602001909291908035906020019064010000000081111561049257600080fd5b8201836020820111156104a457600080fd5b803590602001918460018302840111640100000000831117156104c657600080fd5b91908080601f016020809104026020016040519081016040528093929190818152602001838380828437600081840152601f19601f82011690508083019250505050505050919291929080359060200190929190803560ff16906020019092919080359060200190929190803590602001909291905050506115d9565b005b6105c8600480360360a081101561055b57600080fd5b81019080803573ffffffffffffffffffffffffffffffffffffffff169060200190929190803573ffffffffffffffffffffffffffffffffffffffff169060200190929190803560ff1690602001909291908035906020019092919080359060200190929190505050611a11565b005b61060c600480360360208110156105e057600080fd5b81019080803573ffffffffffffffffffffffffffffffffffffffff169060200190929190505050611e19565b005b6106646004803603606081101561062457600080fd5b8101908080359060200190929190803573ffffffffffffffffffffffffffffffffffffffff16906020019092919080359060200190929190505050611f37565b005b6106c96004803603608081101561067c57600080fd5b81019080803573ffffffffffffffffffffffffffffffffffffffff169060200190929190803560ff1690602001909291908035906020019092919080359060200190929190505050612059565b005b6106f7600480360360208110156106e157600080fd5b8101908080359060200190929190505050612352565b6040518082815260200191505060405180910390f35b6107da6004803603606081101561072357600080fd5b81019080803590602001909291908035906020019064010000000081111561074a57600080fd5b82018360208201111561075c57600080fd5b8035906020019184600183028401116401000000008311171561077e57600080fd5b91908080601f016020809104026020016040519081016040528093929190818152602001838380828437600081840152601f19601f8201169050808301925050505050505091929192908035906020019092919050505061236a565b005b610828600480360360408110156107f257600080fd5b8101908080359060200190929190803573ffffffffffffffffffffffffffffffffffffffff16906020019092919050505061248c565b005b60026020528060005260406000206000915054906101000a900473ffffffffffffffffffffffffffffffffffffffff1681565b60008060009054906101000a900473ffffffffffffffffffffffffffffffffffffffff1673ffffffffffffffffffffffffffffffffffffffff166305c62c2f336040518263ffffffff1660e01b8152600401808273ffffffffffffffffffffffffffffffffffffffff1673ffffffffffffffffffffffffffffffffffffffff16815260200191505060206040518083038186803b1580156108fd57600080fd5b505afa158015610911573d6000803e3d6000fd5b505050506040513d602081101561092757600080fd5b810190808051906020019092919050505090506109786002600083815260200190815260200160002060009054906101000a900473ffffffffffffffffffffffffffffffffffffffff1684846125ac565b505050565b60008060009054906101000a900473ffffffffffffffffffffffffffffffffffffffff1673ffffffffffffffffffffffffffffffffffffffff166305c62c2f896040518263ffffffff1660e01b8152600401808273ffffffffffffffffffffffffffffffffffffffff1673ffffffffffffffffffffffffffffffffffffffff16815260200191505060206040518083038186803b158015610a1d57600080fd5b505afa158015610a31573d6000803e3d6000fd5b505050506040513d6020811015610a4757600080fd5b810190808051906020019092919050505090506000809054906101000a900473ffffffffffffffffffffffffffffffffffffffff1673ffffffffffffffffffffffffffffffffffffffff16638677ebe889601960f81b600060f81b308c8c8c600360008b81526020019081526020016000205460405160200180887effffffffffffffffffffffffffffffffffffffffffffffffffffffffffffff19167effffffffffffffffffffffffffffffffffffffffffffffffffffffffffffff19168152600101877effffffffffffffffffffffffffffffffffffffffffffffffffffffffffffff19167effffffffffffffffffffffffffffffffffffffffffffffffffffffffffffff191681526001018673ffffffffffffffffffffffffffffffffffffffff1673ffffffffffffffffffffffffffffffffffffffff1660601b8152601401807f61646444656c656761746544656c6567617465640000000000000000000000008152506014018581526020018473ffffffffffffffffffffffffffffffffffffffff1673ffffffffffffffffffffffffffffffffffffffff1660601b8152601401838152602001828152602001975050505050505050604051602081830303815290604052805190602001208787876040518663ffffffff1660e01b8152600401808673ffffffffffffffffffffffffffffffffffffffff1673ffffffffffffffffffffffffffffffffffffffff1681526020018581526020018460ff1660ff1681526020018381526020018281526020019550505050505060206040518083038186803b158015610c9d57600080fd5b505afa158015610cb1573d6000803e3d6000fd5b505050506040513d6020811015610cc757600080fd5b8101908080519060200190929190505050610d2d576040517f08c379a0000000000000000000000000000000000000000000000000000000008152600401808060200182810382526029815260200180612da76029913960400191505060405180910390fd5b6003600082815260200190815260200160002060008154809291906001019190505550610d8f6002600083815260200190815260200160002060009054906101000a900473ffffffffffffffffffffffffffffffffffffffff16888888612764565b5050505050505050565b60008060009054906101000a900473ffffffffffffffffffffffffffffffffffffffff1673ffffffffffffffffffffffffffffffffffffffff166305c62c2f886040518263ffffffff1660e01b8152600401808273ffffffffffffffffffffffffffffffffffffffff1673ffffffffffffffffffffffffffffffffffffffff16815260200191505060206040518083038186803b158015610e3957600080fd5b505afa158015610e4d573d6000803e3d6000fd5b505050506040513d6020811015610e6357600080fd5b810190808051906020019092919050505090506000809054906101000a900473ffffffffffffffffffffffffffffffffffffffff1673ffffffffffffffffffffffffffffffffffffffff16638677ebe888601960f81b600060f81b308b8b600360008a81526020019081526020016000205460405160200180877effffffffffffffffffffffffffffffffffffffffffffffffffffffffffffff19167effffffffffffffffffffffffffffffffffffffffffffffffffffffffffffff19168152600101867effffffffffffffffffffffffffffffffffffffffffffffffffffffffffffff19167effffffffffffffffffffffffffffffffffffffffffffffffffffffffffffff191681526001018573ffffffffffffffffffffffffffffffffffffffff1673ffffffffffffffffffffffffffffffffffffffff1660601b8152601401807f7265766f6b6541747472696275746544656c656761746564000000000000000081525060180184815260200183805190602001908083835b602083106110025780518252602082019150602081019050602083039250610fdf565b6001836020036101000a0380198251168184511680821785525050505050509050018281526020019650505050505050604051602081830303815290604052805190602001208787876040518663ffffffff1660e01b8152600401808673ffffffffffffffffffffffffffffffffffffffff1673ffffffffffffffffffffffffffffffffffffffff1681526020018581526020018460ff1660ff1681526020018381526020018281526020019550505050505060206040518083038186803b1580156110cd57600080fd5b505afa1580156110e1573d6000803e3d6000fd5b505050506040513d60208110156110f757600080fd5b810190808051906020019092919050505061115d576040517f08c379a0000000000000000000000000000000000000000000000000000000008152600401808060200182810382526029815260200180612da76029913960400191505060405180910390fd5b60036000828152602001908152602001600020600081548092919060010191905055506111be6002600083815260200190815260200160002060009054906101000a900473ffffffffffffffffffffffffffffffffffffffff1687876125ac565b50505050505050565b60008060009054906101000a900473ffffffffffffffffffffffffffffffffffffffff1673ffffffffffffffffffffffffffffffffffffffff166305c62c2f886040518263ffffffff1660e01b8152600401808273ffffffffffffffffffffffffffffffffffffffff1673ffffffffffffffffffffffffffffffffffffffff16815260200191505060206040518083038186803b15801561126757600080fd5b505afa15801561127b573d6000803e3d6000fd5b505050506040513d602081101561129157600080fd5b810190808051906020019092919050505090506000809054906101000a900473ffffffffffffffffffffffffffffffffffffffff1673ffffffffffffffffffffffffffffffffffffffff16638677ebe888601960f81b600060f81b308b8b600360008a81526020019081526020016000205460405160200180877effffffffffffffffffffffffffffffffffffffffffffffffffffffffffffff19167effffffffffffffffffffffffffffffffffffffffffffffffffffffffffffff19168152600101867effffffffffffffffffffffffffffffffffffffffffffffffffffffffffffff19167effffffffffffffffffffffffffffffffffffffffffffffffffffffffffffff191681526001018573ffffffffffffffffffffffffffffffffffffffff1673ffffffffffffffffffffffffffffffffffffffff1660601b8152601401807f7265766f6b6544656c656761746544656c6567617465640000000000000000008152506017018481526020018373ffffffffffffffffffffffffffffffffffffffff1673ffffffffffffffffffffffffffffffffffffffff1660601b81526014018281526020019650505050505050604051602081830303815290604052805190602001208787876040518663ffffffff1660e01b8152600401808673ffffffffffffffffffffffffffffffffffffffff1673ffffffffffffffffffffffffffffffffffffffff1681526020018581526020018460ff1660ff1681526020018381526020018281526020019550505050505060206040518083038186803b1580156114df57600080fd5b505afa1580156114f3573d6000803e3d6000fd5b505050506040513d602081101561150957600080fd5b810190808051906020019092919050505061156f576040517f08c379a0000000000000000000000000000000000000000000000000000000008152600401808060200182810382526029815260200180612da76029913960400191505060405180910390fd5b60036000828152602001908152602001600020600081548092919060010191905055506115d06002600083815260200190815260200160002060009054906101000a900473ffffffffffffffffffffffffffffffffffffffff1687876128ed565b50505050505050565b60008060009054906101000a900473ffffffffffffffffffffffffffffffffffffffff1673ffffffffffffffffffffffffffffffffffffffff166305c62c2f896040518263ffffffff1660e01b8152600401808273ffffffffffffffffffffffffffffffffffffffff1673ffffffffffffffffffffffffffffffffffffffff16815260200191505060206040518083038186803b15801561167957600080fd5b505afa15801561168d573d6000803e3d6000fd5b505050506040513d60208110156116a357600080fd5b810190808051906020019092919050505090506000809054906101000a900473ffffffffffffffffffffffffffffffffffffffff1673ffffffffffffffffffffffffffffffffffffffff16638677ebe889601960f81b600060f81b308c8c8c600360008b81526020019081526020016000205460405160200180887effffffffffffffffffffffffffffffffffffffffffffffffffffffffffffff19167effffffffffffffffffffffffffffffffffffffffffffffffffffffffffffff19168152600101877effffffffffffffffffffffffffffffffffffffffffffffffffffffffffffff19167effffffffffffffffffffffffffffffffffffffffffffffffffffffffffffff191681526001018673ffffffffffffffffffffffffffffffffffffffff1673ffffffffffffffffffffffffffffffffffffffff1660601b8152601401807f73657441747472696275746544656c656761746564000000000000000000000081525060150185815260200184805190602001908083835b602083106118435780518252602082019150602081019050602083039250611820565b6001836020036101000a038019825116818451168082178552505050505050905001838152602001828152602001975050505050505050604051602081830303815290604052805190602001208787876040518663ffffffff1660e01b8152600401808673ffffffffffffffffffffffffffffffffffffffff1673ffffffffffffffffffffffffffffffffffffffff1681526020018581526020018460ff1660ff1681526020018381526020018281526020019550505050505060206040518083038186803b15801561191557600080fd5b505afa158015611929573d6000803e3d6000fd5b505050506040513d602081101561193f57600080fd5b81019080805190602001909291905050506119a5576040517f08c379a0000000000000000000000000000000000000000000000000000000008152600401808060200182810382526029815260200180612da76029913960400191505060405180910390fd5b6003600082815260200190815260200160002060008154809291906001019190505550611a076002600083815260200190815260200160002060009054906101000a900473ffffffffffffffffffffffffffffffffffffffff16888888612a6d565b5050505050505050565b60008060009054906101000a900473ffffffffffffffffffffffffffffffffffffffff1673ffffffffffffffffffffffffffffffffffffffff166305c62c2f876040518263ffffffff1660e01b8152600401808273ffffffffffffffffffffffffffffffffffffffff1673ffffffffffffffffffffffffffffffffffffffff16815260200191505060206040518083038186803b158015611ab157600080fd5b505afa158015611ac5573d6000803e3d6000fd5b505050506040513d6020811015611adb57600080fd5b810190808051906020019092919050505090506000809054906101000a900473ffffffffffffffffffffffffffffffffffffffff1673ffffffffffffffffffffffffffffffffffffffff16638677ebe887601960f81b600060f81b308a600360008981526020019081526020016000205460405160200180867effffffffffffffffffffffffffffffffffffffffffffffffffffffffffffff19167effffffffffffffffffffffffffffffffffffffffffffffffffffffffffffff19168152600101857effffffffffffffffffffffffffffffffffffffffffffffffffffffffffffff19167effffffffffffffffffffffffffffffffffffffffffffffffffffffffffffff191681526001018473ffffffffffffffffffffffffffffffffffffffff1673ffffffffffffffffffffffffffffffffffffffff1660601b8152601401807f6368616e67654f776e657244656c6567617465640000000000000000000000008152506014018373ffffffffffffffffffffffffffffffffffffffff1673ffffffffffffffffffffffffffffffffffffffff1660601b815260140182815260200195505050505050604051602081830303815290604052805190602001208787876040518663ffffffff1660e01b8152600401808673ffffffffffffffffffffffffffffffffffffffff1673ffffffffffffffffffffffffffffffffffffffff1681526020018581526020018460ff1660ff1681526020018381526020018281526020019550505050505060206040518083038186803b158015611d2157600080fd5b505afa158015611d35573d6000803e3d6000fd5b505050506040513d6020811015611d4b57600080fd5b8101908080519060200190929190505050611db1576040517f08c379a0000000000000000000000000000000000000000000000000000000008152600401808060200182810382526029815260200180612da76029913960400191505060405180910390fd5b6003600082815260200190815260200160002060008154809291906001019190505550611e116002600083815260200190815260200160002060009054906101000a900473ffffffffffffffffffffffffffffffffffffffff1686612c2f565b505050505050565b60008060009054906101000a900473ffffffffffffffffffffffffffffffffffffffff1673ffffffffffffffffffffffffffffffffffffffff166305c62c2f336040518263ffffffff1660e01b8152600401808273ffffffffffffffffffffffffffffffffffffffff1673ffffffffffffffffffffffffffffffffffffffff16815260200191505060206040518083038186803b158015611eb957600080fd5b505afa158015611ecd573d6000803e3d6000fd5b505050506040513d6020811015611ee357600080fd5b81019080805190602001909291905050509050611f336002600083815260200190815260200160002060009054906101000a900473ffffffffffffffffffffffffffffffffffffffff1683612c2f565b5050565b60008060009054906101000a900473ffffffffffffffffffffffffffffffffffffffff1673ffffffffffffffffffffffffffffffffffffffff166305c62c2f336040518263ffffffff1660e01b8152600401808273ffffffffffffffffffffffffffffffffffffffff1673ffffffffffffffffffffffffffffffffffffffff16815260200191505060206040518083038186803b158015611fd757600080fd5b505afa158015611feb573d6000803e3d6000fd5b505050506040513d602081101561200157600080fd5b810190808051906020019092919050505090506120536002600083815260200190815260200160002060009054906101000a900473ffffffffffffffffffffffffffffffffffffffff16858585612764565b50505050565b60008060009054906101000a900473ffffffffffffffffffffffffffffffffffffffff1673ffffffffffffffffffffffffffffffffffffffff166305c62c2f336040518263ffffffff1660e01b8152600401808273ffffffffffffffffffffffffffffffffffffffff1673ffffffffffffffffffffffffffffffffffffffff16815260200191505060206040518083038186803b1580156120f957600080fd5b505afa15801561210d573d6000803e3d6000fd5b505050506040513d602081101561212357600080fd5b81019080805190602001909291905050509050600073ffffffffffffffffffffffffffffffffffffffff166002600083815260200190815260200160002060009054906101000a900473ffffffffffffffffffffffffffffffffffffffff1673ffffffffffffffffffffffffffffffffffffffff16146121ee576040517f08c379a0000000000000000000000000000000000000000000000000000000008152600401808060200182810382526025815260200180612df16025913960400191505060405180910390fd5b600160009054906101000a900473ffffffffffffffffffffffffffffffffffffffff1673ffffffffffffffffffffffffffffffffffffffff1663240cf1fa86868686306040518663ffffffff1660e01b8152600401808673ffffffffffffffffffffffffffffffffffffffff1673ffffffffffffffffffffffffffffffffffffffff1681526020018560ff1660ff1681526020018481526020018381526020018273ffffffffffffffffffffffffffffffffffffffff1673ffffffffffffffffffffffffffffffffffffffff16815260200195505050505050600060405180830381600087803b1580156122e157600080fd5b505af11580156122f5573d6000803e3d6000fd5b50505050846002600083815260200190815260200160002060006101000a81548173ffffffffffffffffffffffffffffffffffffffff021916908373ffffffffffffffffffffffffffffffffffffffff1602179055505050505050565b60036020528060005260406000206000915090505481565b60008060009054906101000a900473ffffffffffffffffffffffffffffffffffffffff1673ffffffffffffffffffffffffffffffffffffffff166305c62c2f336040518263ffffffff1660e01b8152600401808273ffffffffffffffffffffffffffffffffffffffff1673ffffffffffffffffffffffffffffffffffffffff16815260200191505060206040518083038186803b15801561240a57600080fd5b505afa15801561241e573d6000803e3d6000fd5b505050506040513d602081101561243457600080fd5b810190808051906020019092919050505090506124866002600083815260200190815260200160002060009054906101000a900473ffffffffffffffffffffffffffffffffffffffff16858585612a6d565b50505050565b60008060009054906101000a900473ffffffffffffffffffffffffffffffffffffffff1673ffffffffffffffffffffffffffffffffffffffff166305c62c2f336040518263ffffffff1660e01b8152600401808273ffffffffffffffffffffffffffffffffffffffff1673ffffffffffffffffffffffffffffffffffffffff16815260200191505060206040518083038186803b15801561252c57600080fd5b505afa158015612540573d6000803e3d6000fd5b505050506040513d602081101561255657600080fd5b810190808051906020019092919050505090506125a76002600083815260200190815260200160002060009054906101000a900473ffffffffffffffffffffffffffffffffffffffff1684846128ed565b505050565b600073ffffffffffffffffffffffffffffffffffffffff168373ffffffffffffffffffffffffffffffffffffffff161415612632576040517f08c379a0000000000000000000000000000000000000000000000000000000008152600401808060200182810382526021815260200180612dd06021913960400191505060405180910390fd5b600160009054906101000a900473ffffffffffffffffffffffffffffffffffffffff1673ffffffffffffffffffffffffffffffffffffffff1662c023da8484846040518463ffffffff1660e01b8152600401808473ffffffffffffffffffffffffffffffffffffffff1673ffffffffffffffffffffffffffffffffffffffff16815260200183815260200180602001828103825283818151815260200191508051906020019080838360005b838110156126f95780820151818401526020810190506126de565b50505050905090810190601f1680156127265780820380516001836020036101000a031916815260200191505b50945050505050600060405180830381600087803b15801561274757600080fd5b505af115801561275b573d6000803e3d6000fd5b50505050505050565b600073ffffffffffffffffffffffffffffffffffffffff168473ffffffffffffffffffffffffffffffffffffffff1614156127ea576040517f08c379a0000000000000000000000000000000000000000000000000000000008152600401808060200182810382526021815260200180612dd06021913960400191505060405180910390fd5b600160009054906101000a900473ffffffffffffffffffffffffffffffffffffffff1673ffffffffffffffffffffffffffffffffffffffff1663a7068d66858585856040518563ffffffff1660e01b8152600401808573ffffffffffffffffffffffffffffffffffffffff1673ffffffffffffffffffffffffffffffffffffffff1681526020018481526020018373ffffffffffffffffffffffffffffffffffffffff1673ffffffffffffffffffffffffffffffffffffffff168152602001828152602001945050505050600060405180830381600087803b1580156128cf57600080fd5b505af11580156128e3573d6000803e3d6000fd5b5050505050505050565b600073ffffffffffffffffffffffffffffffffffffffff168373ffffffffffffffffffffffffffffffffffffffff161415612973576040517f08c379a0000000000000000000000000000000000000000000000000000000008152600401808060200182810382526021815260200180612dd06021913960400191505060405180910390fd5b600160009054906101000a900473ffffffffffffffffffffffffffffffffffffffff1673ffffffffffffffffffffffffffffffffffffffff166380b29f7c8484846040518463ffffffff1660e01b8152600401808473ffffffffffffffffffffffffffffffffffffffff1673ffffffffffffffffffffffffffffffffffffffff1681526020018381526020018273ffffffffffffffffffffffffffffffffffffffff1673ffffffffffffffffffffffffffffffffffffffff1681526020019350505050600060405180830381600087803b158015612a5057600080fd5b505af1158015612a64573d6000803e3d6000fd5b50505050505050565b600073ffffffffffffffffffffffffffffffffffffffff168473ffffffffffffffffffffffffffffffffffffffff161415612af3576040517f08c379a0000000000000000000000000000000000000000000000000000000008152600401808060200182810382526021815260200180612dd06021913960400191505060405180910390fd5b600160009054906101000a900473ffffffffffffffffffffffffffffffffffffffff1673ffffffffffffffffffffffffffffffffffffffff16637ad4b0a4858585856040518563ffffffff1660e01b8152600401808573ffffffffffffffffffffffffffffffffffffffff1673ffffffffffffffffffffffffffffffffffffffff16815260200184815260200180602001838152602001828103825284818151815260200191508051906020019080838360005b83811015612bc2578082015181840152602081019050612ba7565b50505050905090810190601f168015612bef5780820380516001836020036101000a031916815260200191505b5095505050505050600060405180830381600087803b158015612c1157600080fd5b505af1158015612c25573d6000803e3d6000fd5b5050505050505050565b600073ffffffffffffffffffffffffffffffffffffffff168273ffffffffffffffffffffffffffffffffffffffff161415612cb5576040517f08c379a0000000000000000000000000000000000000000000000000000000008152600401808060200182810382526021815260200180612dd06021913960400191505060405180910390fd5b600160009054906101000a900473ffffffffffffffffffffffffffffffffffffffff1673ffffffffffffffffffffffffffffffffffffffff1663f00d4b5d83836040518363ffffffff1660e01b8152600401808373ffffffffffffffffffffffffffffffffffffffff1673ffffffffffffffffffffffffffffffffffffffff1681526020018273ffffffffffffffffffffffffffffffffffffffff1673ffffffffffffffffffffffffffffffffffffffff16815260200192505050600060405180830381600087803b158015612d8a57600080fd5b505af1158015612d9e573d6000803e3d6000fd5b50505050505056fe46756e6374696f6e20657865637574696f6e20697320696e636f72726563746c79207369676e65642e546869732045494e20686173206e6f74206265656e20696e697469616c697a6564546869732045494e2068617320616c7265616479206265656e20696e697469616c697a6564a165627a7a72305820ebf4723a236c06a98eccde5cccd150b79ec3f6b043064b61c710e8b1917b82960029",
  "source": "pragma solidity ^0.5.0;\n\nimport \"../interfaces/IdentityRegistryInterface.sol\";\nimport \"./EthereumDIDRegistryInterface.sol\";\n\ncontract ERC1056 {\n    IdentityRegistryInterface identityRegistry;\n    EthereumDIDRegistryInterface ethereumDIDRegistry;\n\n    constructor (address identityRegistryAddress, address ethereumDIDRegistryAddress) public {\n        identityRegistry = IdentityRegistryInterface(identityRegistryAddress);\n        ethereumDIDRegistry = EthereumDIDRegistryInterface(ethereumDIDRegistryAddress);\n    }\n\n    mapping(uint => address) public einToDID;\n    mapping(uint => uint) public actionNonce;\n\n    function initialize(address identity, uint8 v, bytes32 r, bytes32 s) public {\n        uint ein = identityRegistry.getEIN(msg.sender);\n        require(einToDID[ein] == address(0), \"This EIN has already been initialized\");\n        ethereumDIDRegistry.changeOwnerSigned(identity, v, r, s, address(this));\n        einToDID[ein] = identity;\n    }\n\n    function changeOwner(address newOwner) public {\n        uint ein = identityRegistry.getEIN(msg.sender);\n        _changeOwner(einToDID[ein], newOwner);\n    }\n\n    function changeOwnerDelegated(address approvingAddress, address newOwner, uint8 v, bytes32 r, bytes32 s) public {\n        uint ein = identityRegistry.getEIN(approvingAddress);\n        require(\n            identityRegistry.isSigned(\n                approvingAddress,\n                keccak256(\n                    abi.encodePacked(\n                        byte(0x19), byte(0), address(this), \"changeOwnerDelegated\", newOwner, actionNonce[ein]\n                    )\n                ),\n                v, r, s\n            ),\n            \"Function execution is incorrectly signed.\"\n        );\n        actionNonce[ein]++;\n        _changeOwner(einToDID[ein], newOwner);\n    }\n\n    function _changeOwner(address _did, address _newOwner) internal {\n        require(_did != address(0), \"This EIN has not been initialized\");\n        ethereumDIDRegistry.changeOwner(_did, _newOwner);\n    }\n\n    function addDelegate(bytes32 delegateType, address delegate, uint validity) public {\n        uint ein = identityRegistry.getEIN(msg.sender);\n        _addDelegate(einToDID[ein], delegateType, delegate, validity);\n    }\n\n    function addDelegateDelegated(\n        address approvingAddress, bytes32 delegateType, address delegate, uint validity, uint8 v, bytes32 r, bytes32 s\n    )\n        public\n    {\n        uint ein = identityRegistry.getEIN(approvingAddress);\n        require(\n            identityRegistry.isSigned(\n                approvingAddress,\n                keccak256(\n                    abi.encodePacked(\n                        byte(0x19), byte(0), address(this),\n                        \"addDelegateDelegated\", delegateType, delegate, validity, actionNonce[ein]\n                    )\n                ),\n                v, r, s\n            ),\n            \"Function execution is incorrectly signed.\"\n        );\n        actionNonce[ein]++;\n        _addDelegate(einToDID[ein], delegateType, delegate, validity);\n    }\n\n    function _addDelegate(address _did, bytes32 _delegateType, address _delegate, uint _validity) internal {\n        require(_did != address(0), \"This EIN has not been initialized\");\n        ethereumDIDRegistry.addDelegate(_did, _delegateType, _delegate, _validity);\n    }\n\n    function revokeDelegate(bytes32 delegateType, address delegate) public {\n        uint ein = identityRegistry.getEIN(msg.sender);\n        _revokeDelegate(einToDID[ein], delegateType, delegate);\n    }\n\n    function revokeDelegateDelegated(\n        address approvingAddress, bytes32 delegateType, address delegate, uint8 v, bytes32 r, bytes32 s\n    )\n        public\n    {\n        uint ein = identityRegistry.getEIN(approvingAddress);\n        require(\n            identityRegistry.isSigned(\n                approvingAddress,\n                keccak256(\n                    abi.encodePacked(\n                        byte(0x19), byte(0), address(this),\n                        \"revokeDelegateDelegated\", delegateType, delegate, actionNonce[ein]\n                    )\n                ),\n                v, r, s\n            ),\n            \"Function execution is incorrectly signed.\"\n        );\n        actionNonce[ein]++;\n        _revokeDelegate(einToDID[ein], delegateType, delegate);\n    }\n\n    function _revokeDelegate(address _did, bytes32 _delegateType, address _delegate) internal {\n        require(_did != address(0), \"This EIN has not been initialized\");\n        ethereumDIDRegistry.revokeDelegate(_did, _delegateType, _delegate);\n    }\n\n    function setAttribute(bytes32 name, bytes memory value, uint validity) public {\n        uint ein = identityRegistry.getEIN(msg.sender);\n        _setAttribute(einToDID[ein], name, value, validity);\n    }\n\n    function setAttributeDelegated(\n        address approvingAddress, bytes32 name, bytes memory value, uint validity, uint8 v, bytes32 r, bytes32 s\n    )\n        public\n    {\n        uint ein = identityRegistry.getEIN(approvingAddress);\n        require(\n            identityRegistry.isSigned(\n                approvingAddress,\n                keccak256(\n                    abi.encodePacked(\n                        byte(0x19), byte(0), address(this),\n                        \"setAttributeDelegated\", name, value, validity, actionNonce[ein]\n                    )\n                ),\n                v, r, s\n            ),\n            \"Function execution is incorrectly signed.\"\n        );\n        actionNonce[ein]++;\n        _setAttribute(einToDID[ein], name, value, validity);\n    }\n\n    function _setAttribute(address _did, bytes32 _name, bytes memory _value, uint _validity) internal {\n        require(_did != address(0), \"This EIN has not been initialized\");\n        ethereumDIDRegistry.setAttribute(_did, _name, _value, _validity);\n    }\n\n    function revokeAttribute(bytes32 name, bytes memory value) public {\n        uint ein = identityRegistry.getEIN(msg.sender);\n        _revokeAttribute(einToDID[ein], name, value);\n    }\n\n    function revokeAttributeDelegated(\n        address approvingAddress, bytes32 name, bytes memory value, uint8 v, bytes32 r, bytes32 s\n    )\n        public\n    {\n        uint ein = identityRegistry.getEIN(approvingAddress);\n        require(\n            identityRegistry.isSigned(\n                approvingAddress,\n                keccak256(\n                    abi.encodePacked(\n                        byte(0x19), byte(0), address(this),\n                        \"revokeAttributeDelegated\", name, value, actionNonce[ein]\n                    )\n                ),\n                v, r, s\n            ),\n            \"Function execution is incorrectly signed.\"\n        );\n        actionNonce[ein]++;\n        _revokeAttribute(einToDID[ein], name, value);\n    }\n\n    function _revokeAttribute(address _did, bytes32 _name, bytes memory _value) internal {\n        require(_did != address(0), \"This EIN has not been initialized\");\n        ethereumDIDRegistry.revokeAttribute(_did, _name, _value);\n    }\n}",
  "sourcePath": "/Users/user/idhub/did-plus-contract/contracts/Resolver/ERC1056.sol",
  "compiler": {
    "name": "solc",
    "version": "0.5.8+commit.23d335f2.Emscripten.clang"
  },
  "schemaVersion": "3.0.11",
  "updatedAt": "2019-07-30T03:58:17.090Z",
  "devdoc": {
    "methods": {}
  },
  "userdoc": {
    "methods": {}
  }
}