{
  "contractName": "IdentityRegistry",
  "abi": [
    {
      "constant": true,
      "inputs": [],
      "name": "recoveryTimeout",
      "outputs": [
        {
          "name": "",
          "type": "uint256"
        }
      ],
      "payable": false,
      "stateMutability": "view",
      "type": "function"
    },
    {
      "constant": true,
      "inputs": [],
      "name": "signatureTimeout",
      "outputs": [
        {
          "name": "",
          "type": "uint256"
        }
      ],
      "payable": false,
      "stateMutability": "view",
      "type": "function"
    },
    {
      "constant": true,
      "inputs": [
        {
          "name": "_address",
          "type": "address"
        },
        {
          "name": "messageHash",
          "type": "bytes32"
        },
        {
          "name": "v",
          "type": "uint8"
        },
        {
          "name": "r",
          "type": "bytes32"
        },
        {
          "name": "s",
          "type": "bytes32"
        }
      ],
      "name": "isSigned",
      "outputs": [
        {
          "name": "",
          "type": "bool"
        }
      ],
      "payable": false,
      "stateMutability": "pure",
      "type": "function"
    },
    {
      "constant": true,
      "inputs": [],
      "name": "nextEIN",
      "outputs": [
        {
          "name": "",
          "type": "uint256"
        }
      ],
      "payable": false,
      "stateMutability": "view",
      "type": "function"
    },
    {
      "constant": true,
      "inputs": [],
      "name": "maxAssociatedAddresses",
      "outputs": [
        {
          "name": "",
          "type": "uint256"
        }
      ],
      "payable": false,
      "stateMutability": "view",
      "type": "function"
    },
    {
      "anonymous": false,
      "inputs": [
        {
          "indexed": true,
          "name": "initiator",
          "type": "address"
        },
        {
          "indexed": true,
          "name": "ein",
          "type": "uint256"
        },
        {
          "indexed": false,
          "name": "recoveryAddress",
          "type": "address"
        },
        {
          "indexed": false,
          "name": "associatedAddress",
          "type": "address"
        },
        {
          "indexed": false,
          "name": "providers",
          "type": "address[]"
        },
        {
          "indexed": false,
          "name": "resolvers",
          "type": "address[]"
        },
        {
          "indexed": false,
          "name": "delegated",
          "type": "bool"
        }
      ],
      "name": "IdentityCreated",
      "type": "event"
    },
    {
      "anonymous": false,
      "inputs": [
        {
          "indexed": true,
          "name": "initiator",
          "type": "address"
        },
        {
          "indexed": true,
          "name": "ein",
          "type": "uint256"
        },
        {
          "indexed": false,
          "name": "approvingAddress",
          "type": "address"
        },
        {
          "indexed": false,
          "name": "addedAddress",
          "type": "address"
        },
        {
          "indexed": false,
          "name": "delegated",
          "type": "bool"
        }
      ],
      "name": "AssociatedAddressAdded",
      "type": "event"
    },
    {
      "anonymous": false,
      "inputs": [
        {
          "indexed": true,
          "name": "initiator",
          "type": "address"
        },
        {
          "indexed": true,
          "name": "ein",
          "type": "uint256"
        },
        {
          "indexed": false,
          "name": "removedAddress",
          "type": "address"
        },
        {
          "indexed": false,
          "name": "delegated",
          "type": "bool"
        }
      ],
      "name": "AssociatedAddressRemoved",
      "type": "event"
    },
    {
      "anonymous": false,
      "inputs": [
        {
          "indexed": true,
          "name": "initiator",
          "type": "address"
        },
        {
          "indexed": true,
          "name": "ein",
          "type": "uint256"
        },
        {
          "indexed": false,
          "name": "provider",
          "type": "address"
        },
        {
          "indexed": false,
          "name": "delegated",
          "type": "bool"
        }
      ],
      "name": "ProviderAdded",
      "type": "event"
    },
    {
      "anonymous": false,
      "inputs": [
        {
          "indexed": true,
          "name": "initiator",
          "type": "address"
        },
        {
          "indexed": true,
          "name": "ein",
          "type": "uint256"
        },
        {
          "indexed": false,
          "name": "provider",
          "type": "address"
        },
        {
          "indexed": false,
          "name": "delegated",
          "type": "bool"
        }
      ],
      "name": "ProviderRemoved",
      "type": "event"
    },
    {
      "anonymous": false,
      "inputs": [
        {
          "indexed": true,
          "name": "initiator",
          "type": "address"
        },
        {
          "indexed": true,
          "name": "ein",
          "type": "uint256"
        },
        {
          "indexed": false,
          "name": "resolvers",
          "type": "address"
        },
        {
          "indexed": false,
          "name": "delegated",
          "type": "bool"
        }
      ],
      "name": "ResolverAdded",
      "type": "event"
    },
    {
      "anonymous": false,
      "inputs": [
        {
          "indexed": true,
          "name": "initiator",
          "type": "address"
        },
        {
          "indexed": true,
          "name": "ein",
          "type": "uint256"
        },
        {
          "indexed": false,
          "name": "resolvers",
          "type": "address"
        },
        {
          "indexed": false,
          "name": "delegated",
          "type": "bool"
        }
      ],
      "name": "ResolverRemoved",
      "type": "event"
    },
    {
      "anonymous": false,
      "inputs": [
        {
          "indexed": true,
          "name": "initiator",
          "type": "address"
        },
        {
          "indexed": true,
          "name": "ein",
          "type": "uint256"
        },
        {
          "indexed": false,
          "name": "oldRecoveryAddress",
          "type": "address"
        },
        {
          "indexed": false,
          "name": "newRecoveryAddress",
          "type": "address"
        },
        {
          "indexed": false,
          "name": "delegated",
          "type": "bool"
        }
      ],
      "name": "RecoveryAddressChangeTriggered",
      "type": "event"
    },
    {
      "anonymous": false,
      "inputs": [
        {
          "indexed": true,
          "name": "initiator",
          "type": "address"
        },
        {
          "indexed": true,
          "name": "ein",
          "type": "uint256"
        },
        {
          "indexed": false,
          "name": "oldAssociatedAddresses",
          "type": "address[]"
        },
        {
          "indexed": false,
          "name": "newAssociatedAddress",
          "type": "address"
        }
      ],
      "name": "RecoveryTriggered",
      "type": "event"
    },
    {
      "anonymous": false,
      "inputs": [
        {
          "indexed": true,
          "name": "initiator",
          "type": "address"
        },
        {
          "indexed": true,
          "name": "ein",
          "type": "uint256"
        },
        {
          "indexed": false,
          "name": "recoveryAddress",
          "type": "address"
        },
        {
          "indexed": false,
          "name": "resolversReset",
          "type": "bool"
        }
      ],
      "name": "IdentityDestroyed",
      "type": "event"
    },
    {
      "constant": true,
      "inputs": [
        {
          "name": "ein",
          "type": "uint256"
        }
      ],
      "name": "identityExists",
      "outputs": [
        {
          "name": "",
          "type": "bool"
        }
      ],
      "payable": false,
      "stateMutability": "view",
      "type": "function"
    },
    {
      "constant": true,
      "inputs": [
        {
          "name": "_address",
          "type": "address"
        }
      ],
      "name": "hasIdentity",
      "outputs": [
        {
          "name": "",
          "type": "bool"
        }
      ],
      "payable": false,
      "stateMutability": "view",
      "type": "function"
    },
    {
      "constant": true,
      "inputs": [
        {
          "name": "_address",
          "type": "address"
        }
      ],
      "name": "getEIN",
      "outputs": [
        {
          "name": "ein",
          "type": "uint256"
        }
      ],
      "payable": false,
      "stateMutability": "view",
      "type": "function"
    },
    {
      "constant": true,
      "inputs": [
        {
          "name": "ein",
          "type": "uint256"
        },
        {
          "name": "_address",
          "type": "address"
        }
      ],
      "name": "isAssociatedAddressFor",
      "outputs": [
        {
          "name": "",
          "type": "bool"
        }
      ],
      "payable": false,
      "stateMutability": "view",
      "type": "function"
    },
    {
      "constant": true,
      "inputs": [
        {
          "name": "ein",
          "type": "uint256"
        },
        {
          "name": "provider",
          "type": "address"
        }
      ],
      "name": "isProviderFor",
      "outputs": [
        {
          "name": "",
          "type": "bool"
        }
      ],
      "payable": false,
      "stateMutability": "view",
      "type": "function"
    },
    {
      "constant": true,
      "inputs": [
        {
          "name": "ein",
          "type": "uint256"
        },
        {
          "name": "resolver",
          "type": "address"
        }
      ],
      "name": "isResolverFor",
      "outputs": [
        {
          "name": "",
          "type": "bool"
        }
      ],
      "payable": false,
      "stateMutability": "view",
      "type": "function"
    },
    {
      "constant": true,
      "inputs": [
        {
          "name": "ein",
          "type": "uint256"
        }
      ],
      "name": "getIdentity",
      "outputs": [
        {
          "name": "recoveryAddress",
          "type": "address"
        },
        {
          "name": "associatedAddresses",
          "type": "address[]"
        },
        {
          "name": "providers",
          "type": "address[]"
        },
        {
          "name": "resolvers",
          "type": "address[]"
        }
      ],
      "payable": false,
      "stateMutability": "view",
      "type": "function"
    },
    {
      "constant": false,
      "inputs": [
        {
          "name": "recoveryAddress",
          "type": "address"
        },
        {
          "name": "associatedAddress",
          "type": "address"
        },
        {
          "name": "providers",
          "type": "address[]"
        },
        {
          "name": "resolvers",
          "type": "address[]"
        },
        {
          "name": "v",
          "type": "uint8"
        },
        {
          "name": "r",
          "type": "bytes32"
        },
        {
          "name": "s",
          "type": "bytes32"
        },
        {
          "name": "timestamp",
          "type": "uint256"
        }
      ],
      "name": "createIdentityDelegated",
      "outputs": [
        {
          "name": "ein",
          "type": "uint256"
        }
      ],
      "payable": false,
      "stateMutability": "nonpayable",
      "type": "function"
    },
    {
      "constant": false,
      "inputs": [
        {
          "name": "recoveryAddress",
          "type": "address"
        },
        {
          "name": "providers",
          "type": "address[]"
        },
        {
          "name": "resolvers",
          "type": "address[]"
        }
      ],
      "name": "createIdentity",
      "outputs": [
        {
          "name": "ein",
          "type": "uint256"
        }
      ],
      "payable": false,
      "stateMutability": "nonpayable",
      "type": "function"
    },
    {
      "constant": false,
      "inputs": [
        {
          "name": "approvingAddress",
          "type": "address"
        },
        {
          "name": "addressToAdd",
          "type": "address"
        },
        {
          "name": "v",
          "type": "uint8[2]"
        },
        {
          "name": "r",
          "type": "bytes32[2]"
        },
        {
          "name": "s",
          "type": "bytes32[2]"
        },
        {
          "name": "timestamp",
          "type": "uint256[2]"
        }
      ],
      "name": "addAssociatedAddressDelegated",
      "outputs": [],
      "payable": false,
      "stateMutability": "nonpayable",
      "type": "function"
    },
    {
      "constant": false,
      "inputs": [
        {
          "name": "approvingAddress",
          "type": "address"
        },
        {
          "name": "addressToAdd",
          "type": "address"
        },
        {
          "name": "v",
          "type": "uint8"
        },
        {
          "name": "r",
          "type": "bytes32"
        },
        {
          "name": "s",
          "type": "bytes32"
        },
        {
          "name": "timestamp",
          "type": "uint256"
        }
      ],
      "name": "addAssociatedAddress",
      "outputs": [],
      "payable": false,
      "stateMutability": "nonpayable",
      "type": "function"
    },
    {
      "constant": false,
      "inputs": [
        {
          "name": "addressToRemove",
          "type": "address"
        },
        {
          "name": "v",
          "type": "uint8"
        },
        {
          "name": "r",
          "type": "bytes32"
        },
        {
          "name": "s",
          "type": "bytes32"
        },
        {
          "name": "timestamp",
          "type": "uint256"
        }
      ],
      "name": "removeAssociatedAddressDelegated",
      "outputs": [],
      "payable": false,
      "stateMutability": "nonpayable",
      "type": "function"
    },
    {
      "constant": false,
      "inputs": [],
      "name": "removeAssociatedAddress",
      "outputs": [],
      "payable": false,
      "stateMutability": "nonpayable",
      "type": "function"
    },
    {
      "constant": false,
      "inputs": [
        {
          "name": "ein",
          "type": "uint256"
        },
        {
          "name": "providers",
          "type": "address[]"
        }
      ],
      "name": "addProvidersFor",
      "outputs": [],
      "payable": false,
      "stateMutability": "nonpayable",
      "type": "function"
    },
    {
      "constant": false,
      "inputs": [
        {
          "name": "providers",
          "type": "address[]"
        }
      ],
      "name": "addProviders",
      "outputs": [],
      "payable": false,
      "stateMutability": "nonpayable",
      "type": "function"
    },
    {
      "constant": false,
      "inputs": [
        {
          "name": "ein",
          "type": "uint256"
        },
        {
          "name": "providers",
          "type": "address[]"
        }
      ],
      "name": "removeProvidersFor",
      "outputs": [],
      "payable": false,
      "stateMutability": "nonpayable",
      "type": "function"
    },
    {
      "constant": false,
      "inputs": [
        {
          "name": "providers",
          "type": "address[]"
        }
      ],
      "name": "removeProviders",
      "outputs": [],
      "payable": false,
      "stateMutability": "nonpayable",
      "type": "function"
    },
    {
      "constant": false,
      "inputs": [
        {
          "name": "ein",
          "type": "uint256"
        },
        {
          "name": "resolvers",
          "type": "address[]"
        }
      ],
      "name": "addResolversFor",
      "outputs": [],
      "payable": false,
      "stateMutability": "nonpayable",
      "type": "function"
    },
    {
      "constant": false,
      "inputs": [
        {
          "name": "resolvers",
          "type": "address[]"
        }
      ],
      "name": "addResolvers",
      "outputs": [],
      "payable": false,
      "stateMutability": "nonpayable",
      "type": "function"
    },
    {
      "constant": false,
      "inputs": [
        {
          "name": "ein",
          "type": "uint256"
        },
        {
          "name": "resolvers",
          "type": "address[]"
        }
      ],
      "name": "removeResolversFor",
      "outputs": [],
      "payable": false,
      "stateMutability": "nonpayable",
      "type": "function"
    },
    {
      "constant": false,
      "inputs": [
        {
          "name": "resolvers",
          "type": "address[]"
        }
      ],
      "name": "removeResolvers",
      "outputs": [],
      "payable": false,
      "stateMutability": "nonpayable",
      "type": "function"
    },
    {
      "constant": false,
      "inputs": [
        {
          "name": "ein",
          "type": "uint256"
        },
        {
          "name": "newRecoveryAddress",
          "type": "address"
        }
      ],
      "name": "triggerRecoveryAddressChangeFor",
      "outputs": [],
      "payable": false,
      "stateMutability": "nonpayable",
      "type": "function"
    },
    {
      "constant": false,
      "inputs": [
        {
          "name": "newRecoveryAddress",
          "type": "address"
        }
      ],
      "name": "triggerRecoveryAddressChange",
      "outputs": [],
      "payable": false,
      "stateMutability": "nonpayable",
      "type": "function"
    },
    {
      "constant": false,
      "inputs": [
        {
          "name": "ein",
          "type": "uint256"
        },
        {
          "name": "newAssociatedAddress",
          "type": "address"
        },
        {
          "name": "v",
          "type": "uint8"
        },
        {
          "name": "r",
          "type": "bytes32"
        },
        {
          "name": "s",
          "type": "bytes32"
        },
        {
          "name": "timestamp",
          "type": "uint256"
        }
      ],
      "name": "triggerRecovery",
      "outputs": [],
      "payable": false,
      "stateMutability": "nonpayable",
      "type": "function"
    },
    {
      "constant": false,
      "inputs": [
        {
          "name": "ein",
          "type": "uint256"
        },
        {
          "name": "firstChunk",
          "type": "address[]"
        },
        {
          "name": "lastChunk",
          "type": "address[]"
        },
        {
          "name": "resetResolvers",
          "type": "bool"
        }
      ],
      "name": "triggerDestruction",
      "outputs": [],
      "payable": false,
      "stateMutability": "nonpayable",
      "type": "function"
    }
  ],
  "bytecode": "0x608060405260016002556032600355620151806004556212750060075534801561002857600080fd5b50614ed2806100386000396000f3fe608060405234801561001057600080fd5b50600436106101da5760003560e01c80635b5aed3a11610104578063a687662d116100a2578063d4b1cdcc11610071578063d4b1cdcc14611173578063dd9ad9ed146111d9578063e846fd9114611248578063fa57b57614611300576101da565b8063a687662d14610ece578063ab5f678114610f34578063ab9a85381461109d578063b8a5c2a6146110bb576101da565b80638677ebe8116100de5780638677ebe814610cee5780638e1bb63314610d75578063960b11f514610dee578063a1707e7b14610eb0576101da565b80635b5aed3a14610aaa5780637d07995114610af057806385e3f05814610ba8576101da565b8063237f1a211161017c5780633b4656a11161014b5780633b4656a11461095a57806353a9698a146109645780635437b67c146109ca5780635726f660146109e8576101da565b8063237f1a21146106a15780632501faa5146106fd578063268e89701461074b5780633aedf3c9146108cb576101da565b806314d8b821116101b857806314d8b821146103bb57806314fb5646146103d95780631bfe3508146105a5578063232e7d83146105e9576101da565b8063010887dc146101df57806305c62c2f146102a157806306c93c36146102f9575b600080fd5b61029f600480360360408110156101f557600080fd5b81019080803590602001909291908035906020019064010000000081111561021c57600080fd5b82018360208201111561022e57600080fd5b8035906020019184602083028401116401000000008311171561025057600080fd5b919080806020026020016040519081016040528093929190818152602001838360200280828437600081840152601f19601f820116905080830192505050505050509192919290505050611462565b005b6102e3600480360360208110156102b757600080fd5b81019080803573ffffffffffffffffffffffffffffffffffffffff1690602001909291905050506114d3565b6040518082815260200191505060405180910390f35b6103b96004803603604081101561030f57600080fd5b81019080803590602001909291908035906020019064010000000081111561033657600080fd5b82018360208201111561034857600080fd5b8035906020019184602083028401116401000000008311171561036a57600080fd5b919080806020026020016040519081016040528093929190818152602001838360200280828437600081840152601f19601f820116905080830192505050505050509192919290505050611614565b005b6103c3611685565b6040518082815260200191505060405180910390f35b61058f60048036036101008110156103f057600080fd5b81019080803573ffffffffffffffffffffffffffffffffffffffff169060200190929190803573ffffffffffffffffffffffffffffffffffffffff1690602001909291908035906020019064010000000081111561044d57600080fd5b82018360208201111561045f57600080fd5b8035906020019184602083028401116401000000008311171561048157600080fd5b919080806020026020016040519081016040528093929190818152602001838360200280828437600081840152601f19601f820116905080830192505050505050509192919290803590602001906401000000008111156104e157600080fd5b8201836020820111156104f357600080fd5b8035906020019184602083028401116401000000008311171561051557600080fd5b919080806020026020016040519081016040528093929190818152602001838360200280828437600081840152601f19601f820116905080830192505050505050509192919290803560ff16906020019092919080359060200190929190803590602001909291908035906020019092919050505061168b565b6040518082815260200191505060405180910390f35b6105e7600480360360208110156105bb57600080fd5b81019080803573ffffffffffffffffffffffffffffffffffffffff16906020019092919050505061198f565b005b61069f600480360360208110156105ff57600080fd5b810190808035906020019064010000000081111561061c57600080fd5b82018360208201111561062e57600080fd5b8035906020019184602083028401116401000000008311171561065057600080fd5b919080806020026020016040519081016040528093929190818152602001838360200280828437600081840152601f19601f8201169050808301925050505050505091929192905050506119a6565b005b6106e3600480360360208110156106b757600080fd5b81019080803573ffffffffffffffffffffffffffffffffffffffff1690602001909291905050506119bd565b604051808215151515815260200191505060405180910390f35b6107496004803603604081101561071357600080fd5b8101908080359060200190929190803573ffffffffffffffffffffffffffffffffffffffff169060200190929190505050611a0e565b005b6108b56004803603606081101561076157600080fd5b81019080803573ffffffffffffffffffffffffffffffffffffffff1690602001909291908035906020019064010000000081111561079e57600080fd5b8201836020820111156107b057600080fd5b803590602001918460208302840111640100000000831117156107d257600080fd5b919080806020026020016040519081016040528093929190818152602001838360200280828437600081840152601f19601f8201169050808301925050505050505091929192908035906020019064010000000081111561083257600080fd5b82018360208201111561084457600080fd5b8035906020019184602083028401116401000000008311171561086657600080fd5b919080806020026020016040519081016040528093929190818152602001838360200280828437600081840152601f19601f820116905080830192505050505050509192919290505050611a7f565b6040518082815260200191505060405180910390f35b610958600480360360c08110156108e157600080fd5b81019080803573ffffffffffffffffffffffffffffffffffffffff169060200190929190803573ffffffffffffffffffffffffffffffffffffffff169060200190929190803560ff169060200190929190803590602001909291908035906020019092919080359060200190929190505050611a98565b005b610962611f11565b005b6109b06004803603604081101561097a57600080fd5b8101908080359060200190929190803573ffffffffffffffffffffffffffffffffffffffff169060200190929190505050611fb3565b604051808215151515815260200191505060405180910390f35b6109d2611fe4565b6040518082815260200191505060405180910390f35b610aa8600480360360408110156109fe57600080fd5b810190808035906020019092919080359060200190640100000000811115610a2557600080fd5b820183602082011115610a3757600080fd5b80359060200191846020830284011164010000000083111715610a5957600080fd5b919080806020026020016040519081016040528093929190818152602001838360200280828437600081840152601f19601f820116905080830192505050505050509192919290505050611fea565b005b610ad660048036036020811015610ac057600080fd5b810190808035906020019092919050505061205b565b604051808215151515815260200191505060405180910390f35b610ba660048036036020811015610b0657600080fd5b8101908080359060200190640100000000811115610b2357600080fd5b820183602082011115610b3557600080fd5b80359060200191846020830284011164010000000083111715610b5757600080fd5b919080806020026020016040519081016040528093929190818152602001838360200280828437600081840152601f19601f820116905080830192505050505050509192919290505050612075565b005b610bd460048036036020811015610bbe57600080fd5b810190808035906020019092919050505061208c565b604051808573ffffffffffffffffffffffffffffffffffffffff1673ffffffffffffffffffffffffffffffffffffffff168152602001806020018060200180602001848103845287818151815260200191508051906020019060200280838360005b83811015610c51578082015181840152602081019050610c36565b50505050905001848103835286818151815260200191508051906020019060200280838360005b83811015610c93578082015181840152602081019050610c78565b50505050905001848103825285818151815260200191508051906020019060200280838360005b83811015610cd5578082015181840152602081019050610cba565b5050505090500197505050505050505060405180910390f35b610d5b600480360360a0811015610d0457600080fd5b81019080803573ffffffffffffffffffffffffffffffffffffffff16906020019092919080359060200190929190803560ff1690602001909291908035906020019092919080359060200190929190505050612308565b604051808215151515815260200191505060405180910390f35b610dec600480360360c0811015610d8b57600080fd5b8101908080359060200190929190803573ffffffffffffffffffffffffffffffffffffffff169060200190929190803560ff169060200190929190803590602001909291908035906020019092919080359060200190929190505050612336565b005b610eae60048036036040811015610e0457600080fd5b810190808035906020019092919080359060200190640100000000811115610e2b57600080fd5b820183602082011115610e3d57600080fd5b80359060200191846020830284011164010000000083111715610e5f57600080fd5b919080806020026020016040519081016040528093929190818152602001838360200280828437600081840152601f19601f820116905080830192505050505050509192919290505050612ae6565b005b610eb8612b57565b6040518082815260200191505060405180910390f35b610f1a60048036036040811015610ee457600080fd5b8101908080359060200190929190803573ffffffffffffffffffffffffffffffffffffffff169060200190929190505050612b5d565b604051808215151515815260200191505060405180910390f35b61109b6004803603610140811015610f4b57600080fd5b81019080803573ffffffffffffffffffffffffffffffffffffffff169060200190929190803573ffffffffffffffffffffffffffffffffffffffff16906020019092919080604001906002806020026040519081016040528092919082600260200280828437600081840152601f19601f820116905080830192505050505050919291929080604001906002806020026040519081016040528092919082600260200280828437600081840152601f19601f820116905080830192505050505050919291929080604001906002806020026040519081016040528092919082600260200280828437600081840152601f19601f820116905080830192505050505050919291929080604001906002806020026040519081016040528092919082600260200280828437600081840152601f19601f8201169050808301925050505050509192919290505050612b8e565b005b6110a5613174565b6040518082815260200191505060405180910390f35b611171600480360360208110156110d157600080fd5b81019080803590602001906401000000008111156110ee57600080fd5b82018360208201111561110057600080fd5b8035906020019184602083028401116401000000008311171561112257600080fd5b919080806020026020016040519081016040528093929190818152602001838360200280828437600081840152601f19601f82011690508083019250505050505050919291929050505061317a565b005b6111bf6004803603604081101561118957600080fd5b8101908080359060200190929190803573ffffffffffffffffffffffffffffffffffffffff169060200190929190505050613191565b604051808215151515815260200191505060405180910390f35b611246600480360360a08110156111ef57600080fd5b81019080803573ffffffffffffffffffffffffffffffffffffffff169060200190929190803560ff1690602001909291908035906020019092919080359060200190929190803590602001909291905050506131c2565b005b6112fe6004803603602081101561125e57600080fd5b810190808035906020019064010000000081111561127b57600080fd5b82018360208201111561128d57600080fd5b803590602001918460208302840111640100000000831117156112af57600080fd5b919080806020026020016040519081016040528093929190818152602001838360200280828437600081840152601f19601f8201169050808301925050505050505091929192905050506134b6565b005b6114606004803603608081101561131657600080fd5b81019080803590602001909291908035906020019064010000000081111561133d57600080fd5b82018360208201111561134f57600080fd5b8035906020019184602083028401116401000000008311171561137157600080fd5b919080806020026020016040519081016040528093929190818152602001838360200280828437600081840152601f19601f820116905080830192505050505050509192919290803590602001906401000000008111156113d157600080fd5b8201836020820111156113e357600080fd5b8035906020019184602083028401116401000000008311171561140557600080fd5b919080806020026020016040519081016040528093929190818152602001838360200280828437600081840152601f19601f8201169050808301925050505050505091929192908035151590602001909291905050506134cd565b005b8161146d8133611fb3565b6114c2576040517f08c379a000000000000000000000000000000000000000000000000000000000815260040180806020018281038252602d815260200180614c99602d913960400191505060405180910390fd5b6114ce838360016137e9565b505050565b60008160018015156114e4836119bd565b1515148161150a57604051806060016040528060328152602001614de260329139611524565b604051806060016040528060388152602001614e14603891395b906115ca576040517f08c379a00000000000000000000000000000000000000000000000000000000081526004018080602001828103825283818151815260200191508051906020019080838360005b8381101561158f578082015181840152602081019050611574565b50505050905090810190601f1680156115bc5780820380516001836020036101000a031916815260200191505b509250505060405180910390fd5b50600160008573ffffffffffffffffffffffffffffffffffffffff1673ffffffffffffffffffffffffffffffffffffffff1681526020019081526020016000205492505050919050565b8161161f8133611fb3565b611674576040517f08c379a000000000000000000000000000000000000000000000000000000000815260040180806020018281038252602d815260200180614c99602d913960400191505060405180910390fd5b611680838360016138e2565b505050565b60075481565b6000818042101580156116a15750600454810142105b611713576040517f08c379a00000000000000000000000000000000000000000000000000000000081526004018080602001828103825260178152602001807f54696d657374616d70206973206e6f742076616c69642e00000000000000000081525060200191505060405180910390fd5b61190089601960f81b600060f81b308e8e8e8e8b60405160200180897effffffffffffffffffffffffffffffffffffffffffffffffffffffffffffff19167effffffffffffffffffffffffffffffffffffffffffffffffffffffffffffff19168152600101887effffffffffffffffffffffffffffffffffffffffffffffffffffffffffffff19167effffffffffffffffffffffffffffffffffffffffffffffffffffffffffffff191681526001018773ffffffffffffffffffffffffffffffffffffffff1673ffffffffffffffffffffffffffffffffffffffff1660601b815260140180614cfc603591396035018673ffffffffffffffffffffffffffffffffffffffff1673ffffffffffffffffffffffffffffffffffffffff1660601b81526014018573ffffffffffffffffffffffffffffffffffffffff1673ffffffffffffffffffffffffffffffffffffffff1660601b8152601401848051906020019060200280838360005b8381101561189857808201518184015260208101905061187d565b50505050905001838051906020019060200280838360005b838110156118cb5780820151818401526020810190506118b0565b505050509050018281526020019850505050505050505060405160208183030381529060405280519060200120888888612308565b611972576040517f08c379a00000000000000000000000000000000000000000000000000000000081526004018080602001828103825260128152602001807f5065726d697373696f6e2064656e6965642e000000000000000000000000000081525060200191505060405180910390fd5b6119808a8a8a8a60016139db565b91505098975050505050505050565b6119a361199b336114d3565b826000613cbe565b50565b6119ba6119b2336114d3565b8260006138e2565b50565b6000611a07600160008473ffffffffffffffffffffffffffffffffffffffff1673ffffffffffffffffffffffffffffffffffffffff1681526020019081526020016000205461205b565b9050919050565b81611a198133611fb3565b611a6e576040517f08c379a000000000000000000000000000000000000000000000000000000000815260040180806020018281038252602d815260200180614c99602d913960400191505060405180910390fd5b611a7a83836001613cbe565b505050565b6000611a8f8433858560006139db565b90509392505050565b80804210158015611aac5750600454810142105b611b1e576040517f08c379a00000000000000000000000000000000000000000000000000000000081526004018080602001828103825260178152602001807f54696d657374616d70206973206e6f742076616c69642e00000000000000000081525060200191505060405180910390fd5b60008773ffffffffffffffffffffffffffffffffffffffff163373ffffffffffffffffffffffffffffffffffffffff161490508080611b8857508673ffffffffffffffffffffffffffffffffffffffff163373ffffffffffffffffffffffffffffffffffffffff16145b611bdd576040517f08c379a0000000000000000000000000000000000000000000000000000000008152600401808060200182810382526032815260200180614e756032913960400191505060405180910390fd5b6000611be8896114d3565b9050611dce82611bf85789611bfa565b885b601960f81b600060f81b3086611c28576040518060600160405280602f8152602001614b9a602f9139611c42565b604051806060016040528060298152602001614e4c602991395b868e8b60405160200180887effffffffffffffffffffffffffffffffffffffffffffffffffffffffffffff19167effffffffffffffffffffffffffffffffffffffffffffffffffffffffffffff19168152600101877effffffffffffffffffffffffffffffffffffffffffffffffffffffffffffff19167effffffffffffffffffffffffffffffffffffffffffffffffffffffffffffff191681526001018673ffffffffffffffffffffffffffffffffffffffff1673ffffffffffffffffffffffffffffffffffffffff1660601b815260140185805190602001908083835b60208310611d445780518252602082019150602081019050602083039250611d21565b6001836020036101000a0380198251168184511680821785525050505050509050018481526020018373ffffffffffffffffffffffffffffffffffffffff1673ffffffffffffffffffffffffffffffffffffffff1660601b815260140182815260200197505050505050505060405160208183030381529060405280519060200120898989612308565b611e40576040517f08c379a00000000000000000000000000000000000000000000000000000000081526004018080602001828103825260128152602001807f5065726d697373696f6e2064656e6965642e000000000000000000000000000081525060200191505060405180910390fd5b611e4a8189613f10565b803373ffffffffffffffffffffffffffffffffffffffff167f1e0c87f4d9edce88868577315152d327d02ff25d2cb9384cd6ee609a9f56b64e8b8b6000604051808473ffffffffffffffffffffffffffffffffffffffff1673ffffffffffffffffffffffffffffffffffffffff1681526020018373ffffffffffffffffffffffffffffffffffffffff1673ffffffffffffffffffffffffffffffffffffffff16815260200182151515158152602001935050505060405180910390a3505050505050505050565b6000611f1c336114d3565b9050611f28813361410a565b803373ffffffffffffffffffffffffffffffffffffffff167f04095b6a64a9a32bafa887e731a82f91cdec3bf819389deea6aa34a488034f7d336000604051808373ffffffffffffffffffffffffffffffffffffffff1673ffffffffffffffffffffffffffffffffffffffff168152602001821515151581526020019250505060405180910390a350565b6000611fdc8260008086815260200190815260200160002060030161417890919063ffffffff16565b905092915050565b60045481565b81611ff58133611fb3565b61204a576040517f08c379a000000000000000000000000000000000000000000000000000000000815260040180806020018281038252602d815260200180614c99602d913960400191505060405180910390fd5b612056838360016142ce565b505050565b60006002548210801561206e5750600082115b9050919050565b612089612081336114d3565b8260006143c7565b50565b600060608060608461209d8161205b565b61210f576040517f08c379a000000000000000000000000000000000000000000000000000000000815260040180806020018281038252601c8152602001807f546865206964656e7469747920646f6573206e6f742065786973742e0000000081525060200191505060405180910390fd5b600080600088815260200190815260200160002090508060000160009054906101000a900473ffffffffffffffffffffffffffffffffffffffff16816001016000018260030160000183600501600001828054806020026020016040519081016040528092919081815260200182805480156121e057602002820191906000526020600020905b8160009054906101000a900473ffffffffffffffffffffffffffffffffffffffff1673ffffffffffffffffffffffffffffffffffffffff1681526020019060010190808311612196575b505050505092508180548060200260200160405190810160405280929190818152602001828054801561226857602002820191906000526020600020905b8160009054906101000a900473ffffffffffffffffffffffffffffffffffffffff1673ffffffffffffffffffffffffffffffffffffffff168152602001906001019080831161221e575b50505050509150808054806020026020016040519081016040528092919081815260200182805480156122f057602002820191906000526020600020905b8160009054906101000a900473ffffffffffffffffffffffffffffffffffffffff1673ffffffffffffffffffffffffffffffffffffffff16815260200190600101908083116122a6575b50505050509050955095509550955050509193509193565b600061231786868686866144c0565b8061232b575061232a8686868686614562565b5b905095945050505050565b856123408161205b565b6123b2576040517f08c379a000000000000000000000000000000000000000000000000000000000815260040180806020018281038252601c8152602001807f546865206964656e7469747920646f6573206e6f742065786973742e0000000081525060200191505060405180910390fd5b8560008015156123c1836119bd565b151514816123e757604051806060016040528060328152602001614de260329139612401565b604051806060016040528060388152602001614e14603891395b906124a7576040517f08c379a00000000000000000000000000000000000000000000000000000000081526004018080602001828103825283818151815260200191508051906020019080838360005b8381101561246c578082015181840152602081019050612451565b50505050905090810190601f1680156124995780820380516001836020036101000a031916815260200191505b509250505060405180910390fd5b50838042101580156124bc5750600454810142105b61252e576040517f08c379a00000000000000000000000000000000000000000000000000000000081526004018080602001828103825260178152602001807f54696d657374616d70206973206e6f742076616c69642e00000000000000000081525060200191505060405180910390fd5b6125378a614630565b6125a9576040517f08c379a000000000000000000000000000000000000000000000000000000000815260040180806020018281038252601c8152602001807f43616e6e6f742074726967676572207265636f76657279207965742e0000000081525060200191505060405180910390fd5b60008060008c815260200190815260200160002090506125c88b614656565b1561267a578060000160009054906101000a900473ffffffffffffffffffffffffffffffffffffffff1673ffffffffffffffffffffffffffffffffffffffff163373ffffffffffffffffffffffffffffffffffffffff1614612675576040517f08c379a0000000000000000000000000000000000000000000000000000000008152600401808060200182810382526037815260200180614bc96037913960400191505060405180910390fd5b612735565b600560008c815260200190815260200160002060010160009054906101000a900473ffffffffffffffffffffffffffffffffffffffff1673ffffffffffffffffffffffffffffffffffffffff163373ffffffffffffffffffffffffffffffffffffffff1614612734576040517f08c379a0000000000000000000000000000000000000000000000000000000008152600401808060200182810382526040815260200180614c006040913960400191505060405180910390fd5b5b6128898a601960f81b600060f81b308f8f8c60405160200180877effffffffffffffffffffffffffffffffffffffffffffffffffffffffffffff19167effffffffffffffffffffffffffffffffffffffffffffffffffffffffffffff19168152600101867effffffffffffffffffffffffffffffffffffffffffffffffffffffffffffff19167effffffffffffffffffffffffffffffffffffffffffffffffffffffffffffff191681526001018573ffffffffffffffffffffffffffffffffffffffff1673ffffffffffffffffffffffffffffffffffffffff1660601b815260140180614cc6603691396036018481526020018373ffffffffffffffffffffffffffffffffffffffff1673ffffffffffffffffffffffffffffffffffffffff1660601b81526014018281526020019650505050505050604051602081830303815290604052805190602001208b8b8b612308565b6128fb576040517f08c379a00000000000000000000000000000000000000000000000000000000081526004018080602001828103825260128152602001807f5065726d697373696f6e2064656e6965642e000000000000000000000000000081525060200191505060405180910390fd5b60405180604001604052804281526020018260010160000160405160200180828054801561297e57602002820191906000526020600020905b8160009054906101000a900473ffffffffffffffffffffffffffffffffffffffff1673ffffffffffffffffffffffffffffffffffffffff1681526020019060010190808311612934575b505091505060405160208183030381529060405280519060200120815250600660008d815260200190815260200160002060008201518160000155602082015181600101559050508a3373ffffffffffffffffffffffffffffffffffffffff167f2fe95fbd211d0471c596b1f81d913d1389d5d1ddeb2bdd96143acc651aa3b02e836001016000018d60405180806020018373ffffffffffffffffffffffffffffffffffffffff1673ffffffffffffffffffffffffffffffffffffffff1681526020018281038252848181548152602001915080548015612ab457602002820191906000526020600020905b8160009054906101000a900473ffffffffffffffffffffffffffffffffffffffff1673ffffffffffffffffffffffffffffffffffffffff1681526020019060010190808311612a6a575b5050935050505060405180910390a3612acf8133600061467c565b612ad98b8b613f10565b5050505050505050505050565b81612af18133611fb3565b612b46576040517f08c379a000000000000000000000000000000000000000000000000000000000815260040180806020018281038252602d815260200180614c99602d913960400191505060405180910390fd5b612b52838360016143c7565b505050565b60025481565b6000612b868260008086815260200190815260200160002060010161417890919063ffffffff16565b905092915050565b80600060028110612b9b57fe5b6020020151804210158015612bb35750600454810142105b612c25576040517f08c379a00000000000000000000000000000000000000000000000000000000081526004018080602001828103825260178152602001807f54696d657374616d70206973206e6f742076616c69642e00000000000000000081525060200191505060405180910390fd5b81600160028110612c3257fe5b6020020151804210158015612c4a5750600454810142105b612cbc576040517f08c379a00000000000000000000000000000000000000000000000000000000081526004018080602001828103825260178152602001807f54696d657374616d70206973206e6f742076616c69642e00000000000000000081525060200191505060405180910390fd5b6000612cc7896114d3565b9050612e6189601960f81b600060f81b30858d8a600060028110612ce757fe5b602002015160405160200180877effffffffffffffffffffffffffffffffffffffffffffffffffffffffffffff19167effffffffffffffffffffffffffffffffffffffffffffffffffffffffffffff19168152600101867effffffffffffffffffffffffffffffffffffffffffffffffffffffffffffff19167effffffffffffffffffffffffffffffffffffffffffffffffffffffffffffff191681526001018573ffffffffffffffffffffffffffffffffffffffff1673ffffffffffffffffffffffffffffffffffffffff1660601b815260140180614b9a602f9139602f018481526020018373ffffffffffffffffffffffffffffffffffffffff1673ffffffffffffffffffffffffffffffffffffffff1660601b815260140182815260200196505050505050506040516020818303038152906040528051906020012089600060028110612e3357fe5b602002015189600060028110612e4557fe5b602002015189600060028110612e5757fe5b6020020151612308565b612eb6576040517f08c379a0000000000000000000000000000000000000000000000000000000008152600401808060200182810382526029815260200180614d316029913960400191505060405180910390fd5b61304e88601960f81b600060f81b30858d8a600160028110612ed457fe5b602002015160405160200180877effffffffffffffffffffffffffffffffffffffffffffffffffffffffffffff19167effffffffffffffffffffffffffffffffffffffffffffffffffffffffffffff19168152600101867effffffffffffffffffffffffffffffffffffffffffffffffffffffffffffff19167effffffffffffffffffffffffffffffffffffffffffffffffffffffffffffff191681526001018573ffffffffffffffffffffffffffffffffffffffff1673ffffffffffffffffffffffffffffffffffffffff1660601b815260140180614e4c602991396029018481526020018373ffffffffffffffffffffffffffffffffffffffff1673ffffffffffffffffffffffffffffffffffffffff1660601b81526014018281526020019650505050505050604051602081830303815290604052805190602001208960016002811061302057fe5b60200201518960016002811061303257fe5b60200201518960016002811061304457fe5b6020020151612308565b6130a3576040517f08c379a0000000000000000000000000000000000000000000000000000000008152600401808060200182810382526026815260200180614c406026913960400191505060405180910390fd5b6130ad8189613f10565b803373ffffffffffffffffffffffffffffffffffffffff167f1e0c87f4d9edce88868577315152d327d02ff25d2cb9384cd6ee609a9f56b64e8b8b6001604051808473ffffffffffffffffffffffffffffffffffffffff1673ffffffffffffffffffffffffffffffffffffffff1681526020018373ffffffffffffffffffffffffffffffffffffffff1673ffffffffffffffffffffffffffffffffffffffff16815260200182151515158152602001935050505060405180910390a3505050505050505050565b60035481565b61318e613186336114d3565b8260016142ce565b50565b60006131ba8260008086815260200190815260200160002060050161417890919063ffffffff16565b905092915050565b808042101580156131d65750600454810142105b613248576040517f08c379a00000000000000000000000000000000000000000000000000000000081526004018080602001828103825260178152602001807f54696d657374616d70206973206e6f742076616c69642e00000000000000000081525060200191505060405180910390fd5b6000613253876114d3565b90506133a987601960f81b600060f81b30858c8960405160200180877effffffffffffffffffffffffffffffffffffffffffffffffffffffffffffff19167effffffffffffffffffffffffffffffffffffffffffffffffffffffffffffff19168152600101867effffffffffffffffffffffffffffffffffffffffffffffffffffffffffffff19167effffffffffffffffffffffffffffffffffffffffffffffffffffffffffffff191681526001018573ffffffffffffffffffffffffffffffffffffffff1673ffffffffffffffffffffffffffffffffffffffff1660601b815260140180614c66603391396033018481526020018373ffffffffffffffffffffffffffffffffffffffff1673ffffffffffffffffffffffffffffffffffffffff1660601b8152601401828152602001965050505050505060405160208183030381529060405280519060200120888888612308565b61341b576040517f08c379a00000000000000000000000000000000000000000000000000000000081526004018080602001828103825260128152602001807f5065726d697373696f6e2064656e6965642e000000000000000000000000000081525060200191505060405180910390fd5b613425818861410a565b803373ffffffffffffffffffffffffffffffffffffffff167f04095b6a64a9a32bafa887e731a82f91cdec3bf819389deea6aa34a488034f7d896001604051808373ffffffffffffffffffffffffffffffffffffffff1673ffffffffffffffffffffffffffffffffffffffff168152602001821515151581526020019250505060405180910390a350505050505050565b6134ca6134c2336114d3565b8260006137e9565b50565b836134d78161205b565b613549576040517f08c379a000000000000000000000000000000000000000000000000000000000815260040180806020018281038252601c8152602001807f546865206964656e7469747920646f6573206e6f742065786973742e0000000081525060200191505060405180910390fd5b61355285614630565b156135a8576040517f08c379a0000000000000000000000000000000000000000000000000000000008152600401808060200182810382526029815260200180614d5a6029913960400191505060405180910390fd5b600080600087815260200190815260200160002090506135c6614b01565b60405180602001604052803373ffffffffffffffffffffffffffffffffffffffff1673ffffffffffffffffffffffffffffffffffffffff168152509050600660008881526020019081526020016000206001015486828760405160200180848051906020019060200280838360005b83811015613650578082015181840152602081019050613635565b5050505090500183600160200280838360005b8381101561367e578082015181840152602081019050613663565b50505050905001828051906020019060200280838360005b838110156136b1578082015181840152602081019050613696565b5050505090500193505050506040516020818303038152906040528051906020012014613729576040517f08c379a000000000000000000000000000000000000000000000000000000000815260040180806020018281038252605f815260200180614d83605f913960600191505060405180910390fd5b863373ffffffffffffffffffffffffffffffffffffffff167f1807cc67f627d55c0a797a6c603fa124978caf5bb45c1748329489fd0185b9ef8460000160009054906101000a900473ffffffffffffffffffffffffffffffffffffffff1687604051808373ffffffffffffffffffffffffffffffffffffffff1673ffffffffffffffffffffffffffffffffffffffff168152602001821515151581526020019250505060405180910390a36137e08260008661467c565b50505050505050565b6000806000858152602001908152602001600020905060005b83518110156138db5761383484828151811061381a57fe5b6020026020010151836005016147b290919063ffffffff16565b843373ffffffffffffffffffffffffffffffffffffffff167f8d2c0379f93ea94639b25aaf145689b0db73ba107f5b9972bbd6238d7b0440ac86848151811061387957fe5b602002602001015186604051808373ffffffffffffffffffffffffffffffffffffffff1673ffffffffffffffffffffffffffffffffffffffff168152602001821515151581526020019250505060405180910390a38080600101915050613802565b5050505050565b6000806000858152602001908152602001600020905060005b83518110156139d45761392d84828151811061391357fe5b60200260200101518360030161487190919063ffffffff16565b843373ffffffffffffffffffffffffffffffffffffffff167fe41b11c1b8e658dea501b4a432bd3f7b3e6db83ef57ac16c52e5f288edeffec486848151811061397257fe5b602002602001015186604051808373ffffffffffffffffffffffffffffffffffffffff1673ffffffffffffffffffffffffffffffffffffffff168152602001821515151581526020019250505060405180910390a380806001019150506138fb565b5050505050565b60008460008015156139ec836119bd565b15151481613a1257604051806060016040528060328152602001614de260329139613a2c565b604051806060016040528060388152602001614e14603891395b90613ad2576040517f08c379a00000000000000000000000000000000000000000000000000000000081526004018080602001828103825283818151815260200191508051906020019080838360005b83811015613a97578082015181840152602081019050613a7c565b50505050905090810190601f168015613ac45780820380516001836020036101000a031916815260200191505b509250505060405180910390fd5b5060006002600081548092919060010191905055905060008060008381526020019081526020016000209050898160000160006101000a81548173ffffffffffffffffffffffffffffffffffffffff021916908373ffffffffffffffffffffffffffffffffffffffff160217905550613b4b828a613f10565b613b568289886143c7565b613b618288886137e9565b813373ffffffffffffffffffffffffffffffffffffffff167fe541733a4670852051762d3cdb7d9123bea21d01e252aa39ca403c8d0f5ab66c8c8c8c8c8c604051808673ffffffffffffffffffffffffffffffffffffffff1673ffffffffffffffffffffffffffffffffffffffff1681526020018573ffffffffffffffffffffffffffffffffffffffff1673ffffffffffffffffffffffffffffffffffffffff168152602001806020018060200184151515158152602001838103835286818151815260200191508051906020019060200280838360005b83811015613c54578082015181840152602081019050613c39565b50505050905001838103825285818151815260200191508051906020019060200280838360005b83811015613c96578082015181840152602081019050613c7b565b5050505090500197505050505050505060405180910390a38194505050505095945050505050565b60008060008581526020019081526020016000209050613cdd84614656565b613d32576040517f08c379a0000000000000000000000000000000000000000000000000000000008152600401808060200182810382526030815260200180614b6a6030913960400191505060405180910390fd5b60405180604001604052804281526020018260000160009054906101000a900473ffffffffffffffffffffffffffffffffffffffff1673ffffffffffffffffffffffffffffffffffffffff16815250600560008681526020019081526020016000206000820151816000015560208201518160010160006101000a81548173ffffffffffffffffffffffffffffffffffffffff021916908373ffffffffffffffffffffffffffffffffffffffff160217905550905050833373ffffffffffffffffffffffffffffffffffffffff167fd9d54f9caf1bb2f4f815d22df297e7b73291ee08a95df2d47b0b03378ebe7c5d8360000160009054906101000a900473ffffffffffffffffffffffffffffffffffffffff168686604051808473ffffffffffffffffffffffffffffffffffffffff1673ffffffffffffffffffffffffffffffffffffffff1681526020018373ffffffffffffffffffffffffffffffffffffffff1673ffffffffffffffffffffffffffffffffffffffff16815260200182151515158152602001935050505060405180910390a3828160000160006101000a81548173ffffffffffffffffffffffffffffffffffffffff021916908373ffffffffffffffffffffffffffffffffffffffff16021790555050505050565b806000801515613f1f836119bd565b15151481613f4557604051806060016040528060328152602001614de260329139613f5f565b604051806060016040528060388152602001614e14603891395b90614005576040517f08c379a00000000000000000000000000000000000000000000000000000000081526004018080602001828103825283818151815260200191508051906020019080838360005b83811015613fca578082015181840152602081019050613faf565b50505050905090810190601f168015613ff75780820380516001836020036101000a031916815260200191505b509250505060405180910390fd5b50600354614026600080878152602001908152602001600020600101614af0565b10614099576040517f08c379a00000000000000000000000000000000000000000000000000000000081526004018080602001828103825260138152602001807f546f6f206d616e79206164647265737365732e0000000000000000000000000081525060200191505060405180910390fd5b6140c0836000808781526020019081526020016000206001016147b290919063ffffffff16565b83600160008573ffffffffffffffffffffffffffffffffffffffff1673ffffffffffffffffffffffffffffffffffffffff1681526020019081526020016000208190555050505050565b6141318160008085815260200190815260200160002060010161487190919063ffffffff16565b600160008273ffffffffffffffffffffffffffffffffffffffff1673ffffffffffffffffffffffffffffffffffffffff168152602001908152602001600020600090555050565b6000808360010160008473ffffffffffffffffffffffffffffffffffffffff1673ffffffffffffffffffffffffffffffffffffffff1681526020019081526020016000205411801561421257508260010160008373ffffffffffffffffffffffffffffffffffffffff1673ffffffffffffffffffffffffffffffffffffffff16815260200190815260200160002054836000018054905010155b80156142c657508173ffffffffffffffffffffffffffffffffffffffff168360000160018560010160008673ffffffffffffffffffffffffffffffffffffffff1673ffffffffffffffffffffffffffffffffffffffff16815260200190815260200160002054038154811061428357fe5b9060005260206000200160009054906101000a900473ffffffffffffffffffffffffffffffffffffffff1673ffffffffffffffffffffffffffffffffffffffff16145b905092915050565b6000806000858152602001908152602001600020905060005b83518110156143c0576143198482815181106142ff57fe5b60200260200101518360050161487190919063ffffffff16565b843373ffffffffffffffffffffffffffffffffffffffff167f35f17668a4aadc48b2952cd27f0c5017b357497a1f20cedf4713d91d019a63a886848151811061435e57fe5b602002602001015186604051808373ffffffffffffffffffffffffffffffffffffffff1673ffffffffffffffffffffffffffffffffffffffff168152602001821515151581526020019250505060405180910390a380806001019150506142e7565b5050505050565b6000806000858152602001908152602001600020905060005b83518110156144b9576144128482815181106143f857fe5b6020026020010151836003016147b290919063ffffffff16565b843373ffffffffffffffffffffffffffffffffffffffff167fd2af86288d6ec28d93c5459bdc5a21da89b340c28ad430327e40139c1178986f86848151811061445757fe5b602002602001015186604051808373ffffffffffffffffffffffffffffffffffffffff1673ffffffffffffffffffffffffffffffffffffffff168152602001821515151581526020019250505060405180910390a380806001019150506143e0565b5050505050565b60008573ffffffffffffffffffffffffffffffffffffffff1660018686868660405160008152602001604052604051808581526020018460ff1660ff1681526020018381526020018281526020019450505050506020604051602081039080840390855afa158015614536573d6000803e3d6000fd5b5050506020604051035173ffffffffffffffffffffffffffffffffffffffff1614905095945050505050565b600060606040518060400160405280601c81526020017f19457468657265756d205369676e6564204d6573736167653a0a33320000000081525090506146248782886040516020018083805190602001908083835b602083106145da57805182526020820191506020810190506020830392506145b7565b6001836020036101000a03801982511681845116808217855250505050505090500182815260200192505050604051602081830303815290604052805190602001208787876144c0565b91505095945050505050565b600060075460066000848152602001908152602001600020600001540142119050919050565b600060075460056000848152602001908152602001600020600001540142119050919050565b60005b836001016000018054905081101561471d57600160008560010160000183815481106146a757fe5b9060005260206000200160009054906101000a900473ffffffffffffffffffffffffffffffffffffffff1673ffffffffffffffffffffffffffffffffffffffff1673ffffffffffffffffffffffffffffffffffffffff16815260200190815260200160002060009055808060010191505061467f565b5082600101600080820160006147339190614b23565b5050826003016000808201600061474a9190614b23565b5050801561476a5782600501600080820160006147679190614b23565b50505b818360000160006101000a81548173ffffffffffffffffffffffffffffffffffffffff021916908373ffffffffffffffffffffffffffffffffffffffff160217905550505050565b6147bc8282614178565b61486d57816000018190806001815401808255809150509060018203906000526020600020016000909192909190916101000a81548173ffffffffffffffffffffffffffffffffffffffff021916908373ffffffffffffffffffffffffffffffffffffffff1602179055508260010160008373ffffffffffffffffffffffffffffffffffffffff1673ffffffffffffffffffffffffffffffffffffffff168152602001908152602001600020819055505b5050565b61487b8282614178565b15614aec5781600001600161488f84614af0565b038154811061489a57fe5b9060005260206000200160009054906101000a900473ffffffffffffffffffffffffffffffffffffffff168260000160018460010160008573ffffffffffffffffffffffffffffffffffffffff1673ffffffffffffffffffffffffffffffffffffffff16815260200190815260200160002054038154811061491857fe5b9060005260206000200160006101000a81548173ffffffffffffffffffffffffffffffffffffffff021916908373ffffffffffffffffffffffffffffffffffffffff1602179055508160010160008273ffffffffffffffffffffffffffffffffffffffff1673ffffffffffffffffffffffffffffffffffffffff168152602001908152602001600020548260010160008460000160018660010160008773ffffffffffffffffffffffffffffffffffffffff1673ffffffffffffffffffffffffffffffffffffffff1681526020019081526020016000205403815481106149fb57fe5b9060005260206000200160009054906101000a900473ffffffffffffffffffffffffffffffffffffffff1673ffffffffffffffffffffffffffffffffffffffff1673ffffffffffffffffffffffffffffffffffffffff168152602001908152602001600020819055508160010160008273ffffffffffffffffffffffffffffffffffffffff1673ffffffffffffffffffffffffffffffffffffffff1681526020019081526020016000206000905581600001805480614ab657fe5b6001900381819060005260206000200160006101000a81549073ffffffffffffffffffffffffffffffffffffffff021916905590555b5050565b600081600001805490509050919050565b6040518060200160405280600190602082028038833980820191505090505090565b5080546000825590600052602060002090810190614b419190614b44565b50565b614b6691905b80821115614b62576000816000905550600101614b4a565b5090565b9056fe43616e6e6f7420747269676765722061206368616e676520696e207265636f766572792061646472657373207965742e4920617574686f72697a6520616464696e672074686973206164647265737320746f206d79204964656e746974792e4f6e6c79207468652063757272656e74207265636f7665727920616464726573732063616e2074726967676572207265636f766572792e4f6e6c792074686520726563656e746c792072656d6f766564207265636f7665727920616464726573732063616e2074726967676572207265636f766572792e5065726d697373696f6e2064656e6965642066726f6d206164647265737320746f206164642e4920617574686f72697a652072656d6f76696e67207468697320616464726573732066726f6d206d79204964656e746974792e546865206964656e7469747920686173206e6f742073657420746865207061737365642070726f76696465722e4920617574686f72697a65206265696e6720616464656420746f2074686973204964656e7469747920766961207265636f766572792e4920617574686f72697a6520746865206372656174696f6e206f6620616e204964656e74697479206f6e206d7920626568616c662e5065726d697373696f6e2064656e6965642066726f6d20617070726f76696e6720616464726573732e5265636f7665727920686173206e6f7420726563656e746c79206265656e207472696767657265642e43616e6e6f742064657374726f7920616e2045494e2066726f6d20616e2061646472657373207468617420776173206e6f7420726563656e746c792072656d6f7665642066726f6d20736169642045494e20766961207265636f766572792e5468652070617373656420616464726573732068617320616e206964656e74697479206275742073686f756c64206e6f742e54686520706173736564206164647265737320646f6573206e6f74206861766520616e206964656e74697479206275742073686f756c642e4920617574686f72697a65206265696e6720616464656420746f2074686973204964656e746974792e4f6e65206f7220626f7468206f6620746865207061737365642061646472657373657320617265206d616c666f726d65642ea165627a7a72305820f60376f3306638fc7e39ad9158f644b759e571de885ec78c52ab56ae14a08fdd0029",
  "source": "pragma solidity ^0.5.0;\n\nimport \"./SignatureVerifier.sol\";\nimport \"./AddressSet/AddressSet.sol\";\n\n/// @title The ERC-1484 Identity Registry.\n/// @author Noah Zinsmeister\n/// @author Andy Chorlian\n/// @author Zaakin Yao\ncontract IdentityRegistry is SignatureVerifier {\n    using AddressSet for AddressSet.Set;\n\n\n    //  //////////////////////////////////////////////////////////////////////////\n\n    struct Identity {\n        address recoveryAddress;\n        AddressSet.Set associatedAddresses;\n        AddressSet.Set providers;\n        AddressSet.Set resolvers;\n    }\n\n    mapping (uint => Identity) private identityDirectory;\n    mapping (address => uint) private associatedAddressDirectory;\n\n    uint public nextEIN = 1;\n    uint public maxAssociatedAddresses = 50;\n\n\n    //  ///////////////////////////////////////////////////////////////////////////////////////////////\n\n    uint public signatureTimeout = 1 days;\n\n    /// @dev `signatureTimeout`\n    /// @param timestamp \n    modifier ensureSignatureTimeValid(uint timestamp) {\n        require(\n            // solium-disable-next-line security/no-block-members\n            block.timestamp >= timestamp && block.timestamp < timestamp + signatureTimeout, \"Timestamp is not valid.\"\n        );\n        _;\n    }\n\n\n    //  /////////////////////////////////////////////////////////////////////////////////\n\n    struct RecoveryAddressChange {\n        uint timestamp;\n        address oldRecoveryAddress;\n    }\n\n    mapping (uint => RecoveryAddressChange) private recoveryAddressChangeLogs;\n\n\n    //  ////////////////////////////////////////////////////////////////////////////////////////////////\n\n    struct Recovery {\n        uint timestamp;\n        bytes32 hashedOldAssociatedAddresses;\n    }\n\n    mapping (uint => Recovery) private recoveryLogs;\n\n\n    //  ////////////////////////////////////////////////////////////////////////////////////////////////\n\n    uint public recoveryTimeout = 2 weeks;\n\n    /// @dev EIN`recoveryTimeout`\n    function canChangeRecoveryAddress(uint ein) private view returns (bool) {\n        // solium-disable-next-line security/no-block-members\n        return block.timestamp > recoveryAddressChangeLogs[ein].timestamp + recoveryTimeout;\n    }\n\n    /// @dev EIN`recoveryTimeout`\n    function canRecover(uint ein) private view returns (bool) {\n        // solium-disable-next-line security/no-block-members\n        return block.timestamp > recoveryLogs[ein].timestamp + recoveryTimeout;\n    }\n\n\n    //  view  /////////////////////////////////////////////////////////////////////////////////////////\n\n    /// @notice EIN\n    /// @dev \n    /// @param ein EIN\n    /// @return EIN true  false\n    function identityExists(uint ein) public view returns (bool) {\n        return ein < nextEIN && ein > 0;\n    }\n\n    /// @dev EIN\n    /// @param ein EIN\n    modifier _identityExists(uint ein) {\n        require(identityExists(ein), \"The identity does not exist.\");\n        _;\n    }\n\n    /// @notice `Identity`\n    /// @dev \n    /// @param _address \n    /// @return  true  false\n    function hasIdentity(address _address) public view returns (bool) {\n        return identityExists(associatedAddressDirectory[_address]);\n    }\n\n    /// @dev `Identity`\n    /// @param _address \n    /// @param check  true  false \n    /// @return `check` true  false\n    modifier _hasIdentity(address _address, bool check) {\n        require(\n            hasIdentity(_address) == check,\n            check ?\n                \"The passed address does not have an identity but should.\" :\n                \"The passed address has an identity but should not.\"\n        );\n        _;\n    }\n\n    /// @notice EIN\n    /// @dev \n    /// @param _address \n    /// @return EIN\n    function getEIN(address _address) public view _hasIdentity(_address, true) returns (uint ein) {\n        return associatedAddressDirectory[_address];\n    }\n\n    /// @notice EINEIN\n    /// @dev \n    /// @param ein EIN\n    /// @param _address \n    /// @return EIN true  false\n    function isAssociatedAddressFor(uint ein, address _address) public view returns (bool) {\n        return identityDirectory[ein].associatedAddresses.contains(_address);\n    }\n\n    /// @notice `Provider`EIN\n    /// @dev \n    /// @param ein EIN\n    /// @param provider `Provider`\n    /// @return `Provider`EIN true  false\n    function isProviderFor(uint ein, address provider) public view returns (bool) {\n        return identityDirectory[ein].providers.contains(provider);\n    }\n\n    /// @dev `msg.sender`EIN\n    /// @param ein EIN\n    modifier _isProviderFor(uint ein) {\n        require(isProviderFor(ein, msg.sender), \"The identity has not set the passed provider.\");\n        _;\n    }\n\n    /// @notice `Provider`EIN\n    /// @dev \n    /// @param ein EIN\n    /// @param resolver `Provider`\n    /// @return `Provider`EIN true  false\n    function isResolverFor(uint ein, address resolver) public view returns (bool) {\n        return identityDirectory[ein].resolvers.contains(resolver);\n    }\n\n    /// @notice EIN\n    /// @dev EIN\n    /// @param ein EIN\n    /// @return EIN\n    function getIdentity(uint ein) public view _identityExists(ein)\n        returns (\n            address recoveryAddress,\n            address[] memory associatedAddresses, address[] memory providers, address[] memory resolvers\n        )\n    {\n        Identity storage _identity = identityDirectory[ein];\n\n        return (\n            _identity.recoveryAddress,\n            _identity.associatedAddresses.members,\n            _identity.providers.members,\n            _identity.resolvers.members\n        );\n    }\n\n\n    //  ///////////////////////////////////////////////////////////////////////////////////\n\n    /// @notice \n    /// @dev `msg.sender`\n    /// @param recoveryAddress \n    /// @param providers `Provider`\n    /// @param resolvers `Resolver`\n    /// @return EIN\n    function createIdentity(address recoveryAddress, address[] memory providers, address[] memory resolvers)\n        public returns (uint ein)\n    {\n        return createIdentity(recoveryAddress, msg.sender, providers, resolvers, false);\n    }\n\n    /// @notice \n    /// @param recoveryAddress \n    /// @param associatedAddress \n    /// @param providers `Provider`\n    /// @param resolvers `Resolver`\n    /// @param v v\n    /// @param r r\n    /// @param s s\n    /// @param timestamp \n    /// @return EIN\n    function createIdentityDelegated(\n        address recoveryAddress, address associatedAddress, address[] memory providers, address[] memory resolvers,\n        uint8 v, bytes32 r, bytes32 s, uint timestamp\n    )\n        public ensureSignatureTimeValid(timestamp) returns (uint ein)\n    {\n        require(\n            isSigned(\n                associatedAddress,\n                keccak256(\n                    abi.encodePacked(\n                        byte(0x19), byte(0), address(this),\n                        \"I authorize the creation of an Identity on my behalf.\",\n                        recoveryAddress, associatedAddress, providers, resolvers, timestamp\n                    )\n                ),\n                v, r, s\n            ),\n            \"Permission denied.\"\n        );\n\n        return createIdentity(recoveryAddress, associatedAddress, providers, resolvers, true);\n    }\n\n    /// @dev \n    function createIdentity(\n        address recoveryAddress,\n        address associatedAddress, address[] memory providers, address[] memory resolvers, bool delegated\n    )\n        private _hasIdentity(associatedAddress, false) returns (uint)\n    {\n        uint ein = nextEIN++;\n        Identity storage _identity = identityDirectory[ein];\n\n        _identity.recoveryAddress = recoveryAddress;\n        addAssociatedAddress(ein, associatedAddress);\n        addProviders(ein, providers, delegated);\n        addResolvers(ein, resolvers, delegated);\n\n        emit IdentityCreated(msg.sender, ein, recoveryAddress, associatedAddress, providers, resolvers, delegated);\n\n        return ein;\n    }\n\n\n    /// @notice \n    /// @param approvingAddress \n    /// @param addressToAdd \n    /// @param v v\n    /// @param r r\n    /// @param s s\n    /// @param timestamp \n    function addAssociatedAddress(\n        address approvingAddress, address addressToAdd, uint8 v, bytes32 r, bytes32 s, uint timestamp\n    )\n        public ensureSignatureTimeValid(timestamp)\n    {\n        bool fromApprovingAddress = msg.sender == approvingAddress;\n        require(\n            fromApprovingAddress || msg.sender == addressToAdd, \"One or both of the passed addresses are malformed.\"\n        );\n\n        uint ein = getEIN(approvingAddress);\n\n        require(\n            isSigned(\n                fromApprovingAddress ? addressToAdd : approvingAddress,\n                keccak256(\n                    abi.encodePacked(\n                        byte(0x19), byte(0), address(this),\n                        fromApprovingAddress ?\n                            \"I authorize being added to this Identity.\" :\n                            \"I authorize adding this address to my Identity.\",\n                        ein, addressToAdd, timestamp\n                    )\n                ),\n                v, r, s\n            ),\n            \"Permission denied.\"\n        );\n\n        addAssociatedAddress(ein, addressToAdd);\n\n        emit AssociatedAddressAdded(msg.sender, ein, approvingAddress, addressToAdd, false);\n    }\n\n    /// @notice \n    /// @dev `approvingAddress`\n    /// @param approvingAddress \n    /// @param addressToAdd `approvingAddress`\n    /// @param v v\n    /// @param r r\n    /// @param s s\n    /// @param timestamp \n    function addAssociatedAddressDelegated(\n        address approvingAddress, address addressToAdd,\n        uint8[2] memory v, bytes32[2] memory r, bytes32[2] memory s, uint[2] memory timestamp\n    )\n        public ensureSignatureTimeValid(timestamp[0]) ensureSignatureTimeValid(timestamp[1])\n    {\n        uint ein = getEIN(approvingAddress);\n\n        require(\n            isSigned(\n                approvingAddress,\n                keccak256(\n                    abi.encodePacked(\n                        byte(0x19), byte(0), address(this),\n                        \"I authorize adding this address to my Identity.\",\n                        ein, addressToAdd, timestamp[0]\n                    )\n                ),\n                v[0], r[0], s[0]\n            ),\n            \"Permission denied from approving address.\"\n        );\n        require(\n            isSigned(\n                addressToAdd,\n                keccak256(\n                    abi.encodePacked(\n                        byte(0x19), byte(0), address(this),\n                        \"I authorize being added to this Identity.\",\n                        ein, addressToAdd, timestamp[1]\n                    )\n                ),\n                v[1], r[1], s[1]\n            ),\n            \"Permission denied from address to add.\"\n        );\n\n        addAssociatedAddress(ein, addressToAdd);\n\n        emit AssociatedAddressAdded(msg.sender, ein, approvingAddress, addressToAdd, true);\n    }\n\n    /// @dev \n    function addAssociatedAddress(uint ein, address addressToAdd) private _hasIdentity(addressToAdd, false) {\n        require(\n            identityDirectory[ein].associatedAddresses.length() < maxAssociatedAddresses, \"Too many addresses.\"\n        );\n\n        identityDirectory[ein].associatedAddresses.insert(addressToAdd);\n        associatedAddressDirectory[addressToAdd] = ein;\n    }\n\n    /// @notice \n    function removeAssociatedAddress() public {\n        uint ein = getEIN(msg.sender);\n\n        removeAssociatedAddress(ein, msg.sender);\n\n        emit AssociatedAddressRemoved(msg.sender, ein, msg.sender, false);\n    }\n\n    /// @notice \n    /// @param addressToRemove \n    /// @param v v\n    /// @param r r\n    /// @param s s\n    /// @param timestamp \n    function removeAssociatedAddressDelegated(address addressToRemove, uint8 v, bytes32 r, bytes32 s, uint timestamp)\n        public ensureSignatureTimeValid(timestamp)\n    {\n        uint ein = getEIN(addressToRemove);\n\n        require(\n            isSigned(\n                addressToRemove,\n                keccak256(\n                    abi.encodePacked(\n                        byte(0x19), byte(0), address(this),\n                        \"I authorize removing this address from my Identity.\",\n                        ein, addressToRemove, timestamp\n                    )\n                ),\n                v, r, s\n            ),\n            \"Permission denied.\"\n        );\n\n        removeAssociatedAddress(ein, addressToRemove);\n\n        emit AssociatedAddressRemoved(msg.sender, ein, addressToRemove, true);\n    }\n\n    /// @dev \n    function removeAssociatedAddress(uint ein, address addressToRemove) private {\n        identityDirectory[ein].associatedAddresses.remove(addressToRemove);\n        delete associatedAddressDirectory[addressToRemove];\n    }\n\n\n    /// @notice `Provider`\n    /// @param providers `Provider`\n    function addProviders(address[] memory providers) public {\n        addProviders(getEIN(msg.sender), providers, false);\n    }\n\n    /// @notice `Provider``Provider`\n    /// @param ein `Provdier`EIN\n    /// @param providers `Provider`\n    function addProvidersFor(uint ein, address[] memory providers) public _isProviderFor(ein) {\n        addProviders(ein, providers, true);\n    }\n\n    /// @dev `Provider`\n    function addProviders(uint ein, address[] memory providers, bool delegated) private {\n        Identity storage _identity = identityDirectory[ein];\n        for (uint i; i < providers.length; i++) {\n            _identity.providers.insert(providers[i]);\n            emit ProviderAdded(msg.sender, ein, providers[i], delegated);\n        }\n    }\n\n    /// @notice `Provider`\n    /// @param providers `Provider`\n    function removeProviders(address[] memory providers) public {\n        removeProviders(getEIN(msg.sender), providers, false);\n    }\n\n    /// @notice `Provider``Provider`\n    /// @param ein `Provdier`EIN\n    /// @param providers `Provider`\n    function removeProvidersFor(uint ein, address[] memory providers) public _isProviderFor(ein) {\n        removeProviders(ein, providers, true);\n    }\n\n    /// @dev `Provider`\n    function removeProviders(uint ein, address[] memory providers, bool delegated) private {\n        Identity storage _identity = identityDirectory[ein];\n        for (uint i; i < providers.length; i++) {\n            _identity.providers.remove(providers[i]);\n            emit ProviderRemoved(msg.sender, ein, providers[i], delegated);\n        }\n    }\n\n    /// @notice `Resolver`\n    /// @param resolvers `Resolver`\n    function addResolvers(address[] memory resolvers) public {\n        addResolvers(getEIN(msg.sender), resolvers, false);\n    }\n\n    /// @notice `Provider``Resolver`\n    /// @param ein `Resolver`EIN\n    /// @param resolvers `Resolver`\n    function addResolversFor(uint ein, address[] memory resolvers) public _isProviderFor(ein) {\n        addResolvers(ein, resolvers, true);\n    }\n\n    /// @dev `Resolver`\n    function addResolvers(uint ein, address[] memory resolvers, bool delegated) private {\n        Identity storage _identity = identityDirectory[ein];\n        for (uint i; i < resolvers.length; i++) {\n            _identity.resolvers.insert(resolvers[i]);\n            emit ResolverAdded(msg.sender, ein, resolvers[i], delegated);\n        }\n    }\n\n    /// @notice `Resolver`\n    /// @param resolvers `Resolver`\n    function removeResolvers(address[] memory resolvers) public {\n        removeResolvers(getEIN(msg.sender), resolvers, true);\n    }\n\n    /// @notice `Provider``Resolver`\n    /// @param ein `Resolver`EIN\n    /// @param resolvers `Resolver`\n    function removeResolversFor(uint ein, address[] memory resolvers) public _isProviderFor(ein) {\n        removeResolvers(ein, resolvers, true);\n    }\n\n    /// @dev `Resolver`\n    function removeResolvers(uint ein, address[] memory resolvers, bool delegated) private {\n        Identity storage _identity = identityDirectory[ein];\n        for (uint i; i < resolvers.length; i++) {\n            _identity.resolvers.remove(resolvers[i]);\n            emit ResolverRemoved(msg.sender, ein, resolvers[i], delegated);\n        }\n    }\n\n\n    //  ///////////////////////////////////////////////////////////////////////////////////\n\n    /// @notice \n    /// @dev `recoveryTimeout`\n    /// @param newRecoveryAddress \n    function triggerRecoveryAddressChange(address newRecoveryAddress) public {\n        triggerRecoveryAddressChange(getEIN(msg.sender), newRecoveryAddress, false);\n    }\n\n    /// @notice `Provider`\n    /// @dev `recoveryTimeout`\n    /// @param ein EIN\n    /// @param newRecoveryAddress EIN\n    function triggerRecoveryAddressChangeFor(uint ein, address newRecoveryAddress) public _isProviderFor(ein) {\n        triggerRecoveryAddressChange(ein, newRecoveryAddress, true);\n    }\n\n    /// @dev \n    function triggerRecoveryAddressChange(uint ein, address newRecoveryAddress, bool delegated) private {\n        Identity storage _identity = identityDirectory[ein];\n\n        require(canChangeRecoveryAddress(ein), \"Cannot trigger a change in recovery address yet.\");\n\n         // solium-disable-next-line security/no-block-members\n        recoveryAddressChangeLogs[ein] = RecoveryAddressChange(block.timestamp, _identity.recoveryAddress);\n\n        emit RecoveryAddressChangeTriggered(msg.sender, ein, _identity.recoveryAddress, newRecoveryAddress, delegated);\n\n        _identity.recoveryAddress = newRecoveryAddress;\n    }\n\n    /// @notice \n    /// @dev `msg.sender`\n    /// @param ein EIN\n    /// @param newAssociatedAddress EIN\n    /// @param v v\n    /// @param r r\n    /// @param s s\n    /// @param timestamp \n    function triggerRecovery(uint ein, address newAssociatedAddress, uint8 v, bytes32 r, bytes32 s, uint timestamp)\n        public _identityExists(ein) _hasIdentity(newAssociatedAddress, false) ensureSignatureTimeValid(timestamp)\n    {\n        require(canRecover(ein), \"Cannot trigger recovery yet.\");\n        Identity storage _identity = identityDirectory[ein];\n\n        // \n        if (canChangeRecoveryAddress(ein)) {\n            require(\n                msg.sender == _identity.recoveryAddress, \"Only the current recovery address can trigger recovery.\"\n            );\n        } else {\n            require(\n                msg.sender == recoveryAddressChangeLogs[ein].oldRecoveryAddress,\n                \"Only the recently removed recovery address can trigger recovery.\"\n            );\n        }\n\n        require(\n            isSigned(\n                newAssociatedAddress,\n                keccak256(\n                    abi.encodePacked(\n                        byte(0x19), byte(0), address(this),\n                        \"I authorize being added to this Identity via recovery.\",\n                        ein, newAssociatedAddress, timestamp\n                    )\n                ),\n                v, r, s\n            ),\n            \"Permission denied.\"\n        );\n\n        // \n        recoveryLogs[ein] = Recovery(\n            block.timestamp, // solium-disable-line security/no-block-members\n            keccak256(abi.encodePacked(_identity.associatedAddresses.members))\n        );\n\n        emit RecoveryTriggered(msg.sender, ein, _identity.associatedAddresses.members, newAssociatedAddress);\n\n        // \n        resetIdentityData(_identity, msg.sender, false);\n        addAssociatedAddress(ein, newAssociatedAddress);\n    }\n\n    /// @notice \n    /// @param ein EIN\n    /// @param firstChunk `msg.sender`\n    /// @param lastChunk `msg.sender`\n    /// @param resetResolvers `Resolver` true  false\n    function triggerDestruction(uint ein, address[] memory firstChunk, address[] memory lastChunk, bool resetResolvers)\n        public _identityExists(ein)\n    {\n        require(!canRecover(ein), \"Recovery has not recently been triggered.\");\n        Identity storage _identity = identityDirectory[ein];\n\n        // `msg.sender`EIN\n        address payable[1] memory middleChunk = [msg.sender];\n        require(\n            keccak256(\n                abi.encodePacked(firstChunk, middleChunk, lastChunk)\n            ) == recoveryLogs[ein].hashedOldAssociatedAddresses,\n            \"Cannot destroy an EIN from an address that was not recently removed from said EIN via recovery.\"\n        );\n\n        emit IdentityDestroyed(msg.sender, ein, _identity.recoveryAddress, resetResolvers);\n\n        resetIdentityData(_identity, address(0), resetResolvers);\n    }\n\n    /// @dev \n    function resetIdentityData(Identity storage identity, address newRecoveryAddress, bool resetResolvers) private {\n        for (uint i; i < identity.associatedAddresses.members.length; i++) {\n            delete associatedAddressDirectory[identity.associatedAddresses.members[i]];\n        }\n        delete identity.associatedAddresses;\n        delete identity.providers;\n        if (resetResolvers) delete identity.resolvers;\n        identity.recoveryAddress = newRecoveryAddress;\n    }\n\n\n    //  //////////////////////////////////////////////////////////////////////////////////////////////////////////\n\n    event IdentityCreated(\n        address indexed initiator, uint indexed ein,\n        address recoveryAddress, address associatedAddress, address[] providers, address[] resolvers, bool delegated\n    );\n    event AssociatedAddressAdded(\n        address indexed initiator, uint indexed ein, address approvingAddress, address addedAddress, bool delegated\n    );\n    event AssociatedAddressRemoved(address indexed initiator, uint indexed ein, address removedAddress, bool delegated);\n    event ProviderAdded(address indexed initiator, uint indexed ein, address provider, bool delegated);\n    event ProviderRemoved(address indexed initiator, uint indexed ein, address provider, bool delegated);\n    event ResolverAdded(address indexed initiator, uint indexed ein, address resolvers, bool delegated);\n    event ResolverRemoved(address indexed initiator, uint indexed ein, address resolvers, bool delegated);\n    event RecoveryAddressChangeTriggered(\n        address indexed initiator, uint indexed ein,\n        address oldRecoveryAddress, address newRecoveryAddress, bool delegated\n    );\n    event RecoveryTriggered(\n        address indexed initiator, uint indexed ein, address[] oldAssociatedAddresses, address newAssociatedAddress\n    );\n    event IdentityDestroyed(address indexed initiator, uint indexed ein, address recoveryAddress, bool resolversReset);\n}",
  "sourcePath": "/Users/user/idhub/did-plus-contract/contracts/IdentityRegistry.sol",
  "compiler": {
    "name": "solc",
    "version": "0.5.8+commit.23d335f2.Emscripten.clang"
  },
  "schemaVersion": "3.0.11",
  "updatedAt": "2019-07-30T03:58:17.065Z",
  "devdoc": {
    "author": "Noah ZinsmeisterAndy ChorlianZaakin Yao",
    "methods": {
      "addAssociatedAddress(address,address,uint8,bytes32,bytes32,uint256)": {
        "params": {
          "addressToAdd": "",
          "approvingAddress": "",
          "r": "r",
          "s": "s",
          "timestamp": "",
          "v": "v"
        }
      },
      "addAssociatedAddressDelegated(address,address,uint8[2],bytes32[2],bytes32[2],uint256[2])": {
        "details": "`approvingAddress`",
        "params": {
          "addressToAdd": "`approvingAddress`",
          "approvingAddress": "",
          "r": "r",
          "s": "s",
          "timestamp": "",
          "v": "v"
        }
      },
      "addProviders(address[])": {
        "params": {
          "providers": "`Provider`"
        }
      },
      "addProvidersFor(uint256,address[])": {
        "params": {
          "ein": "`Provdier`EIN",
          "providers": "`Provider`"
        }
      },
      "addResolvers(address[])": {
        "params": {
          "resolvers": "`Resolver`"
        }
      },
      "addResolversFor(uint256,address[])": {
        "params": {
          "ein": "`Resolver`EIN",
          "resolvers": "`Resolver`"
        }
      },
      "createIdentity(address,address[],address[])": {
        "details": "`msg.sender`",
        "params": {
          "providers": "`Provider`",
          "recoveryAddress": "",
          "resolvers": "`Resolver`"
        },
        "return": "EIN"
      },
      "createIdentityDelegated(address,address,address[],address[],uint8,bytes32,bytes32,uint256)": {
        "params": {
          "associatedAddress": "",
          "providers": "`Provider`",
          "r": "r",
          "recoveryAddress": "",
          "resolvers": "`Resolver`",
          "s": "s",
          "timestamp": "",
          "v": "v"
        },
        "return": "EIN"
      },
      "getEIN(address)": {
        "details": "",
        "params": {
          "_address": ""
        },
        "return": "EIN"
      },
      "getIdentity(uint256)": {
        "details": "EIN",
        "params": {
          "ein": "EIN"
        },
        "return": "EIN"
      },
      "hasIdentity(address)": {
        "details": "",
        "params": {
          "_address": ""
        },
        "return": " true  false"
      },
      "identityExists(uint256)": {
        "details": "",
        "params": {
          "ein": "EIN"
        },
        "return": "EIN true  false"
      },
      "isAssociatedAddressFor(uint256,address)": {
        "details": "",
        "params": {
          "_address": "",
          "ein": "EIN"
        },
        "return": "EIN true  false"
      },
      "isProviderFor(uint256,address)": {
        "details": "",
        "params": {
          "ein": "EIN",
          "provider": "`Provider`"
        },
        "return": "`Provider`EIN true  false"
      },
      "isResolverFor(uint256,address)": {
        "details": "",
        "params": {
          "ein": "EIN",
          "resolver": "`Provider`"
        },
        "return": "`Provider`EIN true  false"
      },
      "isSigned(address,bytes32,uint8,bytes32,bytes32)": {
        "params": {
          "_address": "`messageHash`",
          "messageHash": "`messageHash`",
          "r": "r",
          "s": "s",
          "v": "v"
        },
        "return": " true  false"
      },
      "removeAssociatedAddressDelegated(address,uint8,bytes32,bytes32,uint256)": {
        "params": {
          "addressToRemove": "",
          "r": "r",
          "s": "s",
          "timestamp": "",
          "v": "v"
        }
      },
      "removeProviders(address[])": {
        "params": {
          "providers": "`Provider`"
        }
      },
      "removeProvidersFor(uint256,address[])": {
        "params": {
          "ein": "`Provdier`EIN",
          "providers": "`Provider`"
        }
      },
      "removeResolvers(address[])": {
        "params": {
          "resolvers": "`Resolver`"
        }
      },
      "removeResolversFor(uint256,address[])": {
        "params": {
          "ein": "`Resolver`EIN",
          "resolvers": "`Resolver`"
        }
      },
      "triggerDestruction(uint256,address[],address[],bool)": {
        "params": {
          "ein": "EIN",
          "firstChunk": "`msg.sender`",
          "lastChunk": "`msg.sender`",
          "resetResolvers": "`Resolver` true  false"
        }
      },
      "triggerRecovery(uint256,address,uint8,bytes32,bytes32,uint256)": {
        "details": "`msg.sender`",
        "params": {
          "ein": "EIN",
          "newAssociatedAddress": "EIN",
          "r": "r",
          "s": "s",
          "timestamp": "",
          "v": "v"
        }
      },
      "triggerRecoveryAddressChange(address)": {
        "details": "`recoveryTimeout`",
        "params": {
          "newRecoveryAddress": ""
        }
      },
      "triggerRecoveryAddressChangeFor(uint256,address)": {
        "details": "`recoveryTimeout`",
        "params": {
          "ein": "EIN",
          "newRecoveryAddress": "EIN"
        }
      }
    },
    "title": "The ERC-1484 Identity Registry."
  },
  "userdoc": {
    "methods": {
      "addAssociatedAddress(address,address,uint8,bytes32,bytes32,uint256)": {
        "notice": ""
      },
      "addAssociatedAddressDelegated(address,address,uint8[2],bytes32[2],bytes32[2],uint256[2])": {
        "notice": ""
      },
      "addProviders(address[])": {
        "notice": "`Provider`"
      },
      "addProvidersFor(uint256,address[])": {
        "notice": "`Provider``Provider`"
      },
      "addResolvers(address[])": {
        "notice": "`Resolver`"
      },
      "addResolversFor(uint256,address[])": {
        "notice": "`Provider``Resolver`"
      },
      "createIdentity(address,address[],address[])": {
        "notice": ""
      },
      "createIdentityDelegated(address,address,address[],address[],uint8,bytes32,bytes32,uint256)": {
        "notice": ""
      },
      "getEIN(address)": {
        "notice": "EIN"
      },
      "getIdentity(uint256)": {
        "notice": "EIN"
      },
      "hasIdentity(address)": {
        "notice": "`Identity`"
      },
      "identityExists(uint256)": {
        "notice": "EIN"
      },
      "isAssociatedAddressFor(uint256,address)": {
        "notice": "EINEIN"
      },
      "isProviderFor(uint256,address)": {
        "notice": "`Provider`EIN"
      },
      "isResolverFor(uint256,address)": {
        "notice": "`Provider`EIN"
      },
      "isSigned(address,bytes32,uint8,bytes32,bytes32)": {
        "notice": "`messageHash``_address`"
      },
      "removeAssociatedAddress()": {
        "notice": ""
      },
      "removeAssociatedAddressDelegated(address,uint8,bytes32,bytes32,uint256)": {
        "notice": ""
      },
      "removeProviders(address[])": {
        "notice": "`Provider`"
      },
      "removeProvidersFor(uint256,address[])": {
        "notice": "`Provider``Provider`"
      },
      "removeResolvers(address[])": {
        "notice": "`Resolver`"
      },
      "removeResolversFor(uint256,address[])": {
        "notice": "`Provider``Resolver`"
      },
      "triggerDestruction(uint256,address[],address[],bool)": {
        "notice": ""
      },
      "triggerRecovery(uint256,address,uint8,bytes32,bytes32,uint256)": {
        "notice": ""
      },
      "triggerRecoveryAddressChange(address)": {
        "notice": ""
      },
      "triggerRecoveryAddressChangeFor(uint256,address)": {
        "notice": "`Provider`"
      }
    }
  }
}