{
  "contractName": "SignatureVerifier",
  "abi": [
    {
      "constant": true,
      "inputs": [
        {
          "name": "_address",
          "type": "address"
        },
        {
          "name": "messageHash",
          "type": "bytes32"
        },
        {
          "name": "v",
          "type": "uint8"
        },
        {
          "name": "r",
          "type": "bytes32"
        },
        {
          "name": "s",
          "type": "bytes32"
        }
      ],
      "name": "isSigned",
      "outputs": [
        {
          "name": "",
          "type": "bool"
        }
      ],
      "payable": false,
      "stateMutability": "pure",
      "type": "function"
    }
  ],
  "bytecode": "0x608060405234801561001057600080fd5b50610281806100206000396000f3fe608060405234801561001057600080fd5b506004361061002b5760003560e01c80638677ebe814610030575b600080fd5b61009d600480360360a081101561004657600080fd5b81019080803573ffffffffffffffffffffffffffffffffffffffff16906020019092919080359060200190929190803560ff16906020019092919080359060200190929190803590602001909291905050506100b7565b604051808215151515815260200191505060405180910390f35b60006100c686868686866100e5565b806100da57506100d98686868686610187565b5b905095945050505050565b60008573ffffffffffffffffffffffffffffffffffffffff1660018686868660405160008152602001604052604051808581526020018460ff1660ff1681526020018381526020018281526020019450505050506020604051602081039080840390855afa15801561015b573d6000803e3d6000fd5b5050506020604051035173ffffffffffffffffffffffffffffffffffffffff1614905095945050505050565b600060606040518060400160405280601c81526020017f19457468657265756d205369676e6564204d6573736167653a0a33320000000081525090506102498782886040516020018083805190602001908083835b602083106101ff57805182526020820191506020810190506020830392506101dc565b6001836020036101000a03801982511681845116808217855250505050505090500182815260200192505050604051602081830303815290604052805190602001208787876100e5565b9150509594505050505056fea165627a7a72305820485ebab014fa53bf045d9952d824a66cc5ade8ac7577a32ca2d9d1cac5e7e8c00029",
  "source": "pragma solidity ^0.5.0;\n\n/// @title 提供检查传入签名有效性的帮助函数。\n/// @author Noah Zinsmeister, Zaakin Yao\n/// @dev 同时支持有前缀和无前缀的签名。\ncontract SignatureVerifier {\n    /// @notice 校验传入的`messageHash`的签名是否由`_address`的私钥创建。\n    /// @param _address 待校验的是否正确签名了`messageHash`的地址。\n    /// @param messageHash 待校验的是否被正确签名的`messageHash`。\n    /// @param v 签名的v值部分。\n    /// @param r 签名的r值部分。\n    /// @param s 签名的s值部分。\n    /// @return 签名校验通过则返回 true 否则返回 false\n    function isSigned(address _address, bytes32 messageHash, uint8 v, bytes32 r, bytes32 s) public pure returns (bool) {\n        return _isSigned(_address, messageHash, v, r, s) || _isSignedPrefixed(_address, messageHash, v, r, s);\n    }\n\n    /// @dev 校验消息未加前缀签名的内部函数。\n    function _isSigned(address _address, bytes32 messageHash, uint8 v, bytes32 r, bytes32 s)\n        internal pure returns (bool)\n    {\n        return ecrecover(messageHash, v, r, s) == _address;\n    }\n\n    /// @dev 校验消息加了前缀签名的内部函数。\n    function _isSignedPrefixed(address _address, bytes32 messageHash, uint8 v, bytes32 r, bytes32 s)\n        internal pure returns (bool)\n    {\n        bytes memory prefix = \"\\x19Ethereum Signed Message:\\n32\";\n        return _isSigned(_address, keccak256(abi.encodePacked(prefix, messageHash)), v, r, s);\n    }\n}",
  "sourcePath": "/Users/user/idhub/did-plus-contract/contracts/SignatureVerifier.sol",
  "compiler": {
    "name": "solc",
    "version": "0.5.8+commit.23d335f2.Emscripten.clang"
  },
  "schemaVersion": "3.0.11",
  "updatedAt": "2019-07-30T03:58:17.107Z",
  "devdoc": {
    "author": "Noah Zinsmeister, Zaakin Yao",
    "details": "同时支持有前缀和无前缀的签名。",
    "methods": {
      "isSigned(address,bytes32,uint8,bytes32,bytes32)": {
        "params": {
          "_address": "待校验的是否正确签名了`messageHash`的地址。",
          "messageHash": "待校验的是否被正确签名的`messageHash`。",
          "r": "签名的r值部分。",
          "s": "签名的s值部分。",
          "v": "签名的v值部分。"
        },
        "return": "签名校验通过则返回 true 否则返回 false"
      }
    },
    "title": "提供检查传入签名有效性的帮助函数。"
  },
  "userdoc": {
    "methods": {
      "isSigned(address,bytes32,uint8,bytes32,bytes32)": {
        "notice": "校验传入的`messageHash`的签名是否由`_address`的私钥创建。"
      }
    }
  }
}