{
  "contractName": "whitelist",
  "abi": [
    {
      "inputs": [],
      "payable": false,
      "stateMutability": "nonpayable",
      "type": "constructor"
    },
    {
      "anonymous": false,
      "inputs": [
        {
          "indexed": false,
          "name": "Addr",
          "type": "address"
        }
      ],
      "name": "AddP",
      "type": "event"
    },
    {
      "anonymous": false,
      "inputs": [
        {
          "indexed": false,
          "name": "Addr",
          "type": "address"
        }
      ],
      "name": "RevokeP",
      "type": "event"
    },
    {
      "constant": false,
      "inputs": [
        {
          "name": "_personal",
          "type": "address"
        }
      ],
      "name": "AddPersonal",
      "outputs": [],
      "payable": false,
      "stateMutability": "nonpayable",
      "type": "function"
    },
    {
      "constant": false,
      "inputs": [
        {
          "name": "_personal",
          "type": "address"
        }
      ],
      "name": "RevokePersonal",
      "outputs": [],
      "payable": false,
      "stateMutability": "nonpayable",
      "type": "function"
    },
    {
      "constant": true,
      "inputs": [
        {
          "name": "_personal",
          "type": "address"
        }
      ],
      "name": "FindPersonal",
      "outputs": [
        {
          "name": "",
          "type": "bool"
        }
      ],
      "payable": false,
      "stateMutability": "view",
      "type": "function"
    }
  ],
  "bytecode": "0x60806040526201518060025534801561001757600080fd5b5033600160006101000a81548173ffffffffffffffffffffffffffffffffffffffff021916908373ffffffffffffffffffffffffffffffffffffffff1602179055506104a5806100686000396000f3fe608060405234801561001057600080fd5b50600436106100415760003560e01c806304681ba8146100465780632fe3510b1461008a578063653cf8cd146100ce575b600080fd5b6100886004803603602081101561005c57600080fd5b81019080803573ffffffffffffffffffffffffffffffffffffffff16906020019092919050505061012a565b005b6100cc600480360360208110156100a057600080fd5b81019080803573ffffffffffffffffffffffffffffffffffffffff169060200190929190505050610250565b005b610110600480360360208110156100e457600080fd5b81019080803573ffffffffffffffffffffffffffffffffffffffff1690602001909291905050506103d7565b604051808215151515815260200191505060405180910390f35b600160009054906101000a900473ffffffffffffffffffffffffffffffffffffffff1673ffffffffffffffffffffffffffffffffffffffff163373ffffffffffffffffffffffffffffffffffffffff161461018457600080fd5b60008190806001815401808255809150509060018203906000526020600020016000909192909190916101000a81548173ffffffffffffffffffffffffffffffffffffffff021916908373ffffffffffffffffffffffffffffffffffffffff160217905550507f959fe4ed573e64caadd000745943fb61d254ce22597570e643cb9df7f854842d81604051808273ffffffffffffffffffffffffffffffffffffffff1673ffffffffffffffffffffffffffffffffffffffff16815260200191505060405180910390a150565b600160009054906101000a900473ffffffffffffffffffffffffffffffffffffffff1673ffffffffffffffffffffffffffffffffffffffff163373ffffffffffffffffffffffffffffffffffffffff16146102aa57600080fd5b60008090505b60008054905081101561037057600081815481106102ca57fe5b9060005260206000200160009054906101000a900473ffffffffffffffffffffffffffffffffffffffff1673ffffffffffffffffffffffffffffffffffffffff168273ffffffffffffffffffffffffffffffffffffffff161415610363576000818154811061033557fe5b9060005260206000200160006101000a81549073ffffffffffffffffffffffffffffffffffffffff02191690555b80806001019150506102b0565b507fd2209d67391e57b9985970545cdde1e25518305fe3602703bdeb937dc293a64e81604051808273ffffffffffffffffffffffffffffffffffffffff1673ffffffffffffffffffffffffffffffffffffffff16815260200191505060405180910390a150565b600080600090505b60008054905081101561046e57600081815481106103f957fe5b9060005260206000200160009054906101000a900473ffffffffffffffffffffffffffffffffffffffff1673ffffffffffffffffffffffffffffffffffffffff168373ffffffffffffffffffffffffffffffffffffffff161415610461576001915050610474565b80806001019150506103df565b50600090505b91905056fea165627a7a72305820bc5211b5901887cd566707cde53845d524add4c98e4f44bca84c97a9e95b952b0029",
  "source": "pragma solidity^0.5.0;\n\n\ncontract whitelist {\n    \n\n    address[] PersonalAdd;\n    address owner;\n       \n    \n    event AddP(address Addr);\n    event RevokeP(address Addr);\n    \n    constructor()public{\n            owner = msg.sender;\n        }\n        \n    modifier onlyOwner() {\n        require(msg.sender == owner);\n        _;\n    }   \n    \n    uint time = 1 days;\n    \n /**\n  * @dev Add address to the whitelist\n  * @param _personal is address about KYC accredited.\n  */\n    \n    function AddPersonal(address _personal) public onlyOwner {\n        \n        PersonalAdd.push(_personal);\n        emit AddP(_personal);\n        \n    }\n    \n /**\n  * @dev revoke address to the whitelist\n  * @param _personal is address.\n  */ \n  \n    function RevokePersonal(address _personal) public onlyOwner {\n        \n        for (uint i = 0;i<PersonalAdd.length;i++){\n            if (_personal == PersonalAdd[i]){\n                delete PersonalAdd[i];\n            }\n        }\n        emit RevokeP(_personal);\n        \n    }\n    \n /**\n  * @dev find address to the whitelist\n  * @param _personal is address.\n  */ \n  \n    function FindPersonal(address _personal) public view returns(bool) {\n        \n        for (uint i = 0;i<PersonalAdd.length;i++){\n            if (_personal == PersonalAdd[i]){\n                return true;\n            }\n        }\n        return false;\n    }\n//  /**\n//   * @dev Computational Lock\n//   * @param _data is Lockdata.\n//   */ \n  \n//     function getdata(uint _data) public returns(uint256 Lockdata){\n//         uint Lockwithdata = now + time*_data;\n//         Lockdata = uint256(Lockwithdata);\n//         return Lockdata;\n//     }\n}\n",
  "sourcePath": "/Users/user/idhub/did-plus-contract/contracts/whitelist.sol",
  "compiler": {
    "name": "solc",
    "version": "0.5.8+commit.23d335f2.Emscripten.clang"
  },
  "schemaVersion": "3.0.11",
  "updatedAt": "2019-09-18T03:24:54.351Z",
  "devdoc": {
    "methods": {
      "AddPersonal(address)": {
        "details": "Add address to the whitelist",
        "params": {
          "_personal": "is address about KYC accredited."
        }
      },
      "FindPersonal(address)": {
        "details": "find address to the whitelist",
        "params": {
          "_personal": "is address."
        }
      },
      "RevokePersonal(address)": {
        "details": "revoke address to the whitelist",
        "params": {
          "_personal": "is address."
        }
      }
    }
  },
  "userdoc": {
    "methods": {}
  }
}